:020000040800F2
:1000000000000A20193500080D3000080F300008E4
:1000100011300008133000081530000800000000FF
:100020000000000000000000000000001730000881
:1000300019300008000000001B3000081D300008C7
:100040006935000869350008693500086935000818
:100050006935000869350008693500086935000808
:1000600069350008693500086935000869350008F8
:1000700069350008693500086935000869350008E8
:1000800069350008693500086935000869350008D8
:1000900069350008693500086935000869350008C8
:1000A00069350008693500086935000869350008B8
:1000B00069350008693500086935000869350008A8
:1000C0006935000869350008693500086935000898
:1000D0006935000869350008693500086935000888
:1000E0006935000869350008693500086935000878
:1000F000693500086935000869350008000000000E
:100100006935000869350008693500086935000857
:100110006935000869350008693500086935000847
:100120006935000869350008693500086935000837
:100130006935000869350008693500086935000827
:100140006935000869350008693500082130000864
:100150006935000869350008693500086935000807
:1001600069350008693500086935000869350008F7
:10017000693500086935000869350008000000008D
:1001800069350008693500086935000869350008D7
:100190006935000869350008000000000000000013
:1001A0000000000000000000693500086935000803
:0C01B00069350008693500086935000851
:1001BC0010B5054C237833B9044B13B10448AFF395
:1001CC0000800123237010BD5001002000000000AE
:1001DC00C435000808B5034B1BB103490348AFF302
:1001EC00008008BD0000000054010020C435000848
:1001FC0038B50A4B054618684FF47A73B0FBF3F028
:10020C0000F08CF8044638B9024629464FF0FF300E
:10021C0000F044F8204638BD012038BDD80000203D
:10022C0010B5032000F028F80020FFF7E1FF04468A
:10023C0018B902F0CDFE204610BD0124FBE70000EA
:10024C00024A136801331360704700BF8C01002011
:10025C00014B1868704700BF8C01002038B504466C
:10026C00FFF7F6FF631C054618BF0134FFF7F0FFDC
:10027C00401B8442FAD838BD074AD36823F4E063A4
:10028C001B041B0C43F0BF63000243F4003300F467
:10029C00E0600343D360704700ED00E0174B30B5CE
:1002AC00DC68C4F30224C4F10703251D042B28BF0A
:1002BC000423062D4FF0010505FA03F303F1FF3378
:1002CC008CBF033C00241940A14005FA04F4013C06
:1002DC002240002842EA01024FEA0212AFBF00F1AD
:1002EC00604000F00F00064BD2B2A5BF00F5614094
:1002FC00D2B21A5480F8002330BD00BF00ED00E0EC
:10030C0014ED00E04209012300F01F0003FA00F095
:10031C00014B43F82200704700E100E00138B0F1D6
:10032C00807F0AD2064B074A5860F02182F82310CE
:10033C000020072298601A6070470120704700BFA8
:10034C0010E000E000ED00E02DE9F74FD1F800805F
:10035C00DFF8A091654A002338FA03F402D103B008
:10036C00BDE8F08F4FF0010E0EFA03FE18EA0E06F0
:10037C0000F0AB804C6824F01007022F16D14FEA26
:10038C00D30A00EB8A0A03F0070BDAF820504FEA85
:10039C008B0B4FF00F0C0CFA0BFC25EA0C0C0D69B7
:1003AC0005FA0BF545EA0C05CAF820504FEA430A4A
:1003BC000325D0F800B005FA0AF5ED4304F0030C60
:1003CC000BEA050B0CFA0AFC013F4CEA0B0C012F53
:1003DC00C0F800C011D8876807EA050BCF6807FA88
:1003EC000AFC4CEA0B078760476827EA0E0EC4F339
:1003FC0000179F4047EA0E074760C7683D408F686B
:10040C0007FA0AF73D43C560E5005ED5D9F86050A0
:10041C0045F00105C9F86050D9F8605023F0030786
:10042C0007F1804705F0010507F58037019503F0CA
:10043C00030E019DD7F808A04FF00F0C4FEA8E0E5B
:10044C000CFA0EF5B0F1904F2AEA050C3FD0284D6E
:10045C00A8423ED005F58065A8423CD005F58065E4
:10046C00A8423AD005F58065A84238D005F58065DC
:10047C00A84236D005F58065A84234D005F58065D4
:10048C00A84214BF0825072505FA0EF545EA0C0508
:10049C00BD601568F74314F4803F0CBF3D403543F5
:1004AC001560556814F4003F0CBF3D403543556052
:1004BC00956814F4801F0CBF3D4035439560D5689A
:1004CC00A40254BF3D403543D560013344E70025B9
:1004DC00DAE70125D8E70225D6E70325D4E704257A
:1004EC00D2E70525D0E70625CEE700BF0004014082
:1004FC0000040048001002402DE9F04104468AB087
:10050C00002874D090F8BD3303F0FF021BB980F8BB
:10051C00BC2302F0D1FD2546032355F8100B84F8BB
:10052C00BD3301F0AEFC0FCD6E460FC60FCD0FC61E
:10053C0095E8030086E8030004F1040898E80E002F
:10054C00206801F069FC0021206801F0A0FC00216A
:10055C002246234604F110050126084683F83C1078
:10056C00A3F8421001310F2983F83D6083F83F0056
:10057C0058649864186503F11C03EFD100231F46DF
:10058C0082F8FC3101330F2B82F8FD7182F8FF7178
:10059C00C2F80472C2F80872C2F8107202F11C029E
:1005AC00EED10FCD6E460FC60FCD0FC695E80300EA
:1005BC0086E8030098E80E00206801F0A9FC0123EE
:1005CC0084F8387084F8BD33636A012B02D120465D
:1005DC0000F026FCA36A012B02D1204600F033FC6C
:1005EC00206801F06FFF00200AB0BDE8F081012007
:1005FC00FAE790F8BC33012B10B504460CD001235C
:10060C0080F8BC33006801F051FF206801F033FC26
:10061C00002084F8BC0310BD022010BD2DE9F04F62
:10062C00D0F8009085B004464846D9F8408001F0D7
:10063C0084FF0090002840F05481206801F04EFFA8
:10064C00002800F04E81206801F048FF800748BF69
:10065C002268206842BF536903F00203536101F022
:10066C003DFF10F4002B0BD0206801F03BFF09F587
:10067C0030660546B2464FF0000B002D40F0348139
:10068C00206801F02BFF47030CD5206801F032FFE6
:10069C002546019009F510684FF0000B019B002BCB
:1006AC0040F06481206801F019FF002815DAD9F8B0
:1006BC00043823F00103C9F8043894F8F433012BFF
:1006CC0040F0CF81002184F8F413204602F062FE42
:1006DC002268536903F000435361206801F0FEFE69
:1006EC0005050BD5D9F80838D80702D5204602F0F5
:1006FC005BFD2268536903F400635361206801F0C9
:10070C00EDFE010114D523685A6902F000625A61AA
:10071C0094F8F423002A40F0A8815B6D0121C3F307
:10072C00830384F8F413C4F8F833204602F032FE45
:10073C00206801F0D3FEC20434D509F500656B685E
:10074C00206823F001036B60102101F0B7FB606897
:10075C0009F510634FF67F31009A824240F089818F
:10076C00EB6943F00113EB61236B002B00F09A81D2
:10077C00D5F8843043F00B03C5F884306B6C43F030
:10078C000B036B64D9F80038206823F4FE63C9F8B6
:10079C00003804F5717101F0EFFE2268536903F41F
:1007AC0080535361206801F099FE830420D52068A2
:1007BC0001F0C7FE2268D36823F47053D36003237F
:1007CC00E3604023636100F095FFB34BB34A0344ED
:1007DC009342236800F26F81DA6842F47052DA6057
:1007EC00204602F0CEFC2268536903F40053536197
:1007FC00206801F073FEC7062BD52268936923F09D
:10080C0010039361D9F82050C5F34343022B05F034
:10081C000F0740F0A08147F6F0731D4214D01C2640
:10082C0006FB0746C5F30A152A46D6F808124846B1
:10083C0001F0C6FDD6F808322B44C6F80832D6F8BB
:10084C0014321D44C6F814522268936943F0100305
:10085C009361206801F042FE060707D5204602F09E
:10086C008CFC2268536903F008035361206801F083
:10087C0035FEC50209D55FFA8BF1204602F0CAFCA1
:10088C002268536903F480135361206801F026FE3B
:10089C00800209D55FFA8BF1204602F0B7FC226882
:1008AC00536903F400135361206801F017FE4100F3
:1008BC0007D5204602F0B2FC2268536903F080434E
:1008CC005361206801F00AFE42070AD523685D686F
:1008DC006B0702D5204602F0A5FC23685A68154325
:1008EC005D6005B0BDE8F08FE9072ED55FFA8BF29D
:1008FC0011462068019201F005FEC20707460DD58E
:10090C00674B019A01219845CAF8081029D1B168A2
:10091C000B0420D54FF40042CAF8082039070FD534
:10092C005F4B984506D1B268120444BF4FF40042A5
:10093C00CAF80820204602F009FC0823CAF808303F
:10094C00FB0644BF1023CAF808300BF1010B6D08ED
:10095C000AF1200A91E6B168880644BF2021CAF842
:10096C0008101146204602F0F7FBD7E7019BDE0783
:10097C006ED55FFA8BFA5146206801F0CCFD064625
:10098C00F00710D5D9F8343801200BF00F0200FA1B
:10099C0002F223EA0203C9F834385146C8F80800B9
:1009AC00204602F0E2FB310744BF0823C8F80830A8
:1009BC00F20644BF1023C8F80830730644BF402326
:1009CC00C8F80830B70744BF0223C8F80830360609
:1009DC003ED56B6D2E6DB3423AD8F61A6B6C22680D
:1009EC0002929E4228BF1E4602F51063033603EBAB
:1009FC004B13B6080393039B2F6D9B699BB2B342B9
:100A0C006B6D23D99F4221D967B9029B012203F553
:100A1C00006AD3F8343802FA0BF223EA0203CAF85C
:100A2C00343015E0FF1A6B6CA96C02989F4228BFFA
:100A3C001F46BBB2524601F0EDFBAB6C3B44AB64C2
:100A4C006B6DFE1C1F44B6086F65D4E79F42DCD962
:100A5C00019B5B080BF1010B01931C3508F120087D
:100A6C001CE6204602F0B8FB32E6204602F09CFB66
:100A7C005EE699601A6822F400121A60C3F8081234
:100A8C00D3F8002222F40012C3F80022009A01329B
:100A9C000092203360E600BF405327FFFF340C0068
:100AAC000A31544F6B6943F00B036B612B6943F0B4
:100ABC000B032B6166E62F4A2F4902448A4203D866
:100ACC00DA6842F460528AE6A0F574022B49A2F56A
:100ADC0010528A4203D8DA6842F450527FE6A0F1F1
:100AEC0083722749A2F5E7428A4203D8DA6842F4B6
:100AFC00405274E6234A244902448A4203D8DA68F5
:100B0C0042F430526BE6214A214902448A4203D80E
:100B1C00DA6842F4205262E61E4A1F4902448A42B5
:100B2C0003D8DA6842F4105259E6A0F1B7721B49A7
:100B3C00A2F558528A4203D8DA6842F400524EE6C3
:100B4C00174A184902448A42DA6894BF42F4E052C8
:100B5C0042F4C05243E6062B7FF476AE082204F52D
:100B6C00717148461C2601F02BFC06FB0746C5F3A9
:100B7C000A1564E6401E1BFF3F420F007F4F120018
:100B8C001FD6130060B6E5FE5FE3160000D3CEFE61
:100B9C003F771B00C05BB3FEBF9121001F7538006F
:100BAC00E05459FEDF9C410090F8BC23012A10B59B
:100BBC0004460BD0012280F8BC2384F8381000685E
:100BCC0001F064FC002084F8BC0310BD022010BDB1
:100BDC0070B5044601F00F0011F0800F4FF01C06A9
:100BEC00C5B206FB054115BF06FB054506FB0545D1
:100BFC003C3101F5FE7115BF0126002685F83D60DC
:100C0C0085F8FD618A604A78CB70C0B2087002B179
:100C1C00C880022B04BF00230B7194F8BC33012B4A
:100C2C0009D0012384F8BC33206801F00DFA0020B0
:100C3C0084F8BC0370BD022070BD01F00F03DAB262
:100C4C0010B504461C2011F0800F00FB024119BFA7
:100C5C003C3100FB024200FB024201F5FE7115BF64
:100C6C000120002082F83D0082F8FD010B7094F801
:100C7C00BC33012B09D0012384F8BC33206801F06C
:100C8C0025FA002084F8BC0310BD022010BD38B535
:100C9C0001F00F051C2404FB050104FB050401F500
:100CAC00FE71C4F810320023C4F80822C4F81432C0
:100CBC0084F8FD3184F8FC5100681DB901F038FA54
:100CCC00002038BD01F0B6FAFAE738B501F00F058F
:100CDC001C2404FB050104FB05043C3123650023A3
:100CEC0063650123A26484F83D3084F83C500068AD
:100CFC001DB901F01DFA002038BD01F09BFAFAE78E
:100D0C0038B5436801F00F059D4204462DD811F00B
:100D1C00800F4FF01C021ED002FB050102FB0503E5
:100D2C0001223C3381F83D2001229A701D7094F809
:100D3C00BC1391421BD084F8BC231946206801F0E7
:100D4C004DFB25B904F57171206801F015FC0020EC
:100D5C0084F8BC0338BD02FB010302FB0101002235
:100D6C0003F5FE7381F8FD21DEE7012038BD02207A
:100D7C0038BD38B5436801F00F029A42044626D8B4
:100D8C001C2311F0800F03FB020119BF3C3103FB44
:100D9C00020301F5FE7103FB024314BF0120002086
:100DAC004FF0000514BF83F83D0083F8FD018D70F2
:100DBC000A7094F8BC33012B0BD0012384F8BC339C
:100DCC00206801F038FB84F8BC53284638BD01205C
:100DDC0038BD022038BD70B50468636A21B943EA96
:100DEC000243A362002070BDA06A4D1E03EB1043AA
:100DFC000020461CC0B2854206D83F3104EB81046A
:100E0C0043EA02436360EDE7403004EB8000406846
:100E1C0003EB10433046ECE703680020596270473F
:100E2C00026803460121C0F8FC13002083F8F40388
:100E3C00936943F000639361536D43F0805343F027
:100E4C0003035365704702680123C0F80034936BA9
:100E5C0043F400339363002070470000074B18687D
:100E6C0000F4C060B0F5806F07D0D3F8803013F475
:100E7C00807F14BF4FF4007000207047007000405A
:100E8C00294B1A6828BB02F4C062B2F5806FD3F804
:100E9C00802022F48072C3F8802019D11A6822F4C1
:100EAC00C06242F400721A60204A116832224A432E
:100EBC001F49B2FBF1F2194601325869400500D5C1
:100ECC0022B94B695B052DD503207047013AF4E735
:100EDC007047B0F5007F20D102F4C062B2F5806F8C
:100EEC00D3F8802042F48072C3F880201AD11A689B
:100EFC0022F4C06242F400721A600C4A1168322269
:100F0C004A430B49B2FBF1F21946013258694005CC
:100F1C00D7D5002AD5D0013AF8E722F4C06242F4C2
:100F2C0080621A600020704700700040D8000020DA
:100F3C0040420F00024A536843F480635360704789
:100F4C000070004037B51C4DAB6DDA00044618D567
:100F5C00FFF784FFB0F5007F23D1802C28D9A02C7B
:100F6C008CBF02200120154A136823F00F030343A2
:100F7C001360136803F00F03181A18BF012003B095
:100F8C0030BDAB6D43F08053AB65AB6D03F080535C
:100F9C000193019BFFF762FFAB6D23F08053AB65B0
:100FAC00D8E77F2C06D8A4F1700358425841DAE7F1
:100FBC000020D8E70220D6E70010024000200240B3
:100FCC00234B9A68D96812F00C0205D00C2A15D163
:100FDC0001F00301012918D119681E48090755BFF2
:100FEC00D3F894101968C1F30321C1F3031150F81D
:100FFC00210012B10C2A09D000207047042A24D0F9
:10100C00082A154818BF002070470020D968DA68F4
:10101C0001F00301C2F30312022902F1010205D00F
:10102C00032903D0D968C1F3062103E0D9680A4823
:10103C00C1F30621DB68B0FBF2F0C3F3416301336B
:10104C0048435B00B0FBF3F070470348704700BFA8
:10105C0000100240EC3500080024F4002DE9F743A1
:10106C00054608B9012046E0A84C0368A668E76865
:10107C00D80606F00C0607F0030772D51EB10C2E2D
:10108C0051D1012F4FD12368990702D5AB69002BA1
:10109C00E8D02368286A1A0756BFD4F8943023681E
:1010AC001B0903F0F003834228D2FFF74BFF002803
:1010BC00D8D1236843F00803236023682A6A23F0FD
:1010CC00F003134323606368EA6923F47F4343EA24
:1010DC0002236360FFF774FFA3688D4AC3F3031305
:1010EC00D35C03F01F03D8408A4B18600020FFF735
:1010FC007FF8002835D003B0BDE8F083236843F0B7
:10110C0008032360236823F0F00303432360636820
:10111C00EA6923F47F4343EA02236360FFF712FF7B
:10112C000028D7D09EE7AB69002B3AD0236843F058
:10113C0001032360FFF78CF8804623689B0728D5B2
:10114C00236843F00803236023682A6A23F0F00322
:10115C00134323606368EA6923F47F4343EA022361
:10116C0063602B68D9072DD42B689A076BD42B6836
:10117C00190700F1A0802B685A0700F1CD802B686D
:10118C009A0600F13681AB6A002B40F05C8100209E
:10119C00B1E7FFF75DF8A0EB08000228CDD90320DA
:1011AC00A9E7236823F001032360FFF751F8804679
:1011BC0023689807D5D5FFF74BF8A0EB0800022859
:1011CC00F6D9ECE7082E03D00C2E08D1032F06D14C
:1011DC0023689B03C8D56B68002BC5D142E76B68AD
:1011EC00B3F5803F10D1236843F480332360FFF7BD
:1011FC002FF8804623689803B6D4FFF729F8A0EBA4
:10120C0008006428F6D9CAE7B3F5A02F04D12368E7
:10121C0043F480232360E6E7226822F480322260C4
:10122C00226822F480222260002BE0D1FFF710F814
:10123C0080462368990397D5FFF70AF8A0EB0800BE
:10124C006428F6D9ABE7042E03D00C2E10D1022F54
:10125C000ED123685A0503D5EB68002B3FF402AF7F
:10126C0063682A6923F0FE4343EA026363607EE706
:10127C00EB687BB1236843F480732360FEF7E8FFCF
:10128C00074623685B05EBD4FEF7E2FFC01B022880
:10129C00F7D984E7236823F480732360FEF7D8FF23
:1012AC000746236858057FF562AFFEF7D1FFC01BD8
:1012BC000228F6D973E76B699BB1D4F8943043F0EC
:1012CC000103C4F89430FEF7C3FF0746D4F89430FA
:1012DC009B073FF550AFFEF7BBFFC01B0228F5D9AB
:1012EC005DE7D4F8943023F00103C4F89430FEF792
:1012FC00AFFF0746D4F8943098077FF53CAFFEF764
:10130C00A7FFC01B0228F5D949E700BF0010024017
:10131C00DC350008D8000020A36DD90029D4A36DBA
:10132C0043F08053A365A36D03F080530193019B9D
:10133C004FF00108714F3B68DA051DD5AB68012BE6
:10134C002BD1D4F8903043F00103C4F89030FEF761
:10135C007FFF41F288390746D4F89030980742D580
:10136C00B8F1000F3FF40BAFA36D23F08053A365CE
:10137C0005E74FF00008DDE73B6843F480733B6002
:10138C00FEF766FF81463B68DB05D7D4FEF760FFAE
:10139C00A0EB09000228F6D901E7052B06D1D4F8F9
:1013AC00903043F00403C4F89030CAE7D4F890208E
:1013BC0022F00102C4F89020D4F8902022F004020C
:1013CC00C4F89020002BC2D1FEF742FF41F28839BD
:1013DC000746D4F890309907C2D5FEF739FFC01BE9
:1013EC004845F6D9DBE6FEF733FFC01B4845B3D9B9
:1013FC00D5E66B6A9BB1D4F8983043F00103C4F87E
:10140C009830FEF725FF0746D4F898309B073FF538
:10141C00BAAEFEF71DFFC01B0228F5D9BFE6D4F803
:10142C00983023F00103C4F89830FEF711FF0746FB
:10143C00D4F8983098077FF5A6AEFEF709FFC01BCD
:10144C000228F5D9ABE60C2E3FF40CAE022B236828
:10145C0023F08073236036D1FEF7FAFE064623682C
:10146C0099012AD4AB6B6A6BDB0643EA0223EA6A66
:10147C0013432A6B013A43EA0213EA6B5208013A0E
:10148C0043EA42532A6C5208013A43EA4263E3604E
:10149C00236843F080732360E36843F08073E36058
:1014AC00FEF7D6FE054623689A013FF570AEFEF7AF
:1014BC00CFFE401B0228F6D971E6FEF7C9FE801B51
:1014CC000228CCD96BE6236813F0205F02BFE368D7
:1014DC0023F00303E360E36823F0887323F4803381
:1014EC00E360FEF7B5FE054623689B017FF54FAE22
:1014FC00FEF7AEFE401B0228F6D950E60070004005
:10150C002DE9F8430E46054610B90120BDE8F883D5
:10151C00714A136803F00F038B4234D3296811F01E
:10152C0001073BD12A68910740F1BB806B49A86841
:10153C008B6823F0F00303438B6067490B6803F05F
:10154C000F039E42C0F0B58012F0040F634C40F0C4
:10155C00BC80130706D5A3682A6923F4605343EAB9
:10156C00C203A360FFF72CFDA3685D4AC3F303130A
:10157C00D35C03F01F03D8405A4B18600020BDE821
:10158C00F843FEF735BE136823F00F030B431360CB
:10159C00136803F00F039942B7D1BFE76B684F4C48
:1015AC00032B68D123689B01AFD5E36803F00303D9
:1015BC00012B1ED123684C4A1F0755BFD4F8943019
:1015CC002368C3F30323C3F3031352F82320E76800
:1015DC00E368C3F30313581C07F00303022B0AD070
:1015EC00032B08D0B2FBF0F3E768C7F306277B4365
:1015FC0008E00022EBE7E2683C4BB3FBF0F3C2F3EC
:10160C0006225343E268C2F3416201325200B3FB3B
:10161C00F2F3374A93421CD80027A3686A6823F078
:10162C0003031343A360FEF713FE41F2883980468F
:10163C00A3686A6803F00C03B3EB820F3FF472AF3C
:10164C00FEF706FEA0EB08004845F1D90320BDE8E3
:10165C00F883A36813F0F00F07D1A36823F0F0030D
:10166C0043F08003A3608027D7E78807D4D5AB6805
:10167C00002BD1D1F1E7022B0AD1236813F4003FE0
:10168C003FF443AFFFF79CFC194B9842C4D9E4E7F5
:10169C001BB9236813F0020FF2E7236813F4806F71
:1016AC00EEE7802F7FF449AF0C498B6823F0F003F1
:1016BC0042E70B6823F00F0333430B600B6803F016
:1016CC000F039E427FF421AF3EE7A368E96823F441
:1016DC00E0630B43A3603CE7002002400010024093
:1016EC00DC350008D8000020EC3500080024F4009C
:1016FC0000B4C404014B1868704700BFD800002028
:10170C00F8B53F4BDA6812F0030F05460E461C463F
:10171C00006822D0DB6803F00303834230D17BB333
:10172C00236823F080632360FEF792FD074623684D
:10173C001A012ED4AF686B6896B3012E4CD1226976
:10174C00304911402A6941EA0721013B520841EA1C
:10175C000313013A43EA42532DE002280CD003282C
:10176C0010D001280CD11B689F0734D5E36823F0F7
:10177C0003031843E060D3E71B6813F4806FF5D1C3
:10178C000120F8BD1A689103F0D41B6813F4802F64
:10179C00F5E7FEF75DFDC01B0228C8D90320F8BD94
:1017AC00E86826691849C20642EA072231400A4312
:1017BC00013B42EA03132361236843F080632360F7
:1017CC00FEF746FD064623681B0113D52369AA695B
:1017DC00134323610020F8BD21690C4A0A4042EAF8
:1017EC000722013B42EA03136A695208013A43EAB1
:1017FC004263E0E7FEF72CFD801B0228E3D9CDE71E
:10180C00001002400F809FFF0F80FF070F80FFF931
:10181C00F8B53F4BDA6812F0030F05460E461C462E
:10182C00006822D0DB6803F00303834230D17BB322
:10183C00236823F080532360FEF70AFD07462368D4
:10184C009A002ED4AF686B6896B3012E4CD16269A6
:10185C00304911402A6941EA0721013B520841EA0B
:10186C000313013A43EA42532DE002280CD003281B
:10187C0010D001280CD11B689F0734D5E36823F0E6
:10188C0003031843E060D3E71B6813F4806FF5D1B2
:10189C000120F8BD1A689103F0D41B6813F4802F53
:1018AC00F5E7FEF7D5FCC01B0228C8D90320F8BD0C
:1018BC00E86866691849C20642EA072231400A43C1
:1018CC00013B42EA03136361236843F080532360B6
:1018DC00FEF7BEFC064623689B0013D56369AA6914
:1018EC00134363610020F8BD61690C4A0A4042EA67
:1018FC000722013B42EA03136A695208013A43EAA0
:10190C004263E0E7FEF7A4FC801B0228E3D9CDE795
:10191C00001002400F809FFF0F80FF070F80FFF920
:10192C002DE9F347056815F40065044623D0C16E14
:10193C00402914D004D8C1B120292BD001251AE09C
:10194C00602901D08029F9D14E4AE16ED2F89C3041
:10195C0023F0E0030B43C2F89C3000250BE0494A0E
:10196C00D36843F48033D360EEE70430FFF7C8FE4E
:10197C0005460028E8D02368DB0409D5216FB1F5B2
:10198C00007F14D00BD8C1B1B1F5807F71D0012587
:10199C002E4621E000212030FFF73AFFE8E7B1F5B1
:1019AC00407F02D0B1F5806FF1D12E4609E0354A67
:1019BC00D36843F48033D360F7E7201DFFF7A0FE14
:1019CC000646002E5BD12F4A216FD2F89C3023F4AF
:1019DC00E0630B43C2F89C3023689F0365D5294F05
:1019EC00BB6DD80040F1F3814FF00008DFF8989000
:1019FC00D9F8003043F48073C9F80030FEF728FCA6
:101A0C008246D9F80030D90540D5002E40F0978198
:101A1C00D7F8903013F4407315D0D4F89820934233
:101A2C0011D0D7F89030D7F8902042F48032C7F814
:101A3C009020D7F8902023F4407322F48032C7F81A
:101A4C009020C7F89030DA0709D5FEF701FC41F277
:101A5C00883A8146D7F890309B0740F16881D7F8D7
:101A6C009030D4F8982023F440731343C7F8903087
:101A7C0014E0002104F12000FFF7CAFEA0E7354670
:101A8C00AAE700BF0010024000700040FEF7E0FB28
:101A9C00A0EB0A000228B4D903252E46B8F1000F9A
:101AAC0003D0BB6D23F08053BB652368DF0708D5DB
:101ABC00C049E06BD1F8882022F003020243C1F840
:101ACC008820980708D5BB49206CD1F8882022F0D3
:101ADC000C020243C1F88820590708D5B549606C3F
:101AEC00D1F8882022F030020243C1F888201A076E
:101AFC0008D5B049A06CD1F8882022F0C00202436E
:101B0C00C1F88820DF0608D5AA49E06CD1F88820F6
:101B1C0022F440720243C1F88820980608D5A549E2
:101B2C00206DD1F8882022F440620243C1F888204D
:101B3C00990508D59F49606ED1F8882022F440227F
:101B4C000243C1F888205A0508D59A49A06ED1F8ED
:101B5C00882022F440120243C1F888205F0608D581
:101B6C009449606DD1F8882022F440520243C1F8A8
:101B7C008820180608D58F49A06DD1F8882022F44A
:101B8C0040420243C1F88820D90508D58949E06D47
:101B9C00D1F8882022F440320243C1F88820DA02BE
:101BAC0008D58449206ED1F89C2022F00302024310
:101BBC00C1F89C209F0410D57E4A616FD2F8883002
:101BCC0023F040630B43B1F1006FC2F8883040F052
:101BDC00B880D36843F48013D360236818030FD5FF
:101BEC00A16F744BB1F5804FD3F89C2040F0B680B8
:101BFC0042F48042C3F89C20DA6842F48032DA6006
:101C0C002368590310D56B4AE16FD2F8883023F062
:101C1C0040630B43B1F1006FC2F8883040F0BD80D7
:101C2C00D36843F48013D36023685A0414D56149F4
:101C3C00D4F88020D1F8883023F040531343B2F10C
:101C4C00805FC1F8883007D10221201DFFF758FDB5
:101C5C000646002818BF05462268D30309D5554906
:101C6C00D4F88400D1F89C3023F004030343C1F86A
:101C7C009C30970209D54F49D4F88800D1F89C3094
:101C8C0023F018030343C1F89C3050021FD5494F71
:101C9C003B6823F080533B60FEF7DAFA80463B68E2
:101CAC00990000F18980002E40F08F80D7F89C308D
:101CBC00D4F88C2023F440331343C7F89C30022112
:101CCC0004F12000FFF7A4FD002818BF0546236887
:101CDC001A0214D53749D4F89020D1F89C3023F44B
:101CEC0080531343B2F5805FC1F89C3007D10121BA
:101CFC0004F12000FFF78CFD002818BF054623686F
:101D0C00DB0110D52B4AD4F89410D2F89C3023F474
:101D1C0040130B43B1F5001FC2F89C3003D1D368BC
:101D2C0043F48013D360284602B0BDE8F087FEF779
:101D3C008FFAA0EB090050457FF68CAEACE6354629
:101D4C00ACE6B1F1806F7FF448AF0121201DFFF7A5
:101D5C00D7FC0646002818BF05463EE722F4804211
:101D6C00C3F89C20D3F8882022F040620A43B1F1DA
:101D7C00006FC3F8882003D1DA6842F480123EE782
:101D8C00B1F1806F7FF43CAF0121201DFFF7B8FC4F
:101D9C000646002818BF054632E7B1F1806F7FF484
:101DAC0043AF0121201DFFF7ABFC0646002818BFEE
:101DBC00054639E700100240FEF74AFAA0EB08008E
:101DCC0002287FF66CAF032581E735467FE7BB6DB4
:101DDC0043F08053BB65BB6D03F080530193019BB3
:101DEC004FF0010802E600BF0A4B013B01D1032072
:101DFC0070470269002AF8DA0369064A43F00103C6
:101E0C000361013AF3D0036913F00103F9D11846C9
:101E1C00704700BF410D030084B038B505AD85E8AF
:101E2C000E000A9B012B04461BD1836B23F48033D9
:101E3C008363C36823F4840323F04003C360C36843
:101E4C0023F44013C360119B012B02BFC36843F4FE
:101E5C008013C360FFF7C8FFBDE83840002004B012
:101E6C007047C36843F04003C360FFF7BDFF4FF4F6
:101E7C008033A363F0E7836843F0010383600020A1
:101E8C007047836823F0010383600020704708B516
:101E9C00C368012923F0C043C36008D1C36843F071
:101EAC000053C3603220FEF7D9F9002008BD19B9E0
:101EBC00C36843F08043F4E7012008BD890141F079
:101ECC002001064A0161013A05D0036913F0200391
:101EDC00F9D1184670470320704700BF410D03002D
:101EEC001023064A0361013A05D0036913F010036D
:101EFC00F9D1184670470320704700BF410D03000D
:101F0C00D0F800381943C0F80018002070470000C2
:101F1C0084B02DE9F041044607A880E80E000023A8
:101F2C00119F8846194603F1400204EB82020133EB
:101F3C000F2B5160F7D1A36B43F40013A3635FB96C
:101F4C00A36B23F40013A363236843F040032360C3
:101F5C00236843F0800323600025C4F8005ED4F8A6
:101F6C000038C4F8003803212046FFF7C9FF04F5F8
:101F7C00006610212046FFF7A1FF2046FFF7B0FFB7
:101F8C0035612B4675612946F56104F510624FF0F9
:101F9C0090404FF000654FF67F3E43452FD1002116
:101FAC0004F5306208464FF090454FF0006E4FF646
:101FBC007F3C8B4234D1336923F48073336100232B
:101FCC00A3616FF080436361A36943F01003A361C5
:101FDC00A2691C4B1343A3610D9B1BB1A36943F076
:101FEC000803A361012F01BFA36943F0804343F0B1
:101FFC000403A361BDE8F041002004B07047D2F89F
:10200C0000C0BCF1000F09DA33B91560116101335E
:10201C00C2F808E02032C0E71060F7E71160F5E77E
:10202C00D2F80080B8F1000F0ADA39B9C2F800E032
:10203C0010610131C2F808C02032BAE71560F7E729
:10204C001060F5E700383C8070B54A780C78D0F811
:10205C001C6800F50063012A04F00F051BD1AA408F
:10206C00324300EB4410DA61D0F800391A0410D472
:10207C008B68C978D0F80029C3F30A0343F0805366
:10208C0043F4004343EA814343EA84531343C0F8C7
:10209C000039002070BD4FF48032AA40324300EB6F
:1020AC004410DA61D0F8003B1B04F2D48B68C97879
:1020BC00D0F8002BC3F30A0343F0805343F40043DE
:1020CC0043EA81431343C0F8003BE2E730B54B7859
:1020DC000C78D0F83C1800F50062012B04F00F05C9
:1020EC0010D1AB40DB431940D163D16900EB4410F4
:1020FC000B40D361D0F800290B4B1340C0F80039CA
:10210C00002030BD4FF48033AB40DB431940D1632A
:10211C00D16900EB44100B40D361D0F8002B034B7A
:10212C001340C0F8003BEBE7007833EC0078F3EF9A
:10213C0070B54B780A784D69354E012B4FF0200362
:10214C0045D113FB020345BBD3F8104924F0FF54CF
:10215C0024F4C014C3F81049D3F8104944F40024F3
:10216C00C3F81049D3F810492640C3F810694B69DD
:10217C004BB10B78D0F8345803F00F0101238B408E
:10218C002B43C0F8343800EB4210D0F8001941F062
:10219C000441C0F80019002070BD03F510631C69E0
:1021AC0026401E611C6924F0FF5424F4C0141C61E9
:1021BC008C68A54288BF4C611C6944F400241C61E6
:1021CC004C691D69C4F312042C431C61CFE713FB4B
:1021DC00020000F530631A6932401A611A6922F064
:1021EC00FF5222F4C0121A618A6805B14A6119695A
:1021FC0041F4002119611969C2F312020A431A61F0
:10220C00D0F8003B43F00443C0F8003BC3E700BFE9
:10221C000000F8FF033300EB023223F0030302F556
:10222C0080520B44994201D10020704751F8040BA5
:10223C001060F7E7F8B54B780D785F4E012B4FF037
:10224C0020024B6912FB050269D183BB02F51064B5
:10225C00D2F8102922F0FF5222F4C0122261226916
:10226C0042F400222261226916402661CE78012EAA
:10227C0000F0948053B10A78D0F834E802F00F04DF
:10228C000122A24042EA0E02C0F8342800EB4512AB
:10229C00012ED2F8004944F00444C2F8004904D19C
:1022AC000A78C9689BB2FFF7B5FF0020F8BDD2F8D9
:1022BC0010493440C2F81049D2F810498E6824F005
:1022CC00FF5424F4C014C2F810499C19013CB4FB0F
:1022DC00F6F63A4CD2F8107904EAC6443C43C2F8FC
:1022EC001049D2F81069C3F312043443C2F81049F0
:1022FC00CC78012C02F51062B8D1146924F0C044DA
:10230C001461146944F000541461AFE712FB050228
:10231C00D2F8004944F00054C2F80049B6E702F57F
:10232C0030652C6934402C612C6924F0FF5424F462
:10233C00C0142C618C68FBB92B69C4F312041C43C8
:10234C002C612B6943F400232B61CB78012B0CD12E
:10235C00D0F8083813F4807FD2F8003B0CBF43F060
:10236C00005343F08053C2F8003BD2F8003B43F0DB
:10237C000443C2F8003B98E7104E2F692344013BFD
:10238C00B3FBF4F306EAC3463E432E619BB22E69BF
:10239C005C43C4F3120434432C61D6E7D0F808280C
:1023AC0012F4807F4FF02002B0D012FB0502D2F85D
:1023BC00004944F08054AFE70000F8FF0000F81F1C
:1023CC00033222F003020A4400F58050914201D1FD
:1023DC0008467047036841F8043BF7E74B780A78E6
:1023EC00012B4FF0200313FB020012D1D0F800395F
:1023FC00002B06DB2AB1D0F8003923F08043C0F85B
:10240C000039D0F8003943F40013C0F8003900202B
:10241C007047D0F8003B002B06DB2AB1D0F8003B0C
:10242C0023F08043C0F8003BD0F8003B43F400138A
:10243C00C0F8003BEBE74B780A78012B4FF02003F8
:10244C0013FB020011D1D0F8003923F40013C0F8AB
:10245C000039CB78023B012B05D8D0F8003943F07A
:10246C008053C0F8003900207047D0F8003B23F4AB
:10247C000013C0F8003BCB78023B012B9EBFD0F879
:10248C00003B43F08053C0F8003BECE7D0F8003839
:10249C0023F4FE63C0F80038D0F80038090101F4C9
:1024AC00FE611943C0F800180020704708B5D0F839
:1024BC00043823F00203C0F804380320FDF7CEFEE5
:1024CC00002008BD08B5D0F8043843F00203C0F86A
:1024DC0004380320FDF7C2FE002008BD4269806964
:1024EC0010407047D0F8183800F50060C0691840EB
:1024FC00000C7047D0F8183800F50060C06918401F
:10250C0080B2704700EB411100F50060D1F8082B48
:10251C0040691040704710B5D0F81048D0F83438E6
:10252C0000EB411001F00F01CB4000F51060DB0116
:10253C008068DBB22343184010BD406900F00100F5
:10254C007047D0F8003923F4FF6323F00703C0F879
:10255C00003900F500639A6802F00602042A02BFF3
:10256C00D0F8002942F00302C0F800295A6842F45E
:10257C0080725A600020704700F5306300201861AB
:10258C001A6942F400221A611A6942F018021A619F
:10259C001A6942F0C0421A61704700002923038077
:1025AC00004870473C0000202923038000487047F6
:1025BC00680000202923038000487047AC000020ED
:1025CC00D0F8903200201875704710B5D0F89042B2
:1025DC002369012B07D1D0F894326178DB6820781D
:1025EC00984700232361002010BD00000A230380BC
:1025FC0000487047A000002038B5D0F89052D0F8B1
:10260C0094326978DB6804462878984702232A4676
:10261C000121204600F0B0FE002038BD37B5002562
:10262C00ADF806500D78D0F8904215F060050346D1
:10263C000A4627D0202D60D14978023909295AD869
:10264C00DFE801F0140A59595959591810059378B3
:10265C006360002003B030BD0122211D184600F03C
:10266C0005FCF6E753881B0AA360F2E7012204F18C
:10267C000801F3E701212161D2882146184600F0B8
:10268C000AFCE6E749780B2935D8DFE801F0063477
:10269C00343434340E343434252D93F87412032925
:1026AC0029D102220DF10601D8E75188090A222905
:1026BC0007D1D288D3F89412022A28BF02220968C3
:1026CC00CCE7212905D1D2880E49092A28BF092235
:1026DC00C4E700210A46C1E793F8741203290AD112
:1026EC00012204F10C01B9E793F87412032902D109
:1026FC009378E360ADE71146184600F090FB02209A
:10270C00A8E700BF9400002038B5044681210025BD
:10271C0000F0D8FDE5620121204600F0D3FDD4F88D
:10272C009032C4F858514BB1D4F894329B68984706
:10273C00D4F8900200F064FEC4F89052002038BD2A
:10274C00F8B50546012402230322812100F0AAFDDD
:10275C00022303222146EC62284600F0A3FDC5F8B3
:10276C005841182000F048FE0646C5F8900268B1A2
:10277C00D5F89432002707755B68984702233246D8
:10278C002146284600F0F8FD3846F8BD2046F8BD35
:10279C0019B1C0F89412002070470220704708B598
:1027AC0080B1D0F88C3213B10023C0F88C3209B14F
:1027BC00C0F88812012380F87432027000F036FDE4
:1027CC00002008BD022008BD19B1C0F88C120020F1
:1027DC0070470220704708B500F056FD002008BD78
:1027EC0008B5D0F88C320BB9022008BD1B6898478D
:1027FC000028F9D108BD08B5D0F88C325B68984731
:10280C00002008BD38B5044600F52075284600F0B8
:10281C00F2FA012394F88012C4F86C32B4F88632C0
:10282C00C4F8703201F01F03012B0ED007D3022B1A
:10283C0010D001F08001204600F052FD03E0294643
:10284C00204600F001F9002038BD2946204600F052
:10285C0025FAF8E72946204600F045FAF3E770B56B
:10286C000546164639BBD0F86C32032B1ED1D0F876
:10287C004C31D0F8502193420BD99B1A9A42C0F894
:10288C004C318CBF9AB292B2314600F013FB00204F
:10289C0070BDD0F88C321B6923B190F87422032AD6
:1028AC0000D19847284600F00DFBF0E7052BEED140
:1028BC0000F016FDEBE7D0F88C329B692BB190F849
:1028CC007422032A01D19847E1E7022070BD70B54C
:1028DC00134604460E46002948D1D0F86C22022A31
:1028EC003DD1056A426A954214D9AA1A0262194668
:1028FC0092B200F0C8FA33461A461946204600F048
:10290C003BFD94F87832012B4FF000003AD184F85B
:10291C00780270BDC369B3FBF2F502FB153565B9DE
:10292C009A420AD8D0F87022934206D22A4600F076
:10293C00AAFAC4F870522B46DEE7D4F88C32DB6866
:10294C002BB194F87422032A01D120469847802198
:10295C00204600F0C5FC204600F0BFFAD1E732F06B
:10296C000403CED1802100F0BBFCCAE7D0F88C3236
:10297C005B6933B190F87422032A02D19847002086
:10298C0070BD022070BD70B50022044611460125B1
:10299C004026402300F086FC33468021C4F8445185
:1029AC00C4F850610022204600F07CFCD4F8903230
:1029BC00A5610021666284F87452C4F86C126160DF
:1029CC00C4F87C1223B1D4F88C3220465B6898474B
:1029DC00002070BD01740020704790F8743280F8AC
:1029EC007532042380F874320020704790F87532E9
:1029FC0080F874320020704708B590F87422032ACE
:102A0C0004D1D0F88C32DB6903B19847002008BDA3
:102A1C0000207047002070470020704708B5012245
:102A2C0080F87422D0F88C220179526890470020EB
:102A3C0008BD10B58021044600F052FC2046002150
:102A4C00BDE8104000F04CBC37B50B7803F06003C8
:102A5C00202B04460D4614D0402B12D0002B40F0F6
:102A6C009C804B78092B00F29780DFE813F0EF0085
:102A7C000901950002019500890013009500DA0008
:102A8C00A700D4F88C3229469B6820469847002032
:102A9C0003B030BD49880B0A013B0E2B7CD8DFE814
:102AAC0003F02428357B7B5C657B7B7B7B7B7B7B92
:102ABC000800D0F88832DB69207C0DF106019847BC
:102ACC00BDF8062052B1EB8843B19A4228BF1A4692
:102ADC0001462046ADF8062000F0C8F9EB88002B23
:102AEC00D5D1204600F0EEF9D1E7D0F888321B683A
:102AFC00E2E7027CD0F88C3232B99B6A0DF1060009
:102B0C00984702234370DBE7DB6AF7E7C9B2052974
:102B1C001CD8DFE801F003070B0F1317D0F888322D
:102B2C005B68C9E7D0F888329B68C5E7D0F8883273
:102B3C00DB68C1E7D0F888321B69BDE7D0F8883272
:102B4C005B69B9E7D0F888329B69B5E7D0F88C326D
:102B5C000DF106029B6B9847B2E7037CE3B9D0F802
:102B6C008C320DF106005B6B9847A9E7037C9BB98F
:102B7C00D0F88C320DF106001B6B98470723C1E788
:102B8C008B884BB9CB883BB94D887F2D04D890F8F6
:102B9C007432032BE9B203D12046FFF74AFF76E7E4
:102BAC0080F8761200F0CCFB204600F08BF91DB1BA
:102BBC00022384F874326AE70123FAE78978364DE8
:102BCC0001292970E8D890F87432022B08D0032B15
:102BDC0015D0FFF72EFF29782046FFF70CFE56E79D
:102BEC0000293FF47EAF01210323416080F8743249
:102BFC002046FFF7F5FD02287FF473AFCCE731B91F
:102C0C00022380F874324160FFF7F5FD69E74168F3
:102C1C0001293FF466AFC9B2FFF7EDFD2978616079
:102C2C00E6E7CA88012AB7D190F87432002BB3D0EA
:102C3C00022B03D9032BAFD1011D03E00146002366
:102C4C0041F8083F204600F011F920E790F8743263
:102C5C00013B022BA0D8CB88022B9DD10123C36052
:102C6C00D0F87C320BB10323C360022204F10C01B7
:102C7C00E8E74B88012B7FF40AAFC4F87C3230E7CD
:102C8C0090F87432013B022B86D84B88012B7FF4D1
:102C9C00FEAE0023F1E700BF6C01002038B50B78C5
:102CAC0003F06003202B04460D4602D0402B00D0CD
:102CBC00B3B994F87432013B022B10D82B79012B49
:102CCC000DD8D4F88C3229469B6820469847EB885F
:102CDC001BB910B9204600F0F5F8002038BD20468D
:102CEC00FFF7A7FEF9E738B50A7802F06002202A50
:102CFC0004460B4613D0402A11D06AB95D788A88F5
:102D0C00012DD1B21FD035D3032D05D190F87422EB
:102D1C00022A26D0032A0AD0FFF78BFE05E0D4F84E
:102D2C008C221946926820469047002038BD5A885C
:102D3C002AB94A0603D0DB880BB900F0D1FA204639
:102D4C0000F0C0F8F1E790F87422022A09D0032AA7
:102D5C00E2D15B88002BE8D14D06F0D000F0CEFA22
:102D6C00EDE74B0617D000F0BBFA8021204600F0AF
:102D7C00B7FADAE790F87432022B0ED0032BCBD1D2
:102D8C0012F0800F4FF0140301F00F0203FB02024C
:102D9C0012D09269DAB92046BEE74906FBD1130678
:102DAC004CBF00F1140100F5A07100230B6002224E
:102DBC00204600F05BF8B8E7D2F84421002AEAD0AC
:102DCC0001F07F0503FB050505F5A07504E001F096
:102DDC007F0505FB0335054411F07F0303D12B6000
:102DEC0002222946E4E7204600F096FA08B10123B6
:102DFC00F5E72860F4E70B7803704B784370CA78DA
:102E0C008B7803EB022343804A790B7903EB022383
:102E1C008380CA798B7903EB0223C380704710B58A
:102E2C008021044600F05CFA20460021BDE81040E9
:102E3C0000F056BA30B588B105462B1A15F8014B7F
:102E4C00DBB2002CF9D101335B0013800B70032330
:102E5C004B700138022310F8015F05B930BD5A1CC4
:102E6C00D2B2CD540233DBB28C54F4E710B5134616
:102E7C000222C0F86C22C3610A460362002100F0F2
:102E8C006DFA002010BD08B513460A46002100F06B
:102E9C0065FA002008BD10B513460322C0F86C2259
:102EAC00C0F848310A46C0F84C31002100F064FAF1
:102EBC00002010BD08B513460A46002100F05CFA4C
:102ECC00002008BD08B50423C0F86C3200231A4654
:102EDC00194600F043FA002008BD08B50523C0F8D8
:102EEC006C3200231A46194600F046FA002008BD41
:102EFC0070B5BEB04422002106A800F055FB142288
:102F0C00002101A800F050FB9C22002117A800F022
:102F1C004BFB4FF40070FDF7B3FF4FF480330224EA
:102F2C0003250126079306A80823139306961094ED
:102F3C0011951294149415941694FEF78FF80F2390
:102F4C0001933146002301A8039304930593029542
:102F5C00FEF7D6FA4FF4005317934FF08063349377
:102F6C000C231A9317A84FF48013189519941B94DB
:102F7C001C941D941E93FEF7D3FC3EB070BD000054
:102F8C001FB5FDF74DF9FFF7B3FF0F4BDA6C42F0AD
:102F9C008002DA64DA6C02F080020192019ADA6C37
:102FAC0042F00102DA64DA6C02F001020292029A37
:102FBC00DA6C42F00202DA64DB6C03F00203039376
:102FCC00039B00F051F8FEE7001002407047000030
:102FDC000A4B1A6E42F001021A661A6E82B002F0A7
:102FEC0001020092009A9A6D42F080529A659B6D94
:102FFC0003F080530193019B02B070470010024014
:10300C007047FEE7FEE7FEE7FEE770477047704744
:10301C00FDF716B90148FDF701BB00BF2C040020D9
:10302C000F49D1F8883043F47003C1F888300D4B48
:10303C001A68002042F001021A6098601A6822F0A7
:10304C00A85222F410221A604FF48052DA601A68E7
:10305C0022F480221A6098614FF000638B607047F5
:10306C0000ED00E00010024008B500220E490F48A8
:10307C00FFF795FB08B1FFF7A9FF0D490B48FFF7C8
:10308C00A3FB08B1FFF7A2FF0A490848FFF780FB32
:10309C0008B1FFF79BFF0548FFF79DFB18B1BDE892
:1030AC000840FFF793BF08BDF000002090010020FE
:1030BC0000000020E000002010B50368B3F1A04F21
:1030CC0088B03CD1204CE36C43F00103E364E36C27
:1030DC0003F001030093009B4FF4C05303930223AE
:1030EC000493002305930323069303A90A234FF0AB
:1030FC0090400793FDF728F9E36C43F48053E364A5
:10310C00E36C03F480530193019BA36DDB0018D493
:10311C00A36D43F08053A365A36D03F0805302931A
:10312C00029BFDF707FFA36D23F08053A3650022DC
:10313C0043201146FDF7B2F84320FDF7E3F808B041
:10314C0010BDFDF7F7FEF2E70010024000F57171BB
:10315C00D0F80404FFF756BB1C2303FB0103D0F883
:10316C000404D3F80822FFF77ABB1C2303FB0103EA
:10317C00D0F804049A6CFFF7AABBD0F80404FFF74C
:10318C003BBCC368022B10B5044601D0FFF71EFFF1
:10319C00D4F804040121FFF71DFCD4F80404BDE8A5
:1031AC001040FFF7F0BB00000268D2F8003E10B5EB
:1031BC0043F001030446C2F8003ED0F80404FFF7C4
:1031CC000CFC236A23B1034A136943F00603136111
:1031DC0010BD00BF00ED00E00268D2F8003E23F005
:1031EC00010310B5C2F8003E036A044633B1064A27
:1031FC00136923F006031361FFF77AFED4F8040475
:10320C00BDE81040FFF7F2BB00ED00E0D0F804047D
:10321C00FFF700BCD0F80404FFF7FABBD0F80404A5
:10322C00FFF7FABBD0F80404FFF7F8BB08B5027837
:10323C002ABB144B0621C3F80404C0F898324FF093
:10324C00A04083E80300022118469961DA611A62F2
:10325C005A629A621A63DA62FDF74EF908B1FFF707
:10326C00B5FE80210748FDF7D7FD40220021054817
:10327C00FDF7B1FD802201210248FDF7ACFD0020D5
:10328C0008BD00BF2C04002008B5D0F89802FDF74B
:10329C00B0F903289ABF024B185C022008BD00BF8E
:1032AC001C36000810B51C46D0F89802134622466E
:1032BC00FDF78EFC03289ABF014B185C022010BD51
:1032CC001C36000808B5D0F89802FDF7B6FC0328A8
:1032DC009ABF024B185C022008BD00BF1C360008C8
:1032EC0008B5D0F89802FDF70BFD03289ABF024BE6
:1032FC00185C022008BD00BF1C36000808B5D0F8C9
:10330C009802FDF736FD03289ABF024B185C022089
:10331C0008BD00BF1C36000811F0800FD0F89832A1
:10332C004FF01C021BBF01F07F0102FB013102FBBD
:10333C00013191F83E0008BF91F8FE017047000082
:10334C0008B5D0F89802FDF72FFC03289ABF024B62
:10335C00185C022008BD00BF1C36000808B5D0F868
:10336C009802FDF7B2FC03289ABF024B185C0220AE
:10337C0008BD00BF1C36000808B5D0F89802FDF750
:10338C0086FC03289ABF024B185C022008BD00BFC4
:10339C001C36000810B5044611B1012916D010BD19
:1033AC00036A33B1FFF7A4FD124A136923F0060335
:1033BC0013612268D4F80404D2F8003E23F0010310
:1033CC00C2F8003EBDE81040FFF710BB0268D0F811
:1033DC000404D2F8003E43F00103C2F8003EFFF7AC
:1033EC00FCFA236A23B1034A136943F00603136101
:1033FC0010BD00BF00ED00E00048704770010020D8
:10340C007047002070470020704700207047000074
:10341C0012230B80004870471C01002004230B80F2
:10342C0000487047300100200C230B800048704787
:10343C0010010020002330B51D46DCB2A24200D89A
:10344C0030BD040F092C94BF3034373401F81340CD
:10345C0001EB4304000165700133EEE71A2310B54C
:10346C000B80094B186808331B68C0180AD0074B2F
:10347C0007491C680822FFF7DDFF04220549204696
:10348C00FFF7D8FF044810BD9075FF1F9475FF1F00
:10349C0036010020460100203401002010B5044CF8
:1034AC0004480A462146FFF7C5FC204610BD00BF64
:1034BC00340800204736000810B5044C04480A466E
:1034CC002146FFF7B7FC204610BD00BF3408002092
:1034DC005A36000810B5044C04480A462146FFF73A
:1034EC00A9FC204610BD00BF34080020203600087F
:1034FC0010B5044C04480A462146FFF79BFC2046B5
:10350C0010BD00BF3408002032360008DFF834D07C
:10351C00002103E00C4B5B58435004310B480C4B1F
:10352C0042189A42F6D30B4A02E0002342F8043BBD
:10353C00094B9A42F9D3FFF773FD00F011F8FFF72E
:10354C001FFDFEE700000A20803600080000002066
:10355C005001002050010020340A0020FEE700003A
:10356C0070B50D4E0D4CA41BA4100025A54209D11D
:10357C000B4E0C4C00F020F8A41BA4100025A54207
:10358C0005D170BD56F8253098470135EEE756F851
:10359C00253098470135F2E7783600087836000870
:1035AC00783600087C36000802440346934200D16A
:1035BC00704703F8011BF9E7F8B500BFF8BC08BC6D
:1035CC009E467047F8B500BFF8BC08BC9E467047D5
:1035DC0000000000000000000102030406070809B7
:1035EC00A0860100400D0300801A060000350C0077
:1035FC0040420F0080841E0000093D0000127A003A
:10360C000024F40000366E010048E801006CDC0276
:10361C0000020102437573746F6D204849442043C6
:10362C006F6E66696700437573746F6D204849440B
:10363C0020496E746572666163650053544D69630D
:10364C00726F656C656374726F6E6963730053544B
:10365C004D333220437573746F6D2048756D616EF8
:0C366C0020696E74657266616365000081
:04367800E101000864
:04367C00BD01000884
:103680004D27000815270008292600080000000023
:10369000D7250008CD2500080526000800000000F9
:1036A0000000000000000000B5250008A925000862
:1036B000C1250008F92500080000000009022900C2
:1036C000010100C0320904000002030000000921CA
:1036D0001101000122020007058103020005070510
:1036E000010302000500000009022900010100C0D9
:1036F0003209040000020300000009211101000149
:1037000022020007058103020005070501030200EC
:103710000500000009211101000122020000000043
:103720000A06000200000040010000000902290012
:10373000010100C032090400000203000000092159
:10374000110100012202000705810302000507059F
:10375000010302000500000000093D0000C0000058
:10376000DC000020173400080F3400081334000870
:103770001D34000829340008A9340008C5340008A5
:1037800069340008E1340008FD34000835340008CD
:10379000050F0C00010710020200000012010102D7
:1037A00000000040830450570002010203010000A2
:1037B000040309041A0300000000000000000000D8
:1037C00000000000000000000000000000000000F9
:0400000508003519A1
:00000001FF
