:020000040800F2
:1000000000000A2041260208ED200208EF20020825
:10001000F1200208F3200208F52002080000000089
:10002000000000000000000000000000F7200208AF
:10003000F920020800000000FB200208FD20020851
:1000400091260208912602089126020891260208AC
:10005000912602089126020891260208912602089C
:10006000912602086103020891260208E120020895
:10007000912602089126020891260208912602087C
:10008000912602089126020891260208912602086C
:10009000912602089126020891260208B902020858
:1000A000912602089126020891260208912602084C
:1000B000E500020891260208912602083D21020867
:1000C0004921020891260208912602080D21020802
:1000D000912602089126020891260208912602081C
:1000E000912602089126020891260208912602080C
:1000F00091260208912602089126020800000000BD
:1001000091260208552102081921020891260208A9
:1001100091260208912602082D01020851010208C9
:1001200091260208912602089126020891260208CB
:1001300091260208912602089126020891260208BB
:100140009126020891260208912602083121020810
:10015000912602089126020825210208912602080C
:10016000912602089126020891260208912602088B
:10017000912602089126020891260208000000003C
:10018000912602089126020891260208912602086B
:1001900091260208912602080000000000000000DD
:1001A00000000000000000009126020891260208CD
:0C01B00091260208912602089126020800
:1001C00010B5054C237833B9044B13B10448AFF391
:1001D00000800123237010BD4011002000000000AA
:1001E000B072020808B5034B1BB103490348AFF3D3
:1001F000008008BD0000000044110020B072020819
:1002000001F0FF01102A2BDB10F0070F08D010F8C7
:10021000013B013A8B422DD010F0070F42B3F6D1CB
:10022000F0B441EA012141EA014122F007047FF0E4
:1002300000070023F0E80256083C85EA010586EA3B
:10024000010685FA47F5A3FA87F586FA47F6A5FA77
:1002500087F68EB9EED1F0BC01F0FF0102F0070283
:1002600032B110F8013B013A83EA010313B1F8D12E
:100270000020704701387047002D06BF354603380F
:10028000073815F0010F07D1013015F4807F02BF48
:10029000013015F4C03F0130F0BC0138704700BF99
:1002A000034613F8012B002AFBD1181A01387047B6
:1002B00081F0004102E000BF83F0004330B54FEA17
:1002C00041044FEA430594EA050F08BF90EA020F84
:1002D0001FBF54EA000C55EA020C7FEA645C7FEA17
:1002E000655C00F0E2804FEA5454D4EB5555B8BF3A
:1002F0006D420CDD2C4480EA020281EA030382EAAB
:10030000000083EA010180EA020281EA0303362D3C
:1003100088BF30BD11F0004F4FEA01314FF4801C0F
:100320004CEA113102D0404261EB410113F0004F21
:100330004FEA03334CEA133302D0524263EB4303D8
:1003400094EA050F00F0A780A4F10104D5F1200E76
:100350000DDB02FA0EFC22FA05F2801841F10001D1
:1003600003FA0EF2801843FA05F359410EE0A5F1A5
:1003700020050EF1200E012A03FA0EFC28BF4CF0D6
:10038000020C43FA05F3C01851EBE37101F000458C
:1003900007D54FF0000EDCF1000C7EEB00006EEB99
:1003A0000101B1F5801F1BD3B1F5001F0CD3490823
:1003B0005FEA30004FEA3C0C04F101044FEA44527A
:1003C00012F5800F80F09A80BCF1004F08BF5FEA01
:1003D000500C50F1000041EB045141EA050130BDE1
:1003E0005FEA4C0C404141EB010111F4801FA4F184
:1003F0000104E9D191F0000F04BF01460020B1FAD9
:1004000081F308BF2033A3F10B03B3F120020CDA10
:100410000C3208DD02F1140CC2F10C0201FA0CF0EE
:1004200021FA02F10CE002F11402D8BFC2F1200C53
:1004300001FA02F120FA0CFCDCBF41EA0C01904009
:10044000E41AA2BF01EB0451294330BD6FEA040452
:100450001F3C1CDA0C340EDC04F11404C4F120023D
:1004600020FA04F001FA02F340EA030021FA04F34F
:1004700045EA030130BDC4F10C04C4F1200220FAA6
:1004800002F001FA04F340EA0300294630BD21FAE4
:1004900004F0294630BD94F0000F83F4801306BFAA
:1004A00081F480110134013D4EE77FEA645C18BF9E
:1004B0007FEA655C29D094EA050F08BF90EA020F35
:1004C00005D054EA000C04BF1946104630BD91EA2D
:1004D000030F1EBF0021002030BD5FEA545C05D130
:1004E0004000494128BF41F0004130BD14F580046F
:1004F0003CBF01F5801130BD01F0004545F0FE41E3
:1005000041F470014FF0000030BD7FEA645C1ABF17
:10051000194610467FEA655C1CBF0B46024650EA4E
:10052000013406BF52EA033591EA030F41F400217A
:1005300030BD00BF90F0000F04BF0021704730B500
:100540004FF4806404F132044FF000054FF00001D5
:1005500050E700BF90F0000F04BF0021704730B596
:100560004FF4806404F1320410F0004548BF40426B
:100570004FF000013EE700BF42004FEAE2014FEAC0
:1005800031014FEA02701FBF12F07F4393F07F4F9B
:1005900081F06051704792F0000F14BF93F07F4FCD
:1005A000704730B54FF4607401F0004521F0004110
:1005B00020E700BF50EA010208BF704730B54FF096
:1005C00000050AE050EA010208BF704730B511F09B
:1005D000004502D5404261EB41014FF4806404F1D3
:1005E00032045FEA915C3FF4DCAE4FF003025FEA55
:1005F000DC0C18BF03325FEADC0C18BF033202EBDD
:10060000DC02C2F1200300FA03FC20FA02F001FA36
:1006100003FE40EA0E0021FA02F11444C1E600BFD5
:1006200070B54FF0FF0C4CF4E06C1CEA11541DBF88
:100630001CEA135594EA0C0F95EA0C0F00F0DEF853
:100640002C4481EA030621EA4C5123EA4C5350EA38
:10065000013518BF52EA033541F4801143F4801389
:1006600038D0A0FB02CE4FF00005E1FB02E506F01A
:100670000042E0FB03E54FF00006E1FB03569CF06F
:10068000000F18BF4EF0010EA4F1FF04B6F5007F75
:1006900064F5407404D25FEA4E0E6D4146EB0606E7
:1006A00042EAC62141EA55514FEAC52040EA5E5070
:1006B0004FEACE2EB4F1FD0C88BFBCF5E06F1ED81A
:1006C000BEF1004F08BF5FEA500E50F1000041EB51
:1006D000045170BD06F0004646EA010140EA0200FE
:1006E00081EA0301B4EB5C04C2BFD4EB0C0541EA20
:1006F000045170BD41F480114FF0000E013C00F335
:10070000AB8014F1360FDEBF002001F0004170BD58
:10071000C4F10004203C35DA0C341BDC04F1140471
:10072000C4F1200500FA05F320FA04F001FA05F2FD
:1007300040EA020001F0004221F0004110EBD370CA
:1007400021FA04F642EB06015EEA430E08BF20EAF6
:10075000D37070BDC4F10C04C4F1200500FA04F399
:1007600020FA05F001FA04F240EA020001F000412B
:1007700010EBD37041F100015EEA430E08BF20EA9E
:10078000D37070BDC4F1200500FA05F24EEA020EE6
:1007900020FA04F301FA05F243EA020321FA04F015
:1007A00001F0004121FA04F220EA020000EBD370CC
:1007B0005EEA430E08BF20EAD37070BD94F0000FCC
:1007C0000FD101F00046400041EB010111F4801F00
:1007D00008BF013CF7D041EA060195F0000F18BFB1
:1007E000704703F00046520043EB030313F4801FED
:1007F00008BF013DF7D043EA0603704794EA0C0FA7
:100800000CEA135518BF95EA0C0F0CD050EA4106BC
:1008100018BF52EA4306D1D181EA030101F0004139
:100820004FF0000070BD50EA410606BF1046194661
:1008300052EA430619D094EA0C0F02D150EA01366D
:1008400013D195EA0C0F05D152EA03361CBF1046AE
:1008500019460AD181EA030101F0004141F0FE414D
:1008600041F470014FF0000070BD41F0FE4141F4D1
:10087000780170BD70B54FF0FF0C4CF4E06C1CEAD1
:1008800011541DBF1CEA135594EA0C0F95EA0C0F86
:1008900000F0A7F8A4EB050481EA030E52EA033541
:1008A0004FEA013100F088804FEA03334FF0805562
:1008B00045EA131343EA12634FEA022245EA11158F
:1008C00045EA10654FEA00260EF000419D4208BF40
:1008D000964244F1FD0404F5407402D25B084FEAED
:1008E0003202B61A65EB03055B084FEA32024FF499
:1008F00080104FF4002CB6EB020E75EB030E22BFF6
:10090000B61A754640EA0C005B084FEA3202B6EBB5
:10091000020E75EB030E22BFB61A754640EA5C0064
:100920005B084FEA3202B6EB020E75EB030E22BFF4
:10093000B61A754640EA9C005B084FEA3202B6EBF5
:10094000020E75EB030E22BFB61A754640EADC00B4
:1009500055EA060E18D04FEA051545EA16754FEA16
:1009600006164FEAC30343EA52734FEAC2025FEA34
:100970001C1CC0D111F4801F0BD141EA00014FF0C3
:1009800000004FF0004CB6E711F4801F04BF014394
:100990000020B4F1FD0C88BFBCF5E06F3FF6AFAEB0
:1009A000B5EB030C04BFB6EB020C5FEA500C50F140
:1009B000000041EB045170BD0EF0004E4EEA1131C3
:1009C00014EB5C04C2BFD4EB0C0541EA045170BDCA
:1009D00041F480114FF0000E013C90E645EA060E0E
:1009E0008DE60CEA135594EA0C0F08BF95EA0C0F3C
:1009F0003FF43BAF94EA0C0F0AD150EA01347FF484
:100A000034AF95EA0C0F7FF425AF104619462CE75A
:100A100095EA0C0F06D152EA03353FF4FDAE1046BD
:100A2000194622E750EA410618BF52EA43067FF40E
:100A3000C5AE50EA41047FF40DAF52EA43057FF49E
:100A4000EBAE12E74FF0FF3C06E000BF4FF0010CA9
:100A500002E000BF4FF0010C4DF804CD4FEA410C0D
:100A60007FEA6C5C4FEA430C18BF7FEA6C5C1BD0DA
:100A700001B050EA410C0CBF52EA430C91EA030F5B
:100A800002BF90EA020F0020704710F1000F91EAB8
:100A9000030F58BF994208BF90422CBFD8176FEA86
:100AA000E37040F0010070474FEA410C7FEA6C5C54
:100AB00002D150EA013C07D14FEA430C7FEA6C5C5B
:100AC000D6D152EA033CD3D05DF8040B704700BF87
:100AD0008446104662468C461946634600E000BFD5
:100AE00001B5FFF7B7FF002848BF10F1000F01BDA7
:100AF0004DF808EDFFF7F4FF0CBF012000205DF872
:100B000008FB00BF4DF808EDFFF7EAFF34BF0120F6
:100B100000205DF808FB00BF4DF808EDFFF7E0FF8F
:100B200094BF012000205DF808FB00BF4DF808EDE0
:100B3000FFF7CEFF94BF012000205DF808FB00BF47
:100B40004DF808EDFFF7C4FF34BF012000205DF829
:100B500008FB00BF4FEA410C7FEA6C5C02D150EA0F
:100B6000013C0AD14FEA430C7FEA6C5C02D152EAA5
:100B7000033C02D14FF0000070474FF00100704776
:100B80004FEA410212F5001215D211D56FF47873B5
:100B9000B3EB625212D94FEAC12343F0004343EA58
:100BA000505311F0004F23FA02F018BF4042704733
:100BB0004FF00000704750EA013005D111F00040BD
:100BC00008BF6FF0004070474FF00000704700BF53
:100BD0004A0011D212F5001211D20DD56FF47873BC
:100BE000B3EB62520ED44FEAC12343F0004343EA11
:100BF000505323FA02F070474FF00000704750EA5C
:100C0000013002D14FF0FF3070474FF000007047C5
:100C10004FEA4102B2F1E04324BFB3F5001CDCF11E
:100C2000FE5C0DD901F0004C4FEAC0024CEA507056
:100C3000B2F1004F40EB830008BF20F00100704785
:100C400011F0804F21D113F13872BCBF01F0004088
:100C5000704741F480114FEA5252C2F11802C2F1BA
:100C6000200C10FA0CF320FA02F018BF40F001003B
:100C70004FEAC1234FEAD32303FA0CFC40EA0C00ED
:100C800023FA02F34FEA4303CCE77FEA625307D12A
:100C900050EA01331EBF4FF0FE4040F44000704761
:100CA00001F0004040F0FE4040F40000704700BFFB
:100CB00053B94AB9002908BF00281CBF4FF0FF31C3
:100CC0004FF0FF3000F07AB9ADF1080C6DE904CEB9
:100CD00000F006F8DDF804E0DDE9022304B0704717
:100CE0002DE9F0478C460D460446089E002B51D155
:100CF0008A4217466DD9B2FA82FEBEF1000F0BD0C0
:100D0000CEF1200C01FA0EF520FA0CFC02FA0EF7D7
:100D10004CEA050C00FA0EF44FEA174A250CBCFB0E
:100D2000FAF81FFA87F90AFB18CC45EA0C4508FBCC
:100D300009F3AB420AD9ED1908F1FF3280F02381A3
:100D4000AB4240F22081A8F102083D44ED1AA4B262
:100D5000B5FBFAF00AFB105544EA054400FB09F91B
:100D6000A14509D9E41900F1FF3380F00A81A145BA
:100D700040F2078102383C44A4EB090440EA0840F1
:100D80000021002E61D024FA0EF400233460736039
:100D9000BDE8F0878B4207D9002E54D0002186E8A9
:100DA00021000846BDE8F087B3FA83F1002940F03E
:100DB0008E80AB4202D3824200F2FA80841A65EB45
:100DC00003050120AC46002E3FD086E81010BDE898
:100DD000F08712B90127B7FBF2F7B7FA87FEBEF129
:100DE000000F34D1EB1B3A0C1FFA87FC0121B3FB37
:100DF000F2F8250C02FB183345EA03450CFB08F317
:100E0000AB4207D9ED1908F1FF3002D2AB4200F234
:100E1000D1808046ED1AA3B2B5FBF2F002FB10556B
:100E200043EA05440CFB00FCA44507D9E41900F192
:100E3000FF3302D2A44500F2B8801846A4EB0C049C
:100E400040EA08409DE731463046BDE8F087CEF1E4
:100E5000200405FA0EF307FA0EF720FA04F83A0C0C
:100E600025FA04F448EA0308B4FBF2F14FEA184506
:100E700002FB11441FFA87FC45EA044501FB0CF311
:100E8000AB4200FA0EF409D9ED1901F1FF3080F000
:100E90008A80AB4240F2878002393D44EB1A1FFA48
:100EA00088F5B3FBF2F002FB103345EA034500FB83
:100EB0000CF3AB4207D9ED1900F1FF386FD2AB420A
:100EC0006DD902383D44EB1A40EA01418FE7C1F188
:100ED000200722FA07F88B4005FA01F448EA0303D9
:100EE00020FA07FE4FEA134CFD404EEA040EB5FB14
:100EF000FCF94FEA1E440CFB19551FFA83F844EA2B
:100F0000054509FB08F4AC4202FA01F200FA01FAC5
:100F100008D9ED1809F1FF3043D2AC4241D9A9F10B
:100F200002091D442D1B1FFA8EFEB5FBFCF00CFBC5
:100F300010554EEA054400FB08F8A04507D9E4180F
:100F400000F1FF3529D2A04527D902381C4440EAD8
:100F50000940A4EB0804A0FB02894C45C6464D4657
:100F600015D312D056B1BAEB0E0364EB050404FAA4
:100F700007F7CB401F43CC40376074600021BDE8C9
:100F8000F0871846F8E69046E0E6C245EAD2B8EBAC
:100F9000020E69EB03050138E4E72846D7E740462F
:100FA00091E78146BEE7014678E702383C4445E7D1
:100FB000084608E7A8F102083D442BE7704700BF48
:100FC00038B50A4B054618684FF47A73B0FBF3F056
:100FD00000F0DCFD044638B9024629464FF0FF30E8
:100FE00000F086FD204638BD012038BD500A0020A3
:100FF00010B5032000F06AFD0020FFF7E1FF044672
:1010000018B920F079FD204610BD0124FBE700004F
:10101000024A136801331360704700BFD8BE08202E
:10102000014B1868704700BFD8BE082038B5044689
:10103000FFF7F6FF631C054618BF0134FFF7F0FF0A
:10104000401B8442FAD838BDF0B583B00023019329
:10105000002800F0A880C56D0446002D00F099809E
:10106000226893689B0005D5936823F0204323F002
:101070003F0393609368DF0019D45B4B5B481B68A8
:101080009168A0FB0303DB0C21F0104103EB830309
:1010900021F03F015B0041F0805191600193019B81
:1010A0002BB1019B013B0193019B002BF9D193686C
:1010B000DE005AD5E36DDD064FF0000062D4936880
:1010C00059075FD4E36D23F4817343F00203E365B2
:1010D000936803F00303012B61D0454965688B6871
:1010E00023F47C132B438B60A36BE768A668616ACB
:1010F000E5693B43334343EA4533012943EA01436E
:1011000054D0E16A21B1256B01F4707129430B437E
:10111000D568384929400B43D360936813F00C0F0E
:1011200014D1636BA669D168256DE76B5B0043EA58
:10113000863321F480412B4321F006010B43012F1C
:10114000D36040D0136923F0010313612369012B9D
:1011500031D0136B23F00F031363E36D23F003030C
:1011600043F00103E36503B0F0BDE36D43F010030A
:10117000E365236E43F001032366E36DDD064FF064
:1011800001009CD5E36D012043F01003E36503B03B
:10119000F0BD20F0FDFD256684F8585060E7136827
:1011A000DB079AD5A0E7012003B0F0BDA16A0139A1
:1011B00043EA4143A5E7116B236A21F00F01013B8C
:1011C0000B431363C9E7236C676CA66C1569E16C6C
:1011D0003B4343F00103334325F4FF650B4325F004
:1011E00004052B431361B1E7500A002083DE1B4343
:1011F0000003045007C0F0FFF8B54469082C04D080
:101200000368DB68DC073FD404240D460646FFF77D
:1012100007FF0746326801E0681C14D113681C42BE
:10122000FAD0F36D43F40073F365D36813F4406FA1
:1012300018D0082CD0682DD010F4804006BF0C23A5
:1012400013600020F8BD25B1FFF7EAFEC01B854200
:10125000E0D2F36D002243F00403F36586F85820D2
:101260000320F8BDF369002BE3D113681907E0D51B
:10127000F36D23F48073F365F36DDB04D9D4F36D60
:1012800043F00103F365D4E7C36D43F02003C36566
:101290000120F8BD14600020F8BD00BF0368186C81
:1012A000704700BFF0B5034683B093F85820002084
:1012B000012A019000F0A9801C68A668012016F0A0
:1012C000040683F8580008D0DA6D42F02002DA658F
:1012D000002283F8582003B0F0BD4868052840F28A
:1012E000978000F01F0E1F2505FA0EF500F44076DA
:1012F000EF434FF4407595FAA5F5B5FA85F526FA52
:1013000005F004F130060A6856F82050C2F38462F2
:1013100002FA0EF23D402A4346F82020A26812F05D
:101320000C0F4DD1D1F808E00A68BEF1004F00F073
:10133000D5804FF0007696FAA6F6B6FA86F002F05F
:101340000076C64002F0F87204F114074FF0F8700E
:1013500090FAA0F5B5FA85F590FAA0F0B0FA80F011
:1013600022FA05F54FF0070CC24057F826000CFA98
:1013700005F50EFA02F220EA0500024347F826209E
:10138000626922F0004262610E69E068042E00F09A
:10139000CA800D684A69DFF840E304F16007C0F3D2
:1013A000C1004000824005F0F84557F8260045F09E
:1013B00000452A4300EA0E0E42EA0E0247F82620B4
:1013C000A26802F00302012A2AD0CD68BA4AD4F8F2
:1013D000B0600868DFF804E305F02007BA40724007
:1013E000C0F312073A4072407545C4F8B02000F0CF
:1013F000E780B24A904245D0B14A904200F019814C
:10140000B04A90422AD0002062E7022003B0F0BD2B
:101410000238032800F22B81DFE800F01A140E06D0
:101420002268D207D1D5EEE74FF480764E604FF0B8
:10143000000E6FF01F075CE718224A6096466FF0B7
:10144000F85756E712224A6096466FF4F80750E7BD
:101450000C224A6096466FF4F8374AE79A4A926837
:101460005502D0D4A26802F00302012A40F0A08104
:101470002268D20740F19C81DA6D42F02002DA65E1
:10148000012025E7904A92681702BCD4A26802F0B6
:101490000302012A00F087818C4A9442B3D18A4921
:1014A0008B4D88688A688B4C00F0E07022F0E07207
:1014B000024342F400028A602A68A4FB0212D20CA2
:1014C000C2EB0212D2000192019A002A9BD0019A2B
:1014D000013A0192019A002AF9D194E74FF0007085
:1014E00090FAA0F002F00075B0FA80F025FA00F052
:1014F00004F114074FF0F87696FAA6F5B5FA85F5DB
:1015000096FAA6F602F0F872EA40072657F820503D
:1015100006FA02F225EA020547F82050626942F015
:101520000042626130E70A68256EC2F31200C5F31B
:101530008466002840F0D480C2F38467BE4240F045
:101540001F81204625F0004540F8605F0A68656EFF
:10155000C2F31207C5F3846604F1640E002F40F055
:10156000CD80C2F38467BE4240F0128125F0004571
:10157000CEF800500A688568C2F31207C5F3846686
:1015800000F1080E002F40F0C580C2F38467B74217
:1015900040F0048125F00045CEF800500A68C56887
:1015A000C2F312070C30C5F38466002F40F0BD80F3
:1015B000C2F38462B24204BF25F000450560FFE635
:1015C000002F5AD1C0F38460461C092E00F2B2806D
:1015D0000125B54006EB460245EA866512052A4319
:1015E0004FF0007797FAA7F7B7FA87F002F0007785
:1015F000C74002F0F87204F1140E4FF0F87090FA40
:10160000A0FCBCFA8CFC90FAA0F0B0FA80F022FAB0
:101610000CFC8E685EF82750C240072000FA0CFCD4
:1016200006FA02F225EA0C052A434EF8272008683C
:10163000DFE6254A9268D6013FF5E5AEA26802F0E2
:101640000302012A03D12268D1073FF515AF1F4AD3
:1016500094427FF4D8AE1C4988688A6800F0E07034
:1016600022F0E072024342F080728A60CBE60622EA
:101670004A6096466FF4F8673BE690FAA0F2B2FA39
:1016800082F20132092A61D890FAA0F5B5FA85F5FF
:1016900090FAA0F2B2FA82F2561C01221544B2402E
:1016A00042EA856590FAA0F2B2FA82F2013202EBC8
:1016B0004202120593E700BFFFFF0700000052C778
:1016C000000084CB0100008000030450000004509F
:1016D000500A002083DE1B4300F0FF0300007F4020
:1016E00092FAA2F0B0FA80F086423FF42AAF656E1B
:1016F00004F16000C5F3846604F1640E92FAA2F767
:10170000B7FA87F7B7423FF431AF856800F1080EAA
:10171000C5F3846692FAA2F7B7FA87F7B7423FF4A7
:1017200039AFC5680C30C5F3846692FAA2F2B2FAFA
:1017300082F23FE700EB4000A0F11B0201251205F9
:10174000B54042F0007245EA866548E790FAA0F598
:10175000B5FA85F590FAA0F2B2FA82F2561C01228F
:101760001544B24042EA856590FAA0F0B0FA80F0E4
:1017700000EB4000A0F11B02120542F000722EE7C0
:10178000656E04F16000C5F3846604F1640EEAE658
:10179000856800F1080EC5F38466F6E6C5680C306E
:1017A000C5F3846604E72268D0073FF565AE73E6AB
:1017B000084A94427FF427AE074988688A6800F097
:1017C000E07022F0E072024342F480028A6000205E
:1017D0007EE500BF000004500003045003689A68CF
:1017E00012F00C0F32D0DA6870B59501044602D5BC
:1017F000C269012A3DD002299A6829D0550702D52D
:101800009A6890074BD5012929D09A68120728D4E5
:10181000022922D0032922D10C25FFF701FC06461C
:1018200004E0FFF7FDFB801B052805D823689B68B3
:101830001D42F6D1002070BDE36D43F01003E36557
:10184000236E43F001032366012070BD0020704722
:10185000150702D59A68900706D50825DDE7042507
:10186000DBE79A689607D3D49A6842F020029A6020
:10187000CEE78269012ABED11A68500606D40C4A06
:1018800001E0013AD8D019684906FAD540221A6019
:101890009A685607E3D59A689207E0D401219A68BE
:1018A00022F0004222F03F0242F010029A60AAE7C2
:1018B0000000340A70B582B0002302680193936877
:1018C00003F00303012B37D091682A4B19423AD118
:1018D000294B2A4C1B689168A4FB0343DB0C21F0C5
:1018E000004103EB830321F03F015B0041F0010164
:1018F00091600193019B2BB1019B013B0193019BE3
:10190000002BF9D10446FFF78BFB1D4E05460CE07A
:101910009A68D10704D49A68324042F001029A6072
:10192000FFF77EFB401B022818D823681A68D207ED
:10193000EED5002002B070BD1368DC07F9D49168C1
:101940000C4B1942C4D0C36D43F01003C365036E42
:1019500043F001030366012002B070BDE36D43F064
:101960001003E365236E012043F00103236602B0F8
:1019700070BD00BF3F000080500A002083DE1B4383
:10198000C0FFFF7F38B503689C6814F0040401D0E1
:10199000022038BD90F85830012B0546F8D00123BD
:1019A00080F85830FFF786FF00282CD1EB6D23F428
:1019B000706323F0010343F48073EB65EB6D23F454
:1019C0008013EB65EB6DDA0448BF2B6E2A6852BFBB
:1019D000286623F006032B661C231360D3680021BE
:1019E0009B0185F8581005D5EB6D23F4405343F463
:1019F0008053EB65936823F0004323F03F0343F0EB
:101A00000403936038BD85F8584038BD026838B586
:101A1000936803F00303012B02D00023184638BD5E
:101A20001168C907F9D5916801F00D01012909D0A4
:101A3000C26D42F01002C265026E42F001020266FF
:101A4000184638BD936823F0004323F03F0343F06A
:101A500002030321936011600446FFF7E1FA054693
:101A600023689B68DB07D8D5FFF7DAFA401B02280A
:101A7000F6D9E36D43F01003E365236E43F00103F1
:101A800023660123CAE700BF90F85820012A01D13C
:101A900002207047012310B5032180F85830044616
:101AA000FFF79CFE18B1002384F8583010BD204683
:101AB000FFF7ACFF0028F6D1E36D23F4885323F041
:101AC000010343F00103E365EDE700BF074AD36874
:101AD00023F4E0631B041B0C43F0BF63000243F4D8
:101AE000003300F4E0600343D360704700ED00E092
:101AF000174B30B5DC68C4F30224C4F10703251D7D
:101B0000042B28BF0423062D4FF0010505FA03F32B
:101B100003F1FF338CBF033C00241940A14005FAB8
:101B200004F4013C2240002842EA01024FEA02127A
:101B3000AFBF00F1604000F00F00064BD2B2A5BF6E
:101B400000F56140D2B21A5480F8002330BD00BFC6
:101B500000ED00E014ED00E04209012300F01F0059
:101B600003FA00F0014B43F82200704700E100E067
:101B70004309012200F01F0002FA00F02033024A5C
:101B800042F82300704700BF00E100E00138B0F1E7
:101B9000807F0AD2064B074A5860F02182F8231052
:101BA0000020072298601A6070470120704700BF2C
:101BB00010E000E000ED00E04309012200F01F000A
:101BC00002FA00F06033024A42F82300704700BF77
:101BD00000E100E0044B1A6804280CBF42F0040244
:101BE00022F004021A60704710E000E0704708B568
:101BF000FFF7FCFF08BD70B5C46C056D6560446DF2
:101C000014B1846DC56D6560446C066C04F01C05F0
:101C10000124AC407460046863608368102B0BBFC0
:101C2000A260A160E160E26070BD000003680D4940
:101C30000D4A10B50D4CA34288BF0A46416C21F0F5
:101C400003010A448264DBB2094AC264083B1422DD
:101C5000B3FBF2F3012203F01C0302FA03F3036562
:101C600010BD00BF1C0802400008024007040240EB
:101C70008008024010B5044600285DD001682F4B53
:101C800099424FF014004AD82D4A0A44B2FBF0F2B0
:101C900092006264A3F207432364022384F8253090
:101CA000E068A3680A68034320690343606903434B
:101CB000A0690343E0690343206A22F4FF4222F053
:101CC0007002034313430B602046FFF7AFFFA36886
:101CD000A16C206DB3F5804F04BF00236360626880
:101CE000D3B20B60013AE16C032A48601FD8154A51
:101CF0001548A0651A44013B9200012103F003033B
:101D000001FA03F300216265E3651160436000207E
:101D10000123E06384F8240084F8253010BD0B4BC8
:101D20000B44B3FBF0F39B006364094BB4E700235F
:101D30006365A365E365EAE7012010BD070402407F
:101D4000F8FFFDBF3F82001040090240F8FBFDBFD5
:101D50000004024070B50446002845D001680B68B5
:101D600023F001030B60214B99424FF0140033D84C
:101D70001F4A0A44B2FBF0F292006264A3F20743E6
:101D80002364636C226C03F01C03012505FA03F342
:101D900000260E6020465360FFF748FFA36C616881
:101DA0001E60E36C226D5A604A1E032A06D8114B4E
:101DB0000B449B0095401E600F4B5D600020E0636C
:101DC0006065A065E065E06220636063A06384F8FD
:101DD000250084F8240070BD084B0B44B3FBF0F3DE
:101DE0009B006364064BCBE7012070BD07040240F3
:101DF000F8FFFDBF3F82001040090240F8FBFDBF25
:101E00000004024070B590F82450012D044639D0EA
:101E1000012580F8245090F82550012D4FF0000640
:101E20004FF002052CD180F82550C663066835684E
:101E300025F001053560FFF7DEFE026B0368BAB1DD
:101E40001A6842F00E021A60A26C1168C90342BF00
:101E5000116841F480711160626D1AB1116841F42A
:101E6000807111601A6842F001021A60002070BD92
:101E70001A6822F004021A601A6842F00A02E2E7C5
:101E800080F82460022070BD90F82530022B10B538
:101E900003D00423C363012010BD0368016C1A68DA
:101EA00022F00E021A601A6822F001021A60826C97
:101EB000136823F480731360436C03F01C02012346
:101EC00093404B60C36C026D5A60436D33B11A6826
:101ED00022F480721A60836DC26D5A60012380F80B
:101EE0002530836B002480F8244013B198472046A6
:101EF00010BD184610BD016C426C036870B402F04E
:101F00001C020E681D680424944026420ED015F071
:101F1000040F0BD01A6892065EBF1A6822F0040202
:101F20001A60036B4C6073B370BC18470224944072
:101F3000264212D015F0020F0FD01A68950606D46B
:101F40001A6822F00A021A60012380F82530002363
:101F50004C6080F82430C36AE5E70824944034429A
:101F600011D02C070FD51C6824F00E041C6001232F
:101F700003FA02F24A60C36380F82530002380F838
:101F80002430436BCFE770BC70470000002848D076
:101F9000F8B590F85930044603F0FF02002B3BD00F
:101FA00023686068A168A769E668022284F859205E
:101FB0001D68E26925F4E02525F04005104328431B
:101FC0001860586B20F4837020F0010039430143FE
:101FD00059631A6C120C120432431A645D6B4FF48D
:101FE000801292FAA2F24FF40010B2FA82F190FA43
:101FF000A0F066692269B0FA80F006FA00F08A4023
:10200000024325F440110A43012500215A63084682
:10201000E16584F85950F8BD80F858201FF098FF0A
:10202000BEE70120704700BF70B490F85840012C03
:1020300022D00224056880F8594001266C6C80F893
:1020400058600F4E96FAA6F6B6FA86F603FA06F62A
:10205000039B406804F0404423433343B0F5403FC2
:102060006B64EA630CBFA963E9602B6843F001036A
:102070002B60002070BC7047022070BC704700BF0E
:102080000000FF3F70B582B00022036801921A6819
:10209000D60705460C4620D4DA69910602D45A6A5E
:1020A00092060FD5FEF7BCFF06462B6807E05A687C
:1020B0000192019A12F0290F2FD1611C4DD15A685B
:1020C000D206F4D51220002201219860104685F82E
:1020D000591085F8582002B070BDFEF7A1FF0646E2
:1020E0002B6801E0621C4AD15A689007D4D45A6820
:1020F0000192019A12F0210FF4D0019A900603D5B3
:10210000EA6D42F00202EA65019AD10703D5EA6D51
:1021100042F00102EA65212015E0019A160703D575
:10212000EA6D42F00402EA65019A940603D5EA6D6D
:1021300042F00202EA65019AD00703D5EA6D42F047
:102140000102EA652920986004210022012085F817
:10215000591085F8582002B070BD24B1FEF760FF19
:10216000801B8442A1D2EB6D032243F020030021A7
:10217000EB65104685F8592085F85810ABE7002C20
:10218000F1D0FEF74DFF801B8442A9D2EBE700BFE0
:1021900090F85830012B00F09080012202232DE9A5
:1021A000F04180F8582080F85930002949D04D007E
:1021B0006C1800EBC404E36AA3F10907012F40F295
:1021C00094804FF4403292FAA2F24FF07F4EB2FA6E
:1021D00082F69EFAAEFED4F834C0226BBEFA8EF4BC
:1021E0000CFA04F4B24022431A4306684FF48013F9
:1021F000D6F81C8093FAA3F34FF40014B3FA83FCCF
:1022000094FAA4F4294400EBC101404D8B6B08EA19
:1022100005052A4303FA0CF31343CA6BB4FA84F49A
:1022200002FA04F423438A6AF361012F326157D919
:102230000023012280F8592080F858301846BDE864
:10224000F081C36AA3F10907974238D94FF44034AB
:1022500094FAA4F44FF07F41B4FA84F291FAA1F118
:10226000046BD0F834E0B1FA81F194400EFA01F138
:10227000214341EA030206684FF48013746A93FA1B
:10228000A3F34FF40011B3FA83FC91FAA1F11F4DAF
:10229000836B2540C46B2A43B1FA81F103FA0CF336
:1022A000134304FA01F1826A0B43012F7362B26196
:1022B000BED82EF07F43B362BAE7022070474FF4D6
:1022C000403191FAA1F1D0F834E0026BB1FA81F11A
:1022D0000EF07F4402FA01F144EA03020A43CAE71E
:1022E0004B6B23F07F433362A2E74FF4403696FAFC
:1022F000A6F6626BD4F830E002F07F42B6FA86F4BC
:102300000EFA04F41A4322436FE700BFF0FFCC003B
:10231000074A536943F48023536172B601F5007391
:10232000401A0A680A5004319942FAD162B67047DD
:1023300000200240064B5A69002ABFBF054A9A6036
:1023400002F188329A60BABF5869C00F0020704706
:102350000020024023016745034A536943F00043CC
:1023600053610020704700BF0020024070B5054651
:10237000FEF756FE1A4C06462369DB031ED423697A
:10238000A06923F07F4323F47D0323F4705323F0EB
:10239000050300F00040184319D0124A5368034364
:1023A000536010F040431EBFA2691343A36130F095
:1023B000404001D00A4B1861012070BD6A1CDBD07F
:1023C000FEF72EFE801B8542D6D8032070BD236900
:1023D00013F0010302D00123236170BD184670BDC4
:1023E00000200240000000202DE9F047244C9A46CE
:1023F0002378012B0746884691463FD001234CF2B3
:1024000050302370FFF7B2FF064620BB60601D48C6
:10241000056815F4806517BF0368257723F480638A
:1024200003601CBF02232377D7B9456945F0010536
:102430004561C8F800900125C8F804A04CF250305E
:10244000FFF794FF064625B10E4A536923EA0505B6
:10245000556100F05DF8002323703046BDE8F08739
:102460007B1E012B01D90025E8E749464046FFF7CE
:102470004FFF022FF7D14FF48025DFE70226ECE76C
:1024800000000020002002400F4A136A13F4800F5E
:10249000134611D0C10742BF526942F004025A618B
:1024A000820703D55A6942F400425A61064A5369C9
:1024B00043F4803353617047536943F4004343F05E
:1024C00004035361F2E700BF002002400F4B1A6A79
:1024D00012F4800F5A6913D122F400625A615A69CA
:1024E000C00022F4FF6200F4FF60104358615A6993
:1024F00042F002025A615A6942F480325A617047CE
:10250000C907E9D442F40062E8E700BF00200240B6
:1025100013490B7FDBB203F0FD02012A0CD1114AF3
:10252000106840F400601060106820F400601060D3
:10253000106840F400701060023B012B0CD8094B6E
:102540001A6842F480521A601A6822F480521A60A3
:102550001A6842F480621A6000230B77704700BF4C
:1025600000000020002002402DE9F047354C237880
:10257000012B0646884662D001274CF25030277066
:10258000FFF7F4FE054640BB2F4B60601A6812F45B
:10259000007F1A6826D022F400721A601A6851056A
:1025A00006D51A6822F480621A600323237700E0BC
:1025B00027773368012B1FD17068FFF765FF4CF256
:1025C0005030FFF7D3FE204A536923F4004323F031
:1025D000040305465361FFF79BFF00232370284641
:1025E000BDE8F087520505D51A6822F480621A60AA
:1025F0000223DBE72077DCE74FF0FF33C8F8003039
:10260000B768DFF84490DFF844A0B368F268134479
:102610009F42E0D271683846FFF758FF4CF25030C5
:10262000FFF7A4FED9F8143003EA0A03C9F81430FE
:1026300018B1C8F800700546CDE70137E5E7022577
:10264000CDE700BF000000200020024005F8FFFF9A
:102650002DE9F74FD1F80080DFF8A091654A0023FB
:1026600038FA03F402D103B0BDE8F08F4FF0010E49
:102670000EFA03FE18EA0E0600F0AB804C6824F058
:102680001007022F16D14FEAD30A00EB8A0A03F093
:10269000070BDAF820504FEA8B0B4FF00F0C0CFAB7
:1026A0000BFC25EA0C0C0D6905FA0BF545EA0C0547
:1026B000CAF820504FEA430A0325D0F800B005FAC3
:1026C0000AF5ED4304F0030C0BEA050B0CFA0AFCC7
:1026D000013F4CEA0B0C012FC0F800C011D88768ED
:1026E00007EA050BCF6807FA0AFC4CEA0B0787607C
:1026F000476827EA0E0EC4F300179F4047EA0E070B
:102700004760C7683D408F6807FA0AF73D43C560D8
:10271000E5005ED5D9F8605045F00105C9F8605074
:10272000D9F8605023F0030707F1804705F0010551
:1027300007F58037019503F0030E019DD7F808A037
:102740004FF00F0C4FEA8E0E0CFA0EF5B0F1904FD1
:102750002AEA050C3FD0284DA8423ED005F58065F9
:10276000A8423CD005F58065A8423AD005F58065C1
:10277000A84238D005F58065A84236D005F58065B9
:10278000A84234D005F58065A84214BF0825072566
:1027900005FA0EF545EA0C05BD601568F74314F41B
:1027A000803F0CBF3D4035431560556814F4003F31
:1027B0000CBF3D4035435560956814F4801F0CBF35
:1027C0003D4035439560D568A40254BF3D40354334
:1027D000D560013344E70025DAE70125D8E7022573
:1027E000D6E70325D4E70425D2E70525D0E706255B
:1027F000CEE700BF00040140000400480010024082
:102800002DE9F04F464DDFF820A1DFF820B100227E
:102810004FF0010931FA02F301D1BDE8F08F09FA56
:1028200002F811EA08066BD007680323540003FA84
:1028300004F422FA03FC274300EB8C0C0760DCF85D
:10284000207002F0070E3B464FEA8E0E0F2707FA64
:102850000EFE23EA0E0ECCF820E0D0F808E0E443A8
:102860000EEA040EC0F808E0D0F804E02EEA0808EA
:10287000C0F80480D0F80CE004EA0E04C46022F032
:10288000030404F1804404F5803402F0030ED4F80C
:1028900008C04FEA8E0E07FA0EF7B0F1904F0CEA1F
:1028A000070C2FD01F4B98422ED003F5806398421F
:1028B0002CD003F5806398422AD003F580639842B8
:1028C00028D003F58063984226D0504526D058453D
:1028D0000CBF0723082303FA0EF39C4510D1A3680D
:1028E00023EA0707A7602B68F64333402B606B6829
:1028F00033406B60AB683340AB60EB681E40EE600A
:10290000013287E70023E6E70123E4E70223E2E759
:102910000323E0E70423DEE70523DCE70623DAE709
:10292000000401400004004800180048001C004852
:102930000369194214BF0120002070470AB1816168
:1029400070478162704743695940416170477047E1
:1029500008B5044B5969014202D05861FFF7F7FFEF
:1029600008BD00BF0004014003689A69910744BF95
:1029700000229A629A69D2075EBF9A6942F0010208
:102980009A61704730B5039C05682343640D04F4D5
:10299000806444F07F7444F458346868C1F30901DA
:1029A00044F47F74194344F0030441EA024120EAED
:1029B00004042143696030BD11F0010307D090F891
:1029C000413003F02803282B0CBF4223F2238A074F
:1029D00009D590F8412002F02802282A0CBF43F0C4
:1029E000440343F0F4034A0701F0110248BF43F0E7
:1029F000B80301F01201112A08BF43F09003122915
:102A000001680A6808BF43F0600322EA03030B6011
:102A100070472DE9F041069F0446884616461D463C
:102A20002268936938EA03030CBF01230023B342F1
:102A300002D00020BDE8F0816B1CF2D0FEF7F0FA66
:102A4000C01B854201D3002DEAD1636C43F0200303
:102A50006364202384F84130002384F8423084F8F2
:102A600040300120BDE8F081036870B504469869E4
:102A700010F010000D46164616D170BD691C14D01A
:102A8000FEF7CEFA801B854200D36DB9636C43F02C
:102A900020036364202384F84130002384F842300B
:102AA00084F84030012070BD236899698A06E5D515
:102AB00010222025DA612046DD61FFF755FF2268EC
:102AC000536823F0FF7323F48B3323F4FF7323F055
:102AD00001035360636C43F00403636484F8415062
:102AE000DBE770B504460D46164623689B699B07D5
:102AF00001D5002070BD324629462046FFF7B4FFBD
:102B0000A0B96A1CF1D0FEF78BFA801B854201D375
:102B1000002DEAD1636C43F020036364202384F822
:102B20004130002384F8423084F84030012070BDE9
:102B3000F7B5099E1F46164B009305461446002321
:102B4000FAB2FFF71FFF324608992846FFF7C9FF80
:102B500010B1012003B0F0BD012F2B680CD1E4B2FD
:102B60009C62089B0096002240212846FFF751FFF7
:102B7000003018BF0120EDE7220A9A620899324618
:102B80002846FFF7AEFF0028E3D12B68E7E700BF38
:102B90000020008070B504460D46164623689B69E8
:102BA0009B0601D5002070BD324629462046FFF71E
:102BB0005BFF90B9FEF734FA801B854201D3002DEC
:102BC000ECD1636C43F020036364202384F841302C
:102BD000002384F8423084F84030012070BD10B5E5
:102BE000044600284AD090F8413003F0FF021BB998
:102BF00080F840201FF0CAF9242384F8413023686C
:102C0000E1681A6822F001021A60626822F07062BC
:102C10001A619A68012922F400429A60A26824D1BC
:102C200042F400429A605A68616942F0007242F4CC
:102C300000425A60DA6822F40042DA6022690A43EC
:102C4000A16942EA0122DA60216AE2690A431A6054
:102C50001A6842F001021A6000202023606484F8A0
:102C60004130206384F8420010BD42F4044202293E
:102C70009A6004BF4FF400625A60D4E7012010BD8F
:102C80002DE9F04F9B4690F8413085B0202B04464B
:102C90000F460392BDF83CA0DDF8408040F0A980CB
:102CA0000E9B13B1BAF1000F06D14FF400736364A9
:102CB000012005B0BDE8F08F90F84030012B00F006
:102CC0009880012580F84050FEF7AAF9192300905A
:102CD00006462A464FF400412046FFF79AFE8146F9
:102CE0000028E5D1222384F84130402384F8423083
:102CF0000E9B606463626063A4F82AA00196CDF81D
:102D000000805B46039A39462046FFF711FF10B159
:102D100084F84090CCE7638D9BB2FF2B364B58D99B
:102D2000FF22009322854FF0807339462046FFF73B
:102D300029FE00964346002204212046FFF769FE43
:102D40000028B5D12268636A526A1A70636A228DBC
:102D500001336362638D013B9BB26385638D013AEE
:102D600092B29BB22285ABB1A2B9009643468021B4
:102D70002046FFF74EFE00289AD1638D9BB2FF2BB1
:102D80002FD9FF22228500904FF0807339462046CC
:102D9000FFF7F8FD638D9BB2002BCAD13246414646
:102DA0002046FFF7F7FE002882D123682021D96151
:102DB0005A6822F0FF7222F48B3222F4FF7222F062
:102DC00001025A6084F8411084F8400084F84200FF
:102DD0006FE7628D009392B222854FF00073D2B2FA
:102DE000A3E7628D009092B222854FF00073D2B2B9
:102DF000CCE702205DE700BF002400800268436B3F
:102E00009169126803B1184770477047704738B529
:102E1000002580F8425090F84130292B0CD128230E
:102E200080F84130212303630121FFF7C5FD80F8BD
:102E30004050FFF7EAFF38BD90F841302A2B0BD104
:102E4000282380F84130222303630221FFF7B4FDD9
:102E500080F84050FFF7DAFF38BD7047F8B590F8BA
:102E6000413003F02803282B0446036834D19E69BF
:102E7000C1689D699A68DF682D0C0229C6F3004677
:102E800005F0FE0520D1C2F3090285EAD21515F03E
:102E900006050ED1816C01318164816C022920D13B
:102EA00008218564D96180F840503146FFF7D5FF8D
:102EB000F8BD0421FFF780FD002380F8403007F0C3
:102EC000FE0231462046F1E70421FFF775FD00239D
:102ED00080F840302A46F4E70822DA61002380F8BF
:102EE0004030F8BD70470000174B10B52022C36278
:102EF00000230363436380F8412080F842304B078E
:102F0000044612D50268436A526A1A70436A013352
:102F10004362038D4BB1013B0385438D013B9BB263
:102F20004385436C43F00403436420460721FFF7C5
:102F300043FD23681022DA61002384F840302046E4
:102F4000FFF7D0FF10BD00BF0000FFFF70477047C4
:102F500070B5324A90F84130002580F84250C26284
:102F60004585426C283B1143022B0446416422D81C
:102F70000321FFF721FD282380F84130284B05630A
:102F80006363236819681A6811F4804120D0A06B2C
:102F900022F480421A6000283ED0224B8363002333
:102FA00084F84030FEF770FF002835D0A06B836BAB
:102FB000BDE8704018470721FFF7FEFC90F841304C
:102FC000602B1CBF202380F8413000230363D7E728
:102FD00012F400420ED01A68E06B22F400421A602C
:102FE000D0B1104B836384F84010FEF74DFF98B1C9
:102FF000E06BDCE794F84130602B08D1202384F8A3
:10300000413084F840202046FFF7A1FF70BD84F8CE
:1030100040202046FFF79AFF70BD00BF0000FFFF71
:1030200019310008893200080368202270B51E6833
:10303000DA610822DA610D4607210446FFF7BCFC7D
:1030400003685A6842F400425A605A6822F0FF72DC
:1030500022F48B3222F4FF7222F001025A60FFF751
:1030600083FC710432D5836B1BB11B685B689BB218
:1030700063856B070ED52268636A526A1A70636AA9
:1030800001336362238D2BB1013B2385638D013BAB
:103090009BB26385638D9BB21BB1636C43F00403E9
:1030A00063640023236384F842306363636C8BB1F1
:1030B000616C2046FFF74CFF94F84130282B28D153
:1030C00029462046BDE87040FFF70EBF3204D0D538
:1030D000C36BC9E7E26A12F5803F0AD00D4AE2628B
:1030E000202284F8412084F840302046FFF7FAFE81
:1030F00070BD94F8412084F84030222A4FF020021D
:1031000084F84120204602D1FFF780FE70BDFFF712
:103110007CFE70BD0000FFFF70B5164690F84020A1
:10312000C36A012A04460D467CD0012280F8402063
:10313000CA0639D5F20637D5428D92B232BB90F825
:103140004120282A10D1B3F1007F0DD1FFF7CCFE2A
:10315000AA0605D5B30603D529462046FFF764FF26
:10316000002084F8400070BD94F84120292A22688C
:103170004FF01001D161EBD113F5803FE8D020462C
:10318000FFF7F2FB2046FFF742FEE1E7026810215D
:10319000D161426C33F0807342F004024264D7D1B3
:1031A000416CFFF7D5FED3E76A071AD5700718D52B
:1031B000628D92B26AB12168626A496A1170626A6C
:1031C00001326262228D013A2285628D013A92B209
:1031D0006285628D92B2002ABAD113F5803FD1D1B7
:1031E000B6E7290705D5320703D52046FFF736FE97
:1031F000AEE7A807ACD5B107AAD5628D92B26AB185
:10320000636A226813F8011B91626362638D013B5C
:103210009BB26385238D013B238599E733F080734F
:10322000B0D095E7022070BD036899691A6810B4A0
:10323000CC0508D5140606D5446C44F0010444645A
:103240004FF48074DC614C0508D5140606D5446C37
:1032500044F0080444644FF48064DC61890508D5B7
:10326000120606D5426C42F0020242644FF400722C
:10327000DA61416C11F00B0F03D05DF8044BFFF7DE
:1032800067BE5DF8044B7047806A826B08B5002307
:103290009363C26B936390F84130602B05D1202378
:1032A00080F84130FFF753FE08BDFFF74FFE08BD21
:1032B00090F84120D2B2202A10B51DD190F84030AC
:1032C000012B19D0242380F8413003681C6824F0B6
:1032D00001041C601C6824F480541C601C68214399
:1032E0001960196841F001011960002380F841203C
:1032F00080F84030184610BD022010BD10B590F87F
:103300004140E4B2202C1CD190F84030012B18D061
:10331000242380F8413003681A6822F001021A6001
:103320001A6822F4706242EA012119601A6842F0B8
:1033300001021A60002380F8414080F840301846AE
:1033400010BD022010BD00002DE9F04FD20104682D
:103350004868D4F80C80D1F800E0D1F80CC08E6831
:10336000D1F818900F698432A3180EF1010A5D6834
:1033700005F0F0255D60E568C8F30B48C5F30B4523
:103380008044554445EA08455D60E568D3F808A0E7
:10339000D1F814800AF0F02AC3F808A0D4F80CB0D1
:1033A000C5F30A0A0136CBF30A05D4442E4446EA93
:1033B0000C469E601D6925F007051D614FF0000C4D
:1033C0001F619D6991F8326091F831A0C3F818C06F
:1033D00091F8305045EA096545EA0A2545EA06456F
:1033E0009D615D6925F0FF055D61C3F81480DD69AD
:1033F00025F4E06525F00705DD6101F11C0595E880
:1034000060013543DD619D6AC3F828C0C3F8288098
:103410003FB3012F28D0BD1E022D28D9072F0CBF86
:103420004FF0020C4FF0010C8E6ADD6ACF6AA0EB00
:103430000E000CFB00F006FB0CF1033040EA0140EB
:1034400005F0E025DD62D862196B21F4FF6121F0FF
:10345000070119631F63A35843F00103A350BDE89C
:10346000F08F4FF0040CDFE74FF0030CDCE74FF078
:10347000020CD9E700286AD0F8B590F8A1300446CC
:1034800003F0FF02002B5DD00222236884F8A12004
:10349000221DC4CA996925692E4821F0704199619D
:1034A0003243996966693A432A430A439A619D689F
:1034B000676A054004F1180292E804509D6099681B
:1034C00041EA064111439960DD68A66A0540DD6066
:1034D000DA6842EA0C4242EA0E02DA601D69D4F868
:1034E0002CE005401D61196941EA0741314319612A
:1034F0005969084058615A69216B42EA0E420A43F1
:103500005A61D96A94F8355094F8360001F07F4139
:10351000D962D96A94F834200A4342EA052242EA81
:103520000042DA625A6B42F006025A639A6900213D
:1035300042F0010201259A610846C4F8A41084F8FB
:10354000A150F8BD80F8A0201EF01CFB9CE70120D4
:10355000704700BF00F800F090F8A030012B01D1B7
:10356000022070472DE9F0410D46064696460F466B
:103570000FCD342404FB0E644FF001084FF0020C11
:10358000383486F8A08086F8A1C00FC40FCD0FC4D0
:103590000FCD0FC42B682360724630463946FFF7C3
:1035A000D3FE32680023C2F82480184686F8A18032
:1035B00086F8A030BDE8F081F8B590F8A050012D54
:1035C00001D10220F8BD342303FB02F3C7180446DF
:1035D00001260D4638334FF0020EC11880F8A06066
:1035E00080F8A1E0FD65FFF7AFFE22680023566278
:1035F000184684F8A16084F8A030F8BD2DE9F041A8
:1036000004468AB0002874D090F8BD3303F0FF025E
:103610001BB980F8BC231EF001FE2546032355F894
:10362000100B84F8BD3304F0F6F90FCD6E460FC6CB
:103630000FCD0FC695E8030086E8030004F10408E7
:1036400098E80E00206804F0B1F90021206804F029
:10365000E8F900212246234604F110050126084618
:1036600083F83C10A3F8421001310F2983F83D6024
:1036700083F83F0058649864186503F11C03EFD188
:1036800000231F4682F8FC3101330F2B82F8FD71B5
:1036900082F8FF71C2F80472C2F80872C2F81072A0
:1036A00002F11C02EED10FCD6E460FC60FCD0FC634
:1036B00095E8030086E8030098E80E00206804F00F
:1036C000F1F9012384F8387084F8BD33636A012B63
:1036D00002D1204600F026FCA36A012B02D120462D
:1036E00000F033FC206804F0B7FC00200AB0BDE80D
:1036F000F0810120FAE790F8BC33012B10B50446A5
:103700000CD0012380F8BC33006804F099FC2068D9
:1037100004F07BF9002084F8BC0310BD022010BD2A
:103720002DE9F04FD0F8009085B004464846D9F80E
:10373000408004F0CCFC0090002840F054812068C8
:1037400004F096FC002800F04E81206804F090FC04
:10375000800748BF2268206842BF536903F0020314
:10376000536104F085FC10F4002B0BD0206804F0AA
:1037700083FC09F530660546B2464FF0000B002D7C
:1037800040F03481206804F073FC47030CD52068B6
:1037900004F07AFC2546019009F510684FF0000B03
:1037A000019B002B40F06481206804F061FC00283C
:1037B00015DAD9F8043823F00103C9F8043894F86D
:1037C000F433012B40F0CF81002184F8F41320461C
:1037D0001EF08AFE2268536903F00043536120689B
:1037E00004F046FC05050BD5D9F80838D80702D5F2
:1037F00020461EF07DFD2268536903F40063536187
:10380000206804F035FC010114D523685A6902F0E0
:1038100000625A6194F8F423002A40F0A8815B6D9D
:103820000121C3F3830384F8F413C4F8F83320466A
:103830001EF05AFE206804F01BFCC20434D509F5C2
:1038400000656B68206823F001036B60102104F0B1
:10385000FFF8606809F510634FF67F31009A8242E5
:1038600040F08981EB6943F00113EB61236B002B7E
:1038700000F09A81D5F8843043F00B03C5F884300A
:103880006B6C43F00B036B64D9F80038206823F4A9
:10389000FE63C9F8003804F5717104F037FC226842
:1038A000536903F480535361206804F0E1FB8304FF
:1038B00020D5206804F00FFC2268D36823F47053ED
:1038C000D3600323E3604023636100F09DFFB34BAB
:1038D000B34A03449342236800F26F81DA6842F4EA
:1038E0007052DA6020461EF0F6FC2268536903F439
:1038F00000535361206804F0BBFBC7062BD5226838
:10390000936923F010039361D9F82050C5F3434322
:10391000022B05F00F0740F0A08147F6F0731D421F
:1039200014D01C2606FB0746C5F30A152A46D6F80E
:103930000812484604F00EFBD6F808322B44C6F8AD
:103940000832D6F814321D44C6F81452226893691E
:1039500043F010039361206804F08AFB060707D543
:1039600020461EF0B4FC2268536903F0080353613B
:10397000206804F07DFBC50209D55FFA8BF1204673
:103980001EF0ECFC2268536903F480135361206835
:1039900004F06EFB800209D55FFA8BF120461EF021
:1039A000D9FC2268536903F400135361206804F0C2
:1039B0005FFB410007D520461EF0D4FC2268536906
:1039C00003F080435361206804F052FB42070AD59C
:1039D00023685D686B0702D520461EF0C7FC23688C
:1039E0005A6815435D6005B0BDE8F08FE9072ED534
:1039F0005FFA8BF211462068019204F04DFBC2077A
:103A000007460DD5674B019A01219845CAF8081061
:103A100029D1B1680B0420D54FF40042CAF8082020
:103A200039070FD55F4B984506D1B268120444BFE1
:103A30004FF40042CAF8082020461EF031FC08234B
:103A4000CAF80830FB0644BF1023CAF808300BF14F
:103A5000010B6D080AF1200A91E6B168880644BF9F
:103A60002021CAF80810114620461EF01FFCD7E797
:103A7000019BDE076ED55FFA8BFA5146206804F091
:103A800014FB0646F00710D5D9F8343801200BF0A6
:103A90000F0200FA02F223EA0203C9F83438514651
:103AA000C8F8080020461EF00AFC310744BF08236E
:103AB000C8F80830F20644BF1023C8F8083073066F
:103AC00044BF4023C8F80830B70744BF0223C8F8F2
:103AD000083036063ED56B6D2E6DB3423AD8F61AD5
:103AE0006B6C226802929E4228BF1E4602F510634C
:103AF000033603EB4B13B6080393039B2F6D9B69AF
:103B00009BB2B3426B6D23D99F4221D967B9029B07
:103B1000012203F5006AD3F8343802FA0BF223EAE3
:103B20000203CAF8343015E0FF1A6B6CA96C0298D6
:103B30009F4228BF1F46BBB2524604F035F9AB6C1A
:103B40003B44AB646B6DFE1C1F44B6086F65D4E745
:103B50009F42DCD9019B5B080BF1010B01931C35E3
:103B600008F120081CE620461EF0DAFB32E620466B
:103B70001EF0BEFB5EE699601A6822F400121A601D
:103B8000C3F80812D3F8002222F40012C3F800226E
:103B9000009A01320092203360E600BF405327FFB5
:103BA000FF340C000A31544F6B6943F00B036B6117
:103BB0002B6943F00B032B6166E62F4A2F49024421
:103BC0008A4203D8DA6842F460528AE6A0F57402A9
:103BD0002B49A2F510528A4203D8DA6842F45052B7
:103BE0007FE6A0F183722749A2F5E7428A4203D813
:103BF000DA6842F4405274E6234A244902448A4275
:103C000003D8DA6842F430526BE6214A2149024473
:103C10008A4203D8DA6842F4205262E61E4A1F49FB
:103C200002448A4203D8DA6842F4105259E6A0F1FD
:103C3000B7721B49A2F558528A4203D8DA6842F497
:103C400000524EE6174A184902448A42DA6894BF85
:103C500042F4E05242F4C05243E6062B7FF476AEC3
:103C6000082204F5717148461C2604F073F906FB1E
:103C70000746C5F30A1564E6401E1BFF3F420F00CE
:103C80007F4F12001FD6130060B6E5FE5FE31600FB
:103C900000D3CEFE3F771B00C05BB3FEBF91210077
:103CA0001F753800E05459FEDF9C410090F8BC239A
:103CB000012A10B504460BD0012280F8BC2384F8F9
:103CC0003810006804F0ACF9002084F8BC0310BD83
:103CD000022010BD70B5044601F00F0011F0800FF6
:103CE0004FF01C06C5B206FB054115BF06FB054596
:103CF00006FB05453C3101F5FE7115BF0126002686
:103D000085F83D6085F8FD618A604A78CB70C0B265
:103D1000087002B1C880022B04BF00230B7194F815
:103D2000BC33012B09D0012384F8BC33206803F095
:103D300055FF002084F8BC0370BD022070BD01F067
:103D40000F03DAB210B504461C2011F0800F00FBFF
:103D5000024119BF3C3100FB024200FB024201F567
:103D6000FE7115BF0120002082F83D0082F8FD01A0
:103D70000B7094F8BC33012B09D0012384F8BC33B9
:103D8000206803F06DFF002084F8BC0310BD022002
:103D900010BD38B501F00F051C2404FB050104FB20
:103DA000050401F5FE71C4F810320023C4F808229E
:103DB000C4F8143284F8FD3184F8FC5100681DB950
:103DC00003F080FF002038BD03F0FEFFFAE738B5AE
:103DD00001F00F051C2404FB050104FB05043C3124
:103DE0002365002363650123A26484F83D3084F8D1
:103DF0003C5000681DB903F065FF002038BD03F09A
:103E0000E3FFFAE738B5436801F00F059D42044629
:103E10002DD811F0800F4FF01C021ED002FB0501BF
:103E200002FB050301223C3381F83D2001229A70F8
:103E30001D7094F8BC1391421BD084F8BC23194622
:103E4000206804F095F825B904F57171206804F034
:103E50005DF9002084F8BC0338BD02FB010302FBBE
:103E60000101002203F5FE7381F8FD21DEE7012048
:103E700038BD022038BD38B5436801F00F029A42C0
:103E8000044626D81C2311F0800F03FB020119BF42
:103E90003C3103FB020301F5FE7103FB024314BF37
:103EA000012000204FF0000514BF83F83D0083F887
:103EB000FD018D700A7094F8BC33012B0BD00123E7
:103EC00084F8BC33206804F080F884F8BC5328469A
:103ED00038BD012038BD022038BD70B50468636A62
:103EE00021B943EA0243A362002070BDA06A4D1EBF
:103EF00003EB10430020461CC0B2854206D83F3178
:103F000004EB810443EA02436360EDE7403004EBD5
:103F10008000406803EB10433046ECE70368002064
:103F200059627047026803460121C0F8FC13002063
:103F300083F8F403936943F000639361536D43F096
:103F4000805343F003035365704702680123C0F8B0
:103F50000034936B43F400339363002070470000F8
:103F6000074B186800F4C060B0F5806F07D0D3F835
:103F7000803013F4807F14BF4FF40070002070472E
:103F800000700040294B1A6828BB02F4C062B2F5E9
:103F9000806FD3F8802022F48072C3F8802019D17A
:103FA0001A6822F4C06242F400721A60204A116852
:103FB00032224A431F49B2FBF1F2194601325869D5
:103FC000400500D522B94B695B052DD5032070470C
:103FD000013AF4E77047B0F5007F20D102F4C062E7
:103FE000B2F5806FD3F8802042F48072C3F880204D
:103FF0001AD11A6822F4C06242F400721A600C4AA4
:10400000116832224A430B49B2FBF1F219460132E0
:1040100058694005D7D5002AD5D0013AF8E722F4EF
:10402000C06242F480621A60002070470070004055
:10403000500A002040420F00024A536843F4806354
:104040005360704700700040024A536843F40073A5
:10405000536070470070004037B51C4DAB6DDA00FF
:10406000044618D5FFF77CFFB0F5007F23D1802CE4
:1040700028D9A02C8CBF02200120154A136823F0F8
:104080000F0303431360136803F00F03181A18BFDC
:10409000012003B030BDAB6D43F08053AB65AB6D19
:1040A00003F080530193019BFFF75AFFAB6D23F0A0
:1040B0008053AB65D8E77F2C06D8A4F17003584233
:1040C0005841DAE70020D8E70220D6E70010024086
:1040D00000200240234B9A68D96812F00C0205D0E8
:1040E0000C2A15D101F00301012918D119681E48C5
:1040F000090755BFD3F894101968C1F30321C1F320
:10410000031150F8210012B10C2A09D00020704789
:10411000042A24D0082A154818BF00207047002020
:10412000D968DA6801F00301C2F30312022902F12F
:10413000010205D0032903D0D968C1F3062103E0A9
:10414000D9680A48C1F30621DB68B0FBF2F0C3F37B
:104150004163013348435B00B0FBF3F07047034811
:10416000704700BF00100240344203080024F400EE
:104170002DE9F743054608B9012046E0A84C03683D
:10418000A668E768D80606F00C0607F0030772D5A4
:104190001EB10C2E51D1012F4FD12368990702D5A2
:1041A000AB69002BE8D02368286A1A0756BFD4F8F9
:1041B000943023681B0903F0F003834228D2FFF7F1
:1041C0004BFF0028D8D1236843F0080323602368FD
:1041D0002A6A23F0F003134323606368EA6923F437
:1041E0007F4343EA02236360FFF774FFA3688D4AAD
:1041F000C3F30313D35C03F01F03D8408A4B18604A
:104200000020FCF7DDFE002835D003B0BDE8F083C8
:10421000236843F008032360236823F0F00303437B
:1042200023606368EA6923F47F4343EA02236360FF
:10423000FFF712FF0028D7D09EE7AB69002B3AD0DA
:10424000236843F001032360FCF7EAFE80462368FD
:104250009B0728D5236843F00803236023682A6A54
:1042600023F0F003134323606368EA6923F47F4378
:1042700043EA022363602B68D9072DD42B689A0781
:104280006BD42B68190700F1A0802B685A0700F146
:10429000CD802B689A0600F13681AB6A002B40F086
:1042A0005C810020B1E7FCF7BBFEA0EB0800022810
:1042B000CDD90320A9E7236823F001032360FCF78D
:1042C000AFFE804623689807D5D5FCF7A9FEA0EB82
:1042D00008000228F6D9ECE7082E03D00C2E08D1EE
:1042E000032F06D123689B03C8D56B68002BC5D16B
:1042F00042E76B68B3F5803F10D1236843F4803305
:104300002360FCF78DFE804623689803B6D4FCF743
:1043100087FEA0EB08006428F6D9CAE7B3F5A02F02
:1043200004D1236843F480232360E6E7226822F463
:1043300080322260226822F480222260002BE0D1A9
:10434000FCF76EFE80462368990397D5FCF768FE5C
:10435000A0EB08006428F6D9ABE7042E03D00C2E9E
:1043600010D1022F0ED123685A0503D5EB68002B1C
:104370003FF402AF63682A6923F0FE4343EA026315
:1043800063607EE7EB687BB1236843F4807323604E
:10439000FCF746FE074623685B05EBD4FCF740FEBE
:1043A000C01B0228F7D984E7236823F480732360B5
:1043B000FCF736FE0746236858057FF562AFFCF729
:1043C0002FFEC01B0228F6D973E76B699BB1D4F8A6
:1043D000943043F00103C4F89430FCF721FE074603
:1043E000D4F894309B073FF550AFFCF719FEC01B83
:1043F0000228F5D95DE7D4F8943023F00103C4F81E
:104400009430FCF70DFE0746D4F8943098077FF5FA
:104410003CAFFCF705FEC01B0228F5D949E700BFF9
:10442000001002401B420308500A0020A36DD9006F
:1044300029D4A36D43F08053A365A36D03F080538B
:104440000193019B4FF00108714F3B68DA051DD5C0
:10445000AB68012B2BD1D4F8903043F00103C4F8A2
:104460009030FCF7DDFD41F288390746D4F89030F2
:10447000980742D5B8F1000F3FF40BAFA36D23F0BE
:104480008053A36505E74FF00008DDE73B6843F480
:1044900080733B60FCF7C4FD81463B68DB05D7D4E5
:1044A000FCF7BEFDA0EB09000228F6D901E7052BB9
:1044B00006D1D4F8903043F00403C4F89030CAE732
:1044C000D4F8902022F00102C4F89020D4F8902073
:1044D00022F00402C4F89020002BC2D1FCF7A0FD0A
:1044E00041F288390746D4F890309907C2D5FCF7D5
:1044F00097FDC01B4845F6D9DBE6FCF791FDC01BD4
:104500004845B3D9D5E66B6A9BB1D4F8983043F0EF
:104510000103C4F89830FCF783FD0746D4F89830BF
:104520009B073FF5BAAEFCF77BFDC01B0228F5D90F
:10453000BFE6D4F8983023F00103C4F89830FCF7B4
:104540006FFD0746D4F8983098077FF5A6AEFCF7C4
:1045500067FDC01B0228F5D9ABE60C2E3FF40CAE6C
:10456000022B236823F08073236036D1FCF758FDBB
:104570000646236899012AD4AB6B6A6BDB0643EAD3
:104580000223EA6A13432A6B013A43EA0213EA6BF5
:104590005208013A43EA42532A6C5208013A43EA6C
:1045A0004263E360236843F080732360E36843F071
:1045B0008073E360FCF734FD054623689A013FF5FC
:1045C00070AEFCF72DFD401B0228F6D971E6FCF712
:1045D00027FD801B0228CCD96BE6236813F0205FEF
:1045E00002BFE36823F00303E360E36823F088730A
:1045F00023F48033E360FCF713FD054623689B0139
:104600007FF54FAEFCF70CFD401B0228F6D950E6B3
:10461000007000402DE9F8430E46054610B9012010
:10462000BDE8F883714A136803F00F038B4234D35B
:10463000296811F001073BD12A68910740F1BB803E
:104640006B49A8688B6823F0F00303438B606749CC
:104650000B6803F00F039E42C0F0B58012F0040F08
:10466000634C40F0BC80130706D5A3682A6923F485
:10467000605343EAC203A360FFF72CFDA3685D4AC1
:10468000C3F30313D35C03F01F03D8405A4B1860E5
:104690000020BDE8F843FCF793BC136823F00F0338
:1046A0000B431360136803F00F039942B7D1BFE7C0
:1046B0006B684F4C032B68D123689B01AFD5E3682F
:1046C00003F00303012B1ED123684C4A1F0755BF7B
:1046D000D4F894302368C3F30323C3F3031352F8CD
:1046E0002320E768E368C3F30313581C07F00303B0
:1046F000022B0AD0032B08D0B2FBF0F3E768C7F314
:1047000006277B4308E00022EBE7E2683C4BB3FB63
:10471000F0F3C2F306225343E268C2F3416201326E
:104720005200B3FBF2F3374A93421CD80027A36828
:104730006A6823F003031343A360FCF771FC41F2A2
:1047400088398046A3686A6803F00C03B3EB820FD4
:104750003FF472AFFCF764FCA0EB08004845F1D9C8
:104760000320BDE8F883A36813F0F00F07D1A36816
:1047700023F0F00343F08003A3608027D7E7880786
:10478000D4D5AB68002BD1D1F1E7022B0AD1236835
:1047900013F4003F3FF443AFFFF79CFC194B9842E2
:1047A000C4D9E4E71BB9236813F0020FF2E72368CA
:1047B00013F4806FEEE7802F7FF449AF0C498B68CC
:1047C00023F0F00342E70B6823F00F0333430B6041
:1047D0000B6803F00F039E427FF421AF3EE7A3680E
:1047E000E96823F4E0630B43A3603CE70020024048
:1047F000001002401B420308500A00203442030804
:104800000024F40000B4C404014B1868704700BFD2
:10481000500A0020054B064A9B68C3F30223D35C71
:10482000044A106803F01F03D8407047001002408C
:104830002B420308500A0020054B064A9B68C3F32D
:10484000C223D35C044A106803F01F03D8407047AA
:10485000001002402B420308500A0020F8B53F4BDD
:10486000DA6812F0030F05460E461C46006822D097
:10487000DB6803F00303834230D17BB3236823F06A
:1048800080632360FCF7CCFB074623681A012ED413
:10489000AF686B6896B3012E4CD122693049114044
:1048A0002A6941EA0721013B520841EA0313013A10
:1048B00043EA42532DE002280CD0032810D00128EF
:1048C0000CD11B689F0734D5E36823F0030318431A
:1048D000E060D3E71B6813F4806FF5D10120F8BDC9
:1048E0001A689103F0D41B6813F4802FF5E7FCF7E6
:1048F00097FBC01B0228C8D90320F8BDE8682669C9
:104900001849C20642EA072231400A43013B42EA03
:1049100003132361236843F080632360FCF780FB6B
:10492000064623681B0113D52369AA691343236133
:104930000020F8BD21690C4A0A4042EA0722013BE7
:1049400042EA03136A695208013A43EA4263E0E724
:10495000FCF766FB801B0228E3D9CDE7001002407C
:104960000F809FFF0F80FF070F80FFF9F8B53F4BC7
:10497000DA6812F0030F05460E461C46006822D086
:10498000DB6803F00303834230D17BB3236823F059
:1049900080532360FCF744FB074623689A002ED41B
:1049A000AF686B6896B3012E4CD1626930491140F3
:1049B0002A6941EA0721013B520841EA0313013AFF
:1049C00043EA42532DE002280CD0032810D00128DE
:1049D0000CD11B689F0734D5E36823F00303184309
:1049E000E060D3E71B6813F4806FF5D10120F8BDB8
:1049F0001A689103F0D41B6813F4802FF5E7FCF7D5
:104A00000FFBC01B0228C8D90320F8BDE8686669FF
:104A10001849C20642EA072231400A43013B42EAF2
:104A200003136361236843F080532360FCF7F8FAB3
:104A3000064623689B0013D56369AA691343636123
:104A40000020F8BD61690C4A0A4042EA0722013B96
:104A500042EA03136A695208013A43EA4263E0E713
:104A6000FCF7DEFA801B0228E3D9CDE700100240F4
:104A70000F809FFF0F80FF070F80FFF92DE9F3479D
:104A8000056815F40065044623D0C16E402914D092
:104A900004D8C1B120292BD001251AE0602901D00A
:104AA0008029F9D14E4AE16ED2F89C3023F0E00320
:104AB0000B43C2F89C3000250BE0494AD36843F40D
:104AC0008033D360EEE70430FFF7C8FE05460028C8
:104AD000E8D02368DB0409D5216FB1F5007F14D03D
:104AE0000BD8C1B1B1F5807F71D001252E4621E0F0
:104AF00000212030FFF73AFFE8E7B1F5407F02D010
:104B0000B1F5806FF1D12E4609E0354AD36843F400
:104B10008033D360F7E7201DFFF7A0FE0646002E86
:104B20005BD12F4A216FD2F89C3023F4E0630B4312
:104B3000C2F89C3023689F0365D5294FBB6DD80010
:104B400040F1F3814FF00008DFF89890D9F8003079
:104B500043F48073C9F80030FCF762FA8246D9F852
:104B60000030D90540D5002E40F09781D7F890301D
:104B700013F4407315D0D4F89820934211D0D7F88D
:104B80009030D7F8902042F48032C7F89020D7F8C0
:104B9000902023F4407322F48032C7F89020C7F8A5
:104BA0009030DA0709D5FCF73BFA41F2883A8146A2
:104BB000D7F890309B0740F16881D7F89030D4F84F
:104BC000982023F440731343C7F8903014E0002179
:104BD00004F12000FFF7CAFEA0E73546AAE700BFB0
:104BE0000010024000700040FCF71AFAA0EB0A0027
:104BF0000228B4D903252E46B8F1000F03D0BB6DAF
:104C000023F08053BB652368DF0708D5C049E06BFC
:104C1000D1F8882022F003020243C1F888209807C7
:104C200008D5BB49206CD1F8882022F00C02024341
:104C3000C1F88820590708D5B549606CD1F888209B
:104C400022F030020243C1F888201A0708D5B04983
:104C5000A06CD1F8882022F0C0020243C1F888205D
:104C6000DF0608D5AA49E06CD1F8882022F440720A
:104C70000243C1F88820980608D5A549206DD1F8CF
:104C8000882022F440620243C1F88820990508D5A3
:104C90009F49606ED1F8882022F440220243C1F877
:104CA00088205A0508D59A49A06ED1F8882022F4A8
:104CB00040120243C1F888205F0608D59449606D10
:104CC000D1F8882022F440520243C1F88820180607
:104CD00008D58F49A06DD1F8882022F440420243C4
:104CE000C1F88820D90508D58949E06DD1F8882018
:104CF00022F440320243C1F88820DA0208D5844900
:104D0000206ED1F89C2022F003020243C1F89C20BF
:104D10009F0410D57E4A616FD2F8883023F040633B
:104D20000B43B1F1006FC2F8883040F0B880D3680F
:104D300043F48013D360236818030FD5A16F744B1D
:104D4000B1F5804FD3F89C2040F0B68042F4804209
:104D5000C3F89C20DA6842F48032DA602368590391
:104D600010D56B4AE16FD2F8883023F040630B43D3
:104D7000B1F1006FC2F8883040F0BD80D36843F4D1
:104D80008013D36023685A0414D56149D4F8802075
:104D9000D1F8883023F040531343B2F1805FC1F85B
:104DA000883007D10221201DFFF758FD0646002854
:104DB00018BF05462268D30309D55549D4F88400A5
:104DC000D1F89C3023F004030343C1F89C309702D0
:104DD00009D54F49D4F88800D1F89C3023F0180346
:104DE0000343C1F89C3050021FD5494F3B6823F064
:104DF00080533B60FCF714F980463B68990000F152
:104E00008980002E40F08F80D7F89C30D4F88C2019
:104E100023F440331343C7F89C30022104F12000EF
:104E2000FFF7A4FD002818BF054623681A0214D511
:104E30003749D4F89020D1F89C3023F480531343A1
:104E4000B2F5805FC1F89C3007D1012104F1200048
:104E5000FFF78CFD002818BF05462368DB0110D53D
:104E60002B4AD4F89410D2F89C3023F440130B430F
:104E7000B1F5001FC2F89C3003D1D36843F480130E
:104E8000D360284602B0BDE8F087FCF7C9F8A0EB74
:104E9000090050457FF68CAEACE63546ACE6B1F184
:104EA000806F7FF448AF0121201DFFF7D7FC064635
:104EB000002818BF05463EE722F48042C3F89C2034
:104EC000D3F8882022F040620A43B1F1006FC3F8A2
:104ED000882003D1DA6842F480123EE7B1F1806F96
:104EE0007FF43CAF0121201DFFF7B8FC06460028E7
:104EF00018BF054632E7B1F1806F7FF443AF01215F
:104F0000201DFFF7ABFC0646002818BF054639E711
:104F100000100240FCF784F8A0EB080002287FF69E
:104F20006CAF032581E735467FE7BB6D43F08053C7
:104F3000BB65BB6D03F080530193019B4FF00108EB
:104F400002E600BF2DE9F04F87B005468846FCF722
:104F500067F808210646286802F04EFB044618B19F
:104F6000204607B0BDE8F08FA96C2868090402F05C
:104F700029FC04460028F3D14FF0FF31082002221B
:104F80000123009101906946302728680494039218
:104F90000593029702F01CFB286802F031FC0446DE
:104FA0000028DDD182468346814640F22A5704E03C
:104FB000FCF736F8801B013018D02868436B3B4261
:104FC000436B0ED11B03F3D4B9F1000FF0D102F003
:104FD000D7FA8346286802F0D3FA4FF001098246D7
:104FE000E6E7190705D508248463B9E74FF00044C4
:104FF000B6E7436B9A0702D502248463B0E7436B9C
:105000009B0602D520248463AAE79BFA8BF29AFAC6
:105010008AF303498163C8F80420C8F800309FE789
:105020003A0F001880B110B50323044680F83430DD
:10503000006802F0B7FA20461DF030F80023A363A1
:10504000184684F8343010BD01207047F0B504468E
:1050500089B079B390F83400C0B2012802D00220A0
:1050600009B0F0BD666D0D46D1180027B142A763A7
:1050700027D8E16B2068032684F8346001294FEAC1
:105080004326C76218BF5202A562E6624FF4007160
:105090008DE80C0002F0B0FA9DE80C00B0B1236876
:1050A000254A9A63A26B01231043A063184684F833
:1050B0003430D5E7836B43F000638363012009B08C
:1050C000F0BDA36B43F00073A363C9E74FF0FF3E4D
:1050D000039606900226079002A99027206805965D
:1050E0008DE80C00CDF808E0049702F071FA206812
:1050F000019BC16B009A41F49571C163C16801269F
:1051000041F04001B342C160066585650ED9822336
:105110001146236302F090FA0028A1D02368064AC2
:105120009A63DA6B22F49572DA63BBE78123114646
:10513000236302F071FAEFE7FF0FE01FF0B50446BA
:1051400089B079B390F83400C0B2012802D00220AF
:1051500009B0F0BD666D0D46D1180027B142A763B6
:1051600027D8E16B2068032684F8346001294FEAD0
:105170004326C76218BF5202256266624FF400716F
:105180008DE80C0002F038FA9DE80C00B0B12368FD
:10519000244A9A63A26B01231043A063184684F843
:1051A0003430D5E7836B43F000638363012009B09B
:1051B000F0BDA36B43F00073A363C9E74FF0FF3E5C
:1051C00002A90590069007909027206803968DE825
:1051D0000C00CDF808E0049702F0FAF92068019B72
:1051E000C16B009A41F48D71C163C168012641F021
:1051F0004001B342C160066585650ED9A023114602
:10520000236302F039FA0028A2D02368054A9A6382
:10521000DA6B22F48D72DA63BCE72763114602F081
:105220001BFAF0E7FF0FE01F704700BF03685A6BDF
:1052300070B5D505044631D54FF480729A63DA6BA8
:1052400022F4414222F03A02DA63DA6B22F0805211
:10525000DA63DA6822F04002DA60026B12F00802C8
:1052600053D0026B900702D4226B910606D51846E4
:1052700002F012FA002840F0A9802368634A9A637A
:10528000012384F83430236BDA0703D4236B9B07A4
:1052900040F18780204619F075F970BD5A6B5604AD
:1052A0005FD45A6B15046CD45A6B12F03A0F5A6BD8
:1052B00047D0910703D5826B42F0020282635A6B9A
:1052C000120703D5A26B42F00802A2635A6B96063E
:1052D00003D5A26B42F02002A2635A6BD50603D518
:1052E000A26B42F01002A263484A9A63DA6B22F47E
:1052F0009D72DA63226B12F008027AD1216B0806E4
:1053000002D5A16B002955D170BD016B0E06FBD5EE
:105310009A62DA621A65026BD5075ED5012384F8BA
:105320003430236BD80602D4236B990602D520466D
:1053300019F022F9236BDA07ACD4236B9B07A9D4AD
:1053400070BDD100E0D51B6D13F0040F036B2CD0A2
:105350009B0655D500F0DCFB23684FF080529A6322
:10536000D2E7056A05F1200600E0236829461846C1
:10537000043502F009F9AE42F7D1236A20332362E3
:1053800070BD866A351F1C3600E02368184602F09F
:10539000F7F845F8040FB542F7D1A36A2033A362AA
:1053A00070BD204619F0E8F870BD9A062BD500F0C4
:1053B000B1FBD1E7D96B012521F08051D96320469B
:1053C0001A6584F83450FFF72FFF70BDA36B1843A4
:1053D000A0632046FFF728FF4FE7184602F05CF96C
:1053E00000289BD0A36B1843A0632046FFF71CFF47
:1053F00094E7012384F834302046FFF715FF70BD91
:1054000000F082FBA8E700F081FBA5E73A0F001847
:10541000036EF0B5C3F3072204469F0FC3F3836600
:10542000C3F30165C3F30740DBB20F704E708D709C
:10543000C8700A714B71636E1A0E1201CA80C88857
:10544000C3F3035580B2C3F307222843C3F30345D4
:10545000C8804FEAD21E0D720020C2F38017C2F33B
:105460004016C2F3001581F809E08F72CE720D73F9
:105470004873E06B002840F08380920202F440629F
:105480000A6108699A0002F47F720243A36E0A61FE
:105490000869DA0B40EA9370086102F00602C3F370
:1054A0004255C3F38240C3F3C267C3F302660F756C
:1054B0004E758D75C8750A760A7EC3F3C0300243F7
:1054C0000A760A69087E013202308240E2640D7A6F
:1054D0000120A840450A02FB05F24FF40075626501
:1054E0002065C3F30722A565500000F07E00C2F3DB
:1054F00080124A7688768A7EC3F3C010024303F096
:105500007F038A76CB76E36E9A0DDD0FC3F3417489
:10551000C3F3826002F00C020D774C778877CA776C
:10552000CA7FC3F381500243C3F34056C3F300451F
:10553000C3F3C0340020CA77C3F3803E81F82060F3
:10554000C3F3403781F82100C3F3003681F82250BD
:10555000012281F82340C3F38125C3F30124C3F35F
:10556000460381F824E081F8257081F8266081F8EF
:10557000275081F8284081F8293081F82A20F0BD91
:1055800001280BD02368134A9A63A36B012243F0CE
:105590008053A363104684F83420F0BD1B0403F449
:1055A0007C130B61A36E0A69180E42EA00220A619D
:1055B0000869C3F3074202430A610A69920202F5CD
:1055C00080624FF40070E26462652065C3F30722D5
:1055D000A06589E7FF0FE01FF0B58269056899B003
:1055E00000233C21012A04460793089309930A9358
:1055F0000B9125D00AAB93E807008DE8070007ABB5
:1056000028460ECB01F0A2FF18B10125284619B09B
:10561000F0BD206801F0BEFF05460028F5D102204C
:10562000FBF704FD2068069502F05CF868B10125DF
:1056300084F83450A36B1843A063284619B0F0BD1A
:105640002B6843F004032B60D4E7206802F078F85D
:1056500048B9012323640021206802F0B3F820B187
:105660004FF08050E3E72564F5E7624F4FF6FE7692
:10567000069BB3424FF0000114D8206802F0A2F854
:1056800039460028D3D1206802F0ACF80146002842
:10569000E6D1206801F092FF069B002803F1010388
:1056A0000693E5DA069A4FF6FE739A4202D94FF056
:1056B0008070BCE7470004D5A36901229342E263EE
:1056C00065D020680123ADF8163001F073FF10B9E2
:1056D0004FF08060ABE7E36B032B12D1042120680D
:1056E00001F06CFF000D60640DA92046FFF790FEED
:1056F000A26C20681204002301F0E4FF002885D08A
:1057000095E7206802F08EF8002890D101462068C5
:1057100001F054FF04212067206801F04FFF0821A9
:105720006067206801F04AFF0C21A067206801F043
:1057300045FFE36BE067032BD0D00DF11601206825
:1057400002F08CF800287FF472AFE36B032BC5D016
:10575000BDF81610A1642068090402F071F8002851
:105760007FF465AF0146206801F028FF0421206620
:10577000206801F023FF08216066206801F01EFF09
:105780000C21A066206801F019FFE066A6E7C601BB
:1057900097D523681A684FF4007142F00302E1655F
:1057A00018461A6002F0D8F800287FF440AF23684A
:1057B0005A6B5001FCD54FF080629A635B6BD90243
:1057C0007FF54EAF012000F009F92068036843F02F
:1057D00002030360436B9A01FCD54FF000738363AF
:1057E000436BDB023FF563AF13224FF0FF330260E0
:1057F000836367E7000010C1F0B4C36B076C466CAD
:10580000856CC46C026D0B60436D806DC8614F6028
:105810008E60CD600C6100204A618B61F0BC7047E6
:10582000F0B5C36B032293428BB0044680F834205A
:105830000E4615D0B1F5004F12D0B1F5804F30D0E3
:1058400000293DD0836B43F000638363A56B75B182
:1058500023683A4A9A63012084F834000BB0F0BD03
:10586000A36B43F08053A363A56B002DF0D1226995
:105870006369089307920AAB13E907006768A36896
:105880000696266805938DE80700049704AB0ECBB7
:10589000304601F05BFE0123284684F834300BB01B
:1058A000F0BD0023194600680493059301F086FEBD
:1058B00080011ED54FF40060A36B1843A063C5E7B9
:1058C00000680491059101F079FE820105D54FF43D
:1058D0000060A16B0843A063B8E704A92046FFF766
:1058E00031FB0028F5D1059BDB030ED44FF080601F
:1058F000EFE704A92046FFF725FB0028DCD1059B34
:1059000059030ED44FF08060D6E7A16C20680904DB
:1059100001F058FF0028DCD10146206802F01AF897
:10592000D7E7A16C2068090401F04CFF0028C3D11F
:105930000221206802F00EF8BEE700BFFF0FE01F53
:1059400038B560B190F83430044603F0FF02DBB1A3
:10595000032384F834302046FFF73EFE10B10125C2
:10596000284638BDE1682046FFF75AFF0546002863
:10597000F5D1A369012B0BD000230122A363284694
:10598000236384F8342038BD02771CF037FBDFE74F
:10599000E36DB3F5007F02D0E36B012BECD12268FD
:1059A000536843F480135360204600F019F8002830
:1059B000E2D0D4E7816C10B509040446006801F018
:1059C000A9FF20B1A16B0843A063002010BD0146D0
:1059D000206801F0F3FDC0F3432010BD704700BF05
:1059E0002DE9F047044696B040252A46002106A836
:1059F0001CF085FEFBF714FBE36D2BB94FF08066BE
:105A0000304616B0BDE8F087B3F5007F04D000261D
:105A1000304616B0BDE8F087D4F81880B8F1010F11
:105A2000F5D1074620680023C362294601F0E4FD52
:105A300006460028E4D14FF0FF3E60220223049086
:105A400069462068CDF800E0029203930195CDF8F5
:105A5000148001F0BDFD2A49206801F06BFF064665
:105A60000028CDD106AD40F22A5A2068436B13EAD4
:105A70000A0F436B1BD11B040CD5A5F1040805F1DB
:105A80001C0900E0206801F07BFD48F8040FC845C0
:105A9000F8D12035FBF7C4FAC01B0130E5D14FF037
:105AA00000420123A263032684F83430A8E71D07CF
:105AB00005D4436B990705D502268663A0E7082322
:105AC00083639DE7436B9A0602D52026866397E79A
:105AD0009DF825300B4A82639B0702D50120FFF712
