:020000040800F2
:1000000000000A2041050208EDFF0108EFFF01088A
:10001000F1FF0108F3FF0108F5FF010800000000EF
:10002000000000000000000000000000F7FF0108D1
:10003000F9FF010800000000FBFF0108FDFF0108B7
:100040009105020891050208910502089105020830
:100050009105020891050208910502089105020820
:100060009105020829E2010891050208E1FF010853
:100070009105020891050208910502089105020800
:1000800091050208910502089105020891050208F0
:1000900091050208910502089105020881E1010815
:1000A00091050208910502089105020891050208D0
:1000B000ADDF010891050208910502083D00020824
:1000C0004900020891050208910502080D00020886
:1000D0009105020825000208910502089105020811
:1000E0009105020891050208910502089105020890
:1000F0009105020891050208910502080000000020
:10010000910502085500020819000208910502082D
:100110009105020891050208F5DF010819E00108C0
:10012000910502089105020891050208910502084F
:10013000910502089105020891050208910502083F
:100140009105020891050208910502083100020894
:10015000910502089105020891050208910502081F
:10016000910502089105020891050208910502080F
:10017000910502089105020891050208000000009F
:1001800091050208910502089105020891050208EF
:10019000910502089105020800000000000000001F
:1001A000000000000000000091050208910502080F
:0C01B00091050208910502089105020863
:1001C00010B5054C237833B9044B13B10448AFF391
:1001D00000800123237010BDC8150020000000001E
:1001E000D051020808B5034B1BB103490348AFF3D4
:1001F000008008BD00000000CC150020D05102088E
:1002000001F0FF01102A2BDB10F0070F08D010F8C7
:10021000013B013A8B422DD010F0070F42B3F6D1CB
:10022000F0B441EA012141EA014122F007047FF0E4
:1002300000070023F0E80256083C85EA010586EA3B
:10024000010685FA47F5A3FA87F586FA47F6A5FA77
:1002500087F68EB9EED1F0BC01F0FF0102F0070283
:1002600032B110F8013B013A83EA010313B1F8D12E
:100270000020704701387047002D06BF354603380F
:10028000073815F0010F07D1013015F4807F02BF48
:10029000013015F4C03F0130F0BC0138704700BF99
:1002A000034613F8012B002AFBD1181A01387047B6
:1002B00081F0004102E000BF83F0004330B54FEA17
:1002C00041044FEA430594EA050F08BF90EA020F84
:1002D0001FBF54EA000C55EA020C7FEA645C7FEA17
:1002E000655C00F0E2804FEA5454D4EB5555B8BF3A
:1002F0006D420CDD2C4480EA020281EA030382EAAB
:10030000000083EA010180EA020281EA0303362D3C
:1003100088BF30BD11F0004F4FEA01314FF4801C0F
:100320004CEA113102D0404261EB410113F0004F21
:100330004FEA03334CEA133302D0524263EB4303D8
:1003400094EA050F00F0A780A4F10104D5F1200E76
:100350000DDB02FA0EFC22FA05F2801841F10001D1
:1003600003FA0EF2801843FA05F359410EE0A5F1A5
:1003700020050EF1200E012A03FA0EFC28BF4CF0D6
:10038000020C43FA05F3C01851EBE37101F000458C
:1003900007D54FF0000EDCF1000C7EEB00006EEB99
:1003A0000101B1F5801F1BD3B1F5001F0CD3490823
:1003B0005FEA30004FEA3C0C04F101044FEA44527A
:1003C00012F5800F80F09A80BCF1004F08BF5FEA01
:1003D000500C50F1000041EB045141EA050130BDE1
:1003E0005FEA4C0C404141EB010111F4801FA4F184
:1003F0000104E9D191F0000F04BF01460020B1FAD9
:1004000081F308BF2033A3F10B03B3F120020CDA10
:100410000C3208DD02F1140CC2F10C0201FA0CF0EE
:1004200021FA02F10CE002F11402D8BFC2F1200C53
:1004300001FA02F120FA0CFCDCBF41EA0C01904009
:10044000E41AA2BF01EB0451294330BD6FEA040452
:100450001F3C1CDA0C340EDC04F11404C4F120023D
:1004600020FA04F001FA02F340EA030021FA04F34F
:1004700045EA030130BDC4F10C04C4F1200220FAA6
:1004800002F001FA04F340EA0300294630BD21FAE4
:1004900004F0294630BD94F0000F83F4801306BFAA
:1004A00081F480110134013D4EE77FEA645C18BF9E
:1004B0007FEA655C29D094EA050F08BF90EA020F35
:1004C00005D054EA000C04BF1946104630BD91EA2D
:1004D000030F1EBF0021002030BD5FEA545C05D130
:1004E0004000494128BF41F0004130BD14F580046F
:1004F0003CBF01F5801130BD01F0004545F0FE41E3
:1005000041F470014FF0000030BD7FEA645C1ABF17
:10051000194610467FEA655C1CBF0B46024650EA4E
:10052000013406BF52EA033591EA030F41F400217A
:1005300030BD00BF90F0000F04BF0021704730B500
:100540004FF4806404F132044FF000054FF00001D5
:1005500050E700BF90F0000F04BF0021704730B596
:100560004FF4806404F1320410F0004548BF40426B
:100570004FF000013EE700BF42004FEAE2014FEAC0
:1005800031014FEA02701FBF12F07F4393F07F4F9B
:1005900081F06051704792F0000F14BF93F07F4FCD
:1005A000704730B54FF4607401F0004521F0004110
:1005B00020E700BF50EA010208BF704730B54FF096
:1005C00000050AE050EA010208BF704730B511F09B
:1005D000004502D5404261EB41014FF4806404F1D3
:1005E00032045FEA915C3FF4DCAE4FF003025FEA55
:1005F000DC0C18BF03325FEADC0C18BF033202EBDD
:10060000DC02C2F1200300FA03FC20FA02F001FA36
:1006100003FE40EA0E0021FA02F11444C1E600BFD5
:1006200070B54FF0FF0C4CF4E06C1CEA11541DBF88
:100630001CEA135594EA0C0F95EA0C0F00F0DEF853
:100640002C4481EA030621EA4C5123EA4C5350EA38
:10065000013518BF52EA033541F4801143F4801389
:1006600038D0A0FB02CE4FF00005E1FB02E506F01A
:100670000042E0FB03E54FF00006E1FB03569CF06F
:10068000000F18BF4EF0010EA4F1FF04B6F5007F75
:1006900064F5407404D25FEA4E0E6D4146EB0606E7
:1006A00042EAC62141EA55514FEAC52040EA5E5070
:1006B0004FEACE2EB4F1FD0C88BFBCF5E06F1ED81A
:1006C000BEF1004F08BF5FEA500E50F1000041EB51
:1006D000045170BD06F0004646EA010140EA0200FE
:1006E00081EA0301B4EB5C04C2BFD4EB0C0541EA20
:1006F000045170BD41F480114FF0000E013C00F335
:10070000AB8014F1360FDEBF002001F0004170BD58
:10071000C4F10004203C35DA0C341BDC04F1140471
:10072000C4F1200500FA05F320FA04F001FA05F2FD
:1007300040EA020001F0004221F0004110EBD370CA
:1007400021FA04F642EB06015EEA430E08BF20EAF6
:10075000D37070BDC4F10C04C4F1200500FA04F399
:1007600020FA05F001FA04F240EA020001F000412B
:1007700010EBD37041F100015EEA430E08BF20EA9E
:10078000D37070BDC4F1200500FA05F24EEA020EE6
:1007900020FA04F301FA05F243EA020321FA04F015
:1007A00001F0004121FA04F220EA020000EBD370CC
:1007B0005EEA430E08BF20EAD37070BD94F0000FCC
:1007C0000FD101F00046400041EB010111F4801F00
:1007D00008BF013CF7D041EA060195F0000F18BFB1
:1007E000704703F00046520043EB030313F4801FED
:1007F00008BF013DF7D043EA0603704794EA0C0FA7
:100800000CEA135518BF95EA0C0F0CD050EA4106BC
:1008100018BF52EA4306D1D181EA030101F0004139
:100820004FF0000070BD50EA410606BF1046194661
:1008300052EA430619D094EA0C0F02D150EA01366D
:1008400013D195EA0C0F05D152EA03361CBF1046AE
:1008500019460AD181EA030101F0004141F0FE414D
:1008600041F470014FF0000070BD41F0FE4141F4D1
:10087000780170BD70B54FF0FF0C4CF4E06C1CEAD1
:1008800011541DBF1CEA135594EA0C0F95EA0C0F86
:1008900000F0A7F8A4EB050481EA030E52EA033541
:1008A0004FEA013100F088804FEA03334FF0805562
:1008B00045EA131343EA12634FEA022245EA11158F
:1008C00045EA10654FEA00260EF000419D4208BF40
:1008D000964244F1FD0404F5407402D25B084FEAED
:1008E0003202B61A65EB03055B084FEA32024FF499
:1008F00080104FF4002CB6EB020E75EB030E22BFF6
:10090000B61A754640EA0C005B084FEA3202B6EBB5
:10091000020E75EB030E22BFB61A754640EA5C0064
:100920005B084FEA3202B6EB020E75EB030E22BFF4
:10093000B61A754640EA9C005B084FEA3202B6EBF5
:10094000020E75EB030E22BFB61A754640EADC00B4
:1009500055EA060E18D04FEA051545EA16754FEA16
:1009600006164FEAC30343EA52734FEAC2025FEA34
:100970001C1CC0D111F4801F0BD141EA00014FF0C3
:1009800000004FF0004CB6E711F4801F04BF014394
:100990000020B4F1FD0C88BFBCF5E06F3FF6AFAEB0
:1009A000B5EB030C04BFB6EB020C5FEA500C50F140
:1009B000000041EB045170BD0EF0004E4EEA1131C3
:1009C00014EB5C04C2BFD4EB0C0541EA045170BDCA
:1009D00041F480114FF0000E013C90E645EA060E0E
:1009E0008DE60CEA135594EA0C0F08BF95EA0C0F3C
:1009F0003FF43BAF94EA0C0F0AD150EA01347FF484
:100A000034AF95EA0C0F7FF425AF104619462CE75A
:100A100095EA0C0F06D152EA03353FF4FDAE1046BD
:100A2000194622E750EA410618BF52EA43067FF40E
:100A3000C5AE50EA41047FF40DAF52EA43057FF49E
:100A4000EBAE12E74FF0FF3C06E000BF4FF0010CA9
:100A500002E000BF4FF0010C4DF804CD4FEA410C0D
:100A60007FEA6C5C4FEA430C18BF7FEA6C5C1BD0DA
:100A700001B050EA410C0CBF52EA430C91EA030F5B
:100A800002BF90EA020F0020704710F1000F91EAB8
:100A9000030F58BF994208BF90422CBFD8176FEA86
:100AA000E37040F0010070474FEA410C7FEA6C5C54
:100AB00002D150EA013C07D14FEA430C7FEA6C5C5B
:100AC000D6D152EA033CD3D05DF8040B704700BF87
:100AD0008446104662468C461946634600E000BFD5
:100AE00001B5FFF7B7FF002848BF10F1000F01BDA7
:100AF0004DF808EDFFF7F4FF0CBF012000205DF872
:100B000008FB00BF4DF808EDFFF7EAFF34BF0120F6
:100B100000205DF808FB00BF4DF808EDFFF7E0FF8F
:100B200094BF012000205DF808FB00BF4DF808EDE0
:100B3000FFF7CEFF94BF012000205DF808FB00BF47
:100B40004DF808EDFFF7C4FF34BF012000205DF829
:100B500008FB00BF4FEA410C7FEA6C5C02D150EA0F
:100B6000013C0AD14FEA430C7FEA6C5C02D152EAA5
:100B7000033C02D14FF0000070474FF00100704776
:100B80004FEA410212F5001215D211D56FF47873B5
:100B9000B3EB625212D94FEAC12343F0004343EA58
:100BA000505311F0004F23FA02F018BF4042704733
:100BB0004FF00000704750EA013005D111F00040BD
:100BC00008BF6FF0004070474FF00000704700BF53
:100BD0004A0011D212F5001211D20DD56FF47873BC
:100BE000B3EB62520ED44FEAC12343F0004343EA11
:100BF000505323FA02F070474FF00000704750EA5C
:100C0000013002D14FF0FF3070474FF000007047C5
:100C10004FEA4102B2F1E04324BFB3F5001CDCF11E
:100C2000FE5C0DD901F0004C4FEAC0024CEA507056
:100C3000B2F1004F40EB830008BF20F00100704785
:100C400011F0804F21D113F13872BCBF01F0004088
:100C5000704741F480114FEA5252C2F11802C2F1BA
:100C6000200C10FA0CF320FA02F018BF40F001003B
:100C70004FEAC1234FEAD32303FA0CFC40EA0C00ED
:100C800023FA02F34FEA4303CCE77FEA625307D12A
:100C900050EA01331EBF4FF0FE4040F44000704761
:100CA00001F0004040F0FE4040F40000704700BFFB
:100CB00053B94AB9002908BF00281CBF4FF0FF31C3
:100CC0004FF0FF3000F07AB9ADF1080C6DE904CEB9
:100CD00000F006F8DDF804E0DDE9022304B0704717
:100CE0002DE9F0478C460D460446089E002B51D155
:100CF0008A4217466DD9B2FA82FEBEF1000F0BD0C0
:100D0000CEF1200C01FA0EF520FA0CFC02FA0EF7D7
:100D10004CEA050C00FA0EF44FEA174A250CBCFB0E
:100D2000FAF81FFA87F90AFB18CC45EA0C4508FBCC
:100D300009F3AB420AD9ED1908F1FF3280F02381A3
:100D4000AB4240F22081A8F102083D44ED1AA4B262
:100D5000B5FBFAF00AFB105544EA054400FB09F91B
:100D6000A14509D9E41900F1FF3380F00A81A145BA
:100D700040F2078102383C44A4EB090440EA0840F1
:100D80000021002E61D024FA0EF400233460736039
:100D9000BDE8F0878B4207D9002E54D0002186E8A9
:100DA00021000846BDE8F087B3FA83F1002940F03E
:100DB0008E80AB4202D3824200F2FA80841A65EB45
:100DC00003050120AC46002E3FD086E81010BDE898
:100DD000F08712B90127B7FBF2F7B7FA87FEBEF129
:100DE000000F34D1EB1B3A0C1FFA87FC0121B3FB37
:100DF000F2F8250C02FB183345EA03450CFB08F317
:100E0000AB4207D9ED1908F1FF3002D2AB4200F234
:100E1000D1808046ED1AA3B2B5FBF2F002FB10556B
:100E200043EA05440CFB00FCA44507D9E41900F192
:100E3000FF3302D2A44500F2B8801846A4EB0C049C
:100E400040EA08409DE731463046BDE8F087CEF1E4
:100E5000200405FA0EF307FA0EF720FA04F83A0C0C
:100E600025FA04F448EA0308B4FBF2F14FEA184506
:100E700002FB11441FFA87FC45EA044501FB0CF311
:100E8000AB4200FA0EF409D9ED1901F1FF3080F000
:100E90008A80AB4240F2878002393D44EB1A1FFA48
:100EA00088F5B3FBF2F002FB103345EA034500FB83
:100EB0000CF3AB4207D9ED1900F1FF386FD2AB420A
:100EC0006DD902383D44EB1A40EA01418FE7C1F188
:100ED000200722FA07F88B4005FA01F448EA0303D9
:100EE00020FA07FE4FEA134CFD404EEA040EB5FB14
:100EF000FCF94FEA1E440CFB19551FFA83F844EA2B
:100F0000054509FB08F4AC4202FA01F200FA01FAC5
:100F100008D9ED1809F1FF3043D2AC4241D9A9F10B
:100F200002091D442D1B1FFA8EFEB5FBFCF00CFBC5
:100F300010554EEA054400FB08F8A04507D9E4180F
:100F400000F1FF3529D2A04527D902381C4440EAD8
:100F50000940A4EB0804A0FB02894C45C6464D4657
:100F600015D312D056B1BAEB0E0364EB050404FAA4
:100F700007F7CB401F43CC40376074600021BDE8C9
:100F8000F0871846F8E69046E0E6C245EAD2B8EBAC
:100F9000020E69EB03050138E4E72846D7E740462F
:100FA00091E78146BEE7014678E702383C4445E7D1
:100FB000084608E7A8F102083D442BE7704700BF48
:100FC00038B50A4B054618684FF47A73B0FBF3F056
:100FD00000F034FD044638B9024629464FF0FF3090
:100FE00000F0DEFC204638BD012038BDD40E0020C4
:100FF00010B5032000F0C2FC0020FFF7E1FF04461B
:1010000018B91EF0E1FC204610BD0124FBE70000EA
:10101000024A136801331360704700BF7406092049
:10102000014B1868704700BF7406092038B50446A4
:10103000FFF7F6FF631C054618BF0134FFF7F0FF0A
:10104000401B8442FAD838BD70B54FF0007696FA4E
:10105000A6F6B6FA86F301F00076DE40143001F011
:10106000F8714FF0F87393FAA3F5B5FA85F593FA92
:10107000A3F3072421FA05F504FA05F5B3FA83F37F
:1010800050F82640D94024EA050402FA01F1214330
:1010900040F8261070BD000037B5002301930446C8
:1010A000002800F0B480C56D25B91EF0F1FD25665D
:1010B00084F8585023689A68900041BF9A6822F0DB
:1010C000204222F03F029A609A68D10076D59A6851
:1010D000D20040F18A800020E26DD50600F19380B5
:1010E0009A68510700F18F80E26D22F4817242F01C
:1010F0000202E2659A6802F00302012A40F0898048
:101100001A68D20740F18580E568A26B616A2A43BC
:10111000A5682A43E569012942EA453242EA0142CB
:1011200002BFA16A01F1FF3142EA4142E16A21B105
:10113000256B01F4707129430A43DD683949294060
:101140000A43DA609A6812F00C0F20D1626BA5692D
:10115000D968520042EA8532256D21F480412A4344
:1011600021F006010A43DA60E26B012A47D1656C7F
:10117000226C19692A43A56C42F001022A43E56CEE
:1011800021F4FF612A4321F004010A431A61226914
:10119000012A05BF196B226A1A6B02F1FF3206BFE2
:1011A00021F00F010A4322F00F021A63E36D23F0CE
:1011B000030343F00103E36503B030BD9A681A49A5
:1011C00022F0104222F03F0242F080529A60174A09
:1011D0001268B2FBF1F10A224A430192019A002AF5
:1011E0003FF475AF019A013AF7E7E26D42F0100261
:1011F000E265226E42F00102226601206CE71A6964
:1012000022F00102C2E7E36D43F01003E365012021
:10121000D2E7074965688A6822F47C122A438A600B
:1012200072E700BF07C0F0FF80841E00D40E0020CC
:1012300000030450F8B54569082D04460E460AD04F
:101240000368DB68DD0705D5C36D43F02003C36584
:101250000120F8BD0425FFF7E3FE074623681A685E
:1012600015421DD0E26D42F40072E265DA6812F4B4
:10127000406F0FD1E2696AB91A6811070AD5E26DA9
:1012800022F48072E265E26DD2045EBFE26D42F04C
:101290000102E265082DD86814D11D600020F8BD58
:1012A000701CDCD046B9E36D43F00403E365002312
:1012B00084F858300320F8BDFFF7B2FEC01B864209
:1012C000CCD2F0E710F48040E8D10C221A60F8BDCF
:1012D0000368186C70470000F7B50023019390F87D
:1012E0005830012B05460C4600F06881012380F838
:1012F000583000688268570700F15A814B68052B07
:1013000008D8023B032B64D8DFE803F0025C5E6080
:101310000C23636061684FF4407393FAA3F3B3FA4C
:1013200083F301F44076DE4000F1300701F01F0145
:101330001F2303FA01F257F8263023EA020322683A
:10134000C2F384628A40134347F82630826812F061
:101350000C0226D1A368B3F1004F3CD12168FFF7FE
:1013600073FE2A68536943F0004353612669D5F838
:1013700000E02368DEF80C10042E0EF1600233D07A
:10138000C1F3C1014800616903F0F843814043F0B3
:101390000043194352F82600C54B0340194342F855
:1013A00026102868836803F00303012B40F00881AE
:1013B0000368DE0740F104810020002385F85830DF
:1013C00003B0F0BD1223A4E71823A2E74FF4807303
:1013D0009FE706239DE71A462168FFF735FE2A6836
:1013E000536923F00043C0E7DEF86010C3F3120036
:1013F000C1F384670EF1640600283AD1C3F3846018
:10140000874240F0498121F00041CEF86010236806
:10141000DEF86410C3F31207C1F384609FBBC3F30B
:101420008463834240F03D8121F0004131602368B4
:101430009168C3F3120702F10806C1F3846077BB19
:10144000C3F38463834240F0478121F0004131605F
:10145000236802F10C00D268C3F31206C2F3846160
:101460004EBBC3F384638B4204BF22F00042026090
:1014700097E793FAA3F0B0FA80F08742C3D0DEF882
:101480006410C1F3846093FAA3F3B3FA83F3834245
:10149000CAD09168236802F10806C1F3846093FA08
:1014A000A3F3B3FA83F38342CFD002F10C00D268E6
:1014B0002368C2F3846193FAA3F3B3FA83F3D2E708
:1014C00093FAA3F2B2FA82F20132092A0DD993FA01
:1014D000A3F2B2FA82F20132960693FAA3F1B1FABC
:1014E00081F14A1C0121914016E093FAA3F2B2FA6D
:1014F00082F20132920693FAA3F1B1FA81F14E1C05
:101500000121B1407FE093FAA3F1B1FA81F10131F9
:1015100080E0164601FA0EF141EA06024FB9C3F324
:10152000846303EB4303A3F11B01090541F0007140
:1015300073E093FAA3F3B3FA83F3F2E75D4B9A42B5
:1015400004D15D4B9B6813F0807F72E05B4B9A4245
:101550007FF432AF584B9B6813F4800F69E0554914
:101560008A4211D1564A93427FF426AFD2F808132B
:10157000D2F8083301F0E07123F0E0730B4343F03D
:101580008073C2F8083317E74C498A427FF414AFDE
:101590004B4A93427FF410AFD2F80813D2F80833C5
:1015A00001F0E07123F0E0730B4343F48003E8E7BC
:1015B000EA6D42F02002EA651846FEE60220FFE6E8
:1015C000E168404AD0F8B060236801F0200E02FACA
:1015D0000EF2C3F3120772403A407240C0F8B020D6
:1015E000394A91421DD1002F7FF46AAFC3F3846161
:1015F00001F1010EBEF1090F4FF001014FEA8E62B9
:1016000087D801FA0EF10A43002F7FF47CAFC3F3B1
:101610008463591C01EB410109051143A268FFF7DE
:1016200013FD2268294B9A4288D1234B9B6813F4FF
:10163000000F7FF4C1AE2B68986800F0030001280A
:1016400002D11968C90722D420498A4287D11C4A8D
:1016500093427FF4B1AED2F80813D2F8083301F008
:10166000E07123F0E0730B4343F40003C2F8083346
:10167000174B184A1B68B3FBF2F2782353430193CC
:10168000019B002B3FF498AE019B013BF7E7EB6D0C
:1016900043F02003EB6590E6DEF86410C1F384604C
:1016A000BDE69168236802F10806C1F38460C7E6CD
:1016B00000F0FF03000084CB000304500100008011
:1016C00000000450FFFF070000007F40000052C7E9
:1016D000D40E002080841E0002F10C00D268236822
:1016E000C2F38461BDE600BF03689A6812F00C0F74
:1016F00070B5044601D1002070BDDA6890012AD58A
:10170000E269012A27D1A269012A24D1224A196853
:10171000490614D540221A6001219A6856070AD555
:101720009A68950707D49A6822F0004222F03F0297
:1017300042F010029A6001290FD104251EE0013AFF
:10174000E5D1E36D43F01003E365236E43F001033D
:101750002366012070BD0229DFD19A68100706D5E3
:101760009A6892075EBF9A6842F020029A60022946
:1017700003D00329E1D10C2500E00825FFF750FC38
:10178000064623689B681D42B5D0FFF749FC801BC5
:101790000528F6D9D5E700BF0100340A73B5002348
:1017A00002680193936803F00303012B044608D1F8
:1017B0001368D80705D5002002B070BD019B013B1E
:1017C00012E091681A4B194227D1936823F0004325
:1017D00023F03F0343F001039360164B164A1B6846
:1017E000B3FBF2F20A2353430193019B002BE5D193
:1017F000FFF716FC114E054622681368DB07DAD4A2
:101800009368D9075FBF9368334043F00103936047
:10181000FFF706FC401B0228EED9E36D43F01003EE
:10182000E365236E43F0010323660120C4E700BF94
:101830003F000080D40E002080841E00C0FFFF7F88
:1018400038B503689D6815F0040504463AD190F850
:101850005830012B36D0012380F85830FFF79EFF17
:1018600000282CD1E36D23F4706323F0010343F4CB
:101870008073E365E36D23F48013E365E36DDA04BD
:1018800048BF236E226852BF206623F006032366FA
:101890001C231360002384F85830D3689B0141BF98
:1018A000E36D23F4405343F48053E365936823F0DE
:1018B000004323F03F0343F00403936038BD84F8F2
:1018C000585038BD022038BD026838B504469068CB
:1018D00000F00300012801D0002038BD1368D907AB
:1018E000FAD5936803F00D03012B1FD1936823F001
:1018F000004323F03F0343F002039360032313608C
:10190000FFF78EFB054623689B68DB07E4D5FFF7EE
:1019100087FB401B0228F6D9E36D43F01003E36513
:10192000236E43F001032366012038BDE36D43F0CD
:101930001003E365236E43F00103236638BD90F87E
:101940005830012B10B5044616D0012380F85830CA
:101950000321FFF7C9FE58B92046FFF7B5FF38B994
:10196000E36D23F4885323F0010343F00103E3659F
:10197000002384F8583010BD022010BD074AD368F8
:1019800023F4E0631B041B0C43F0BF63000243F429
:10199000003300F4E0600343D360704700ED00E0E3
:1019A000174B30B5DC68C4F30224C4F10703251DCE
:1019B000042B28BF0423062D4FF0010505FA03F37D
:1019C00003F1FF338CBF033C00241940A14005FA0A
:1019D00004F4013C2240002842EA01024FEA0212CC
:1019E000AFBF00F1604000F00F00064BD2B2A5BFC0
:1019F00000F56140D2B21A5480F8002330BD00BF18
:101A000000ED00E014ED00E04209012300F01F00AA
:101A100003FA00F0014B43F82200704700E100E0B8
:101A20004309012200F01F0002FA00F02033024AAD
:101A300042F82300704700BF00E100E00138B0F138
:101A4000807F0AD2064B074A5860F02182F82310A3
:101A50000020072298601A6070470120704700BF7D
:101A600010E000E000ED00E04309012200F01F005B
:101A700002FA00F06033024A42F82300704700BFC8
:101A800000E100E0044B1A6804280CBF42F0040295
:101A900022F004021A60704710E000E0704708B5B9
:101AA000FFF7FCFF08BD70B5C46C056D6560446D43
:101AB00014B1846DC56D6560446C066C04F01C0542
:101AC0000124AC407460046863608368102B0BBF12
:101AD000A260A160E160E26070BD70B590F8245032
:101AE000012D044639D0012580F8245090F8255066
:101AF000012D4FF000064FF002052CD180F8255043
:101B0000C6630668356825F001053560FFF7CBFF31
:101B1000026B0368BAB11A6842F00E021A60A26C36
:101B20001168C90342BF116841F480711160626D90
:101B30001AB1116841F4807111601A6842F0010213
:101B40001A60002070BD1A6822F004021A601A6838
:101B500042F00A02E2E780F82460022070BD90F8AB
:101B60002530022B10B503D00423C363012010BD20
:101B70000368016C1A6822F00E021A601A6822F0DB
:101B800001021A60826C136823F480731360436C43
:101B900003F01C02012393404B60C36C026D5A603A
:101BA000436D33B11A6822F480721A60836DC26D7E
:101BB0005A60012380F82530836B002480F824408C
:101BC00013B19847204610BD184610BD016C426CF9
:101BD000036870B402F01C020E681D68042494406F
:101BE00026420ED015F0040F0BD01A6892065EBF85
:101BF0001A6822F004021A60036B4C6073B370BC65
:101C0000184702249440264212D015F0020F0FD03C
:101C10001A68950606D41A6822F00A021A6001238F
:101C200080F8253000234C6080F82430C36AE5E753
:101C300008249440344211D02C070FD51C6824F09E
:101C40000E041C60012303FA02F24A60C36380F8A9
:101C50002530002380F82430436BCFE770BC7047F9
:101C6000F0B505680A4E6C6C96FAA6F6059FB6FAB2
:101C700086F604F040443C43B34023436B6443681E
:101C8000EA63B3F5403F0CBFA963E960F0BD00BF54
:101C90000000FF3F38B50446002843D090F8593083
:101CA00003F0FF021BB980F858201EF0D1F8022380
:101CB00084F859302368E0691968626821F4E021EA
:101CC000024321F040010A431A60596BA268A069DF
:101CD00021F48371024321F001010A435A631A6C13
:101CE000E168120C12040A431A645D6B4FF480120F
:101CF00092FAA2F24FF40011B2FA82F091FAA1F135
:101D0000226982406069B1FA81F100FA01F10A4367
:101D100025F440110A435A6300200123E06584F84A
:101D2000593038BD012038BD73B590F85840012CAA
:101D30004FF002040FD080F859400126069C80F82D
:101D400058600094FFF78CFF0268136833431360F8
:101D5000002002B070BD2046FBE773B5002301935D
:101D600003681B68DB0704460D4627D42368DA693D
:101D700096065CD5FFF754F9064623685A68D206E2
:101D800058D45A680192019A12F0290F5DD0019A35
:101D9000160742BFE26D42F00402E265019A950621
:101DA00042BFE26D42F00202E265019AD00742BFF3
:101DB000E26D42F00102E26529221BE0FFF730F9F3
:101DC000064623685A689207D0D45A680192019A4D
:101DD00012F0210F17D0019A950642BFE26D42F032
:101DE0000202E265019AD00742BFE26D42F00102B1
:101DF000E26521229A60042384F85930002384F894
:101E0000583001201FE0691CDCD055B9E36D43F068
:101E10002003E3650320002384F8590084F8583038
:101E200011E0FFF7FDF8801B8542CAD2EEE75B6A3E
:101E30009B069FD4236812229A600020012384F815
:101E4000593084F8580002B070BD691C96D0002D3E
:101E5000DCD0FFF7E5F8801B85428ED2D6E7000084
:101E600090F85830012BF0B54FF0020341D0012219
:101E700080F8582080F85930026800294DD1C66A90
:101E8000446B076BA6F10905012D4FF4403332D89E
:101E900093FAA3F3B3FA83F304F07F41314307FAD3
:101EA00003F31943D2F824E04FF4801393FAA3F319
:101EB0004FF40016B3FA83F796FAA6F6836BBB408D
:101EC0003C4F0EEA070739430B43C16BB6FA86F65F
:101ED00001FA06F633435362012D836A936102D8F7
:101EE00024F07F449462012380F85930002380F865
:101EF00058301846F0BD93FAA3F34FF07F41B3FA80
:101F000083F391FAA1F1B1FA81F104FA01F107FA30
:101F100003F30B4343EA0601C4E7182404FB01045E
:101F20004FF44033E76A666B246BA7F10905012D76
:101F30002FD893FAA3F3B3FA83F306F07F4637431F
:101F400004FA03F33B43D2F81CE04FF4801494FAF4
:101F5000A4F44FF40016B4FA84F796FAA6F61824FF
:101F600004FB0101B6FA86F68C6BBC40114F0EEAF9
:101F700007073B432343CC6B04FA06F63343D36194
:101F8000012D8B6A13619EBF4B6B23F07F4313625D
:101F9000A9E793FAA3F34FF07F4EB3FA83F39EFAC7
:101FA000AEFEBEFA8EFE04FA03F306FA0EF63343D3
:101FB000C8E700BFF0FFCC00074A536943F4802311
:101FC000536172B601F50073401A0A680A50043171
:101FD0009942FAD162B6704700200240064B5A6916
:101FE000002ABFBF054A9A6002F188329A60BABFE0
:101FF0005869C00F00207047002002402301674548
:10200000034A536943F0004353610020704700BF07
:102010000020024070B50546FFF702F81A4C06464C
:102020002369DB031ED42369A06923F07F4323F4D3
:102030007D0323F4705323F0050300F000401843A0
:1020400019D0124A53680343536010F040431EBF37
:10205000A2691343A36130F0404001D00A4B1861DC
:10206000012070BD6A1CDBD0FEF7DAFF801B8542C1
:10207000D6D8032070BD236913F0010302D00123D9
:10208000236170BD184670BD002002400000002092
:102090002DE9F047244C9A462378012B07468846C1
:1020A00091463FD001234CF250302370FFF7B2FF2E
:1020B000064620BB60601D48056815F4806517BFA3
:1020C0000368257723F4806303601CBF0223237712
:1020D000D7B9456945F001054561C8F8009001256B
:1020E000C8F804A04CF25030FFF794FF064625B123
:1020F0000E4A536923EA0505556100F05DF8002397
:1021000023703046BDE8F0877B1E012B01D90025E6
:10211000E8E749464046FFF74FFF022FF7D14FF45B
:102120008025DFE70226ECE70000002000200240C7
:102130000F4A136A13F4800F134611D0C10742BF30
:10214000526942F004025A61820703D55A6942F487
:1021500000425A61064A536943F480335361704721
:10216000536943F4004343F004035361F2E700BFB3
:10217000002002400F4B1A6A12F4800F5A6913D1E3
:1021800022F400625A615A69C00022F4FF6200F42E
:10219000FF60104358615A6942F002025A615A695D
:1021A00042F480325A617047C907E9D442F40062B0
:1021B000E8E700BF0020024013490B7FDBB203F0C9
:1021C000FD02012A0CD1114A106840F40060106031
:1021D000106820F400601060106840F40070106017
:1021E000023B012B0CD8094B1A6842F480521A604A
:1021F0001A6822F480521A601A6842F480621A60E7
:1022000000230B77704700BF000000200020024031
:102210002DE9F047354C2378012B0646884662D0DD
:1022200001274CF250302770FFF7F4FE054640BB03
:102230002F4B60601A6812F4007F1A6826D022F4CF
:1022400000721A601A68510506D51A6822F4806275
:102250001A600323237700E027773368012B1FD10F
:102260007068FFF765FF4CF25030FFF7D3FE204A4D
:10227000536923F4004323F0040305465361FFF739
:102280009BFF002323702846BDE8F087520505D543
:102290001A6822F480621A600223DBE72077DCE709
:1022A0004FF0FF33C8F80030B768DFF84490DFF82C
:1022B00044A0B368F26813449F42E0D27168384684
:1022C000FFF758FF4CF25030FFF7A4FED9F8143056
:1022D00003EA0A03C9F8143018B1C8F800700546BB
:1022E000CDE70137E5E70225CDE700BF000000207C
:1022F0000020024005F8FFFF2DE9F74FD1F80080DC
:10230000DFF8A091654A002338FA03F402D103B044
:10231000BDE8F08F4FF0010E0EFA03FE18EA0E062C
:1023200000F0AB804C6824F01007022F16D14FEA62
:10233000D30A00EB8A0A03F0070BDAF820504FEAC1
:102340008B0B4FF00F0C0CFA0BFC25EA0C0C0D69F3
:1023500005FA0BF545EA0C05CAF820504FEA430A86
:102360000325D0F800B005FA0AF5ED4304F0030C9C
:102370000BEA050B0CFA0AFC013F4CEA0B0C012F8F
:10238000C0F800C011D8876807EA050BCF6807FAC4
:102390000AFC4CEA0B078760476827EA0E0EC4F375
:1023A00000179F4047EA0E074760C7683D408F68A7
:1023B00007FA0AF73D43C560E5005ED5D9F86050DD
:1023C00045F00105C9F86050D9F8605023F00307C3
:1023D00007F1804705F0010507F58037019503F007
:1023E000030E019DD7F808A04FF00F0C4FEA8E0E98
:1023F0000CFA0EF5B0F1904F2AEA050C3FD0284DAB
:10240000A8423ED005F58065A8423CD005F5806520
:10241000A8423AD005F58065A84238D005F5806518
:10242000A84236D005F58065A84234D005F5806510
:10243000A84214BF0825072505FA0EF545EA0C0544
:10244000BD601568F74314F4803F0CBF3D40354331
:102450001560556814F4003F0CBF3D40354355608E
:10246000956814F4801F0CBF3D4035439560D568D6
:10247000A40254BF3D403543D560013344E70025F5
:10248000DAE70125D8E70225D6E70325D4E70425B6
:10249000D2E70525D0E70625CEE700BF00040140BE
:1024A00000040048001002402DE9F04F464DDFF8CF
:1024B00020A1DFF820B100224FF0010931FA02F328
:1024C00001D1BDE8F08F09FA02F811EA08066BD0D5
:1024D00007680323540003FA04F422FA03FC274399
:1024E00000EB8C0C0760DCF8207002F0070E3B4616
:1024F0004FEA8E0E0F2707FA0EFE23EA0E0ECCF8D7
:1025000020E0D0F808E0E4430EEA040EC0F808E04A
:10251000D0F804E02EEA0808C0F80480D0F80CE0F7
:1025200004EA0E04C46022F0030404F1804404F5BC
:10253000803402F0030ED4F808C04FEA8E0E07FA7A
:102540000EF7B0F1904F0CEA070C2FD01F4B9842BA
:102550002ED003F5806398422CD003F58063984217
:102560002AD003F58063984228D003F5806398420F
:1025700026D0504526D058450CBF0723082303FA20
:102580000EF39C4510D1A36823EA0707A7602B68C8
:10259000F64333402B606B6833406B60AB6833406D
:1025A000AB60EB681E40EE60013287E70023E6E790
:1025B0000123E4E70223E2E70323E0E70423DEE765
:1025C0000523DCE70623DAE70004014000040048A5
:1025D00000180048001C00480369194214BF01207C
:1025E000002070470AB1816170478162704743697A
:1025F000594041617047704708B5044B5969014221
:1026000002D05861FFF7F7FF08BD00BF000401408A
:1026100003689A69910744BF00229A629A69D207B7
:102620005EBF9A6942F001029A61704730B5039C1F
:1026300005682343640D04F4806444F07F7444F41B
:1026400058346868C1F3090144F47F74194344F0B5
:10265000030441EA024120EA04042143696030BDD9
:1026600011F0010307D090F8413003F02803282B24
:102670000CBF4223F2238A0709D590F8412002F0CB
:102680002802282A0CBF43F0440343F0F4034A070E
:1026900001F0110248BF43F0B80301F01201112A02
:1026A00008BF43F09003122901680A6808BF43F08D
:1026B000600322EA03030B6070472DE9F041069F97
:1026C0000446884616461D462268936938EA030385
:1026D0000CBF01230023B34202D00020BDE8F081EB
:1026E0006B1CF2D0FEF79CFCC01B854201D3002D71
:1026F000EAD1636C43F020036364202384F8413003
:10270000002384F8423084F840300120BDE8F08195
:10271000036870B50446986910F010000D4616461F
:1027200016D170BD691C14D0FEF77AFC801B85425F
:1027300000D36DB9636C43F020036364202384F8F5
:102740004130002384F8423084F84030012070BDCD
:10275000236899698A06E5D510222025DA6120468A
:10276000DD61FFF755FF2268536823F0FF7323F400
:102770008B3323F4FF7323F001035360636C43F046
:102780000403636484F84150DBE770B504460D46EA
:10279000164623689B699B0701D5002070BD324611
:1027A00029462046FFF7B4FFA0B96A1CF1D0FEF716
:1027B00037FC801B854201D3002DEAD1636C43F0C6
:1027C00020036364202384F84130002384F84230DE
:1027D00084F84030012070BDF7B5099E1F46164BA6
:1027E0000093054614460023FAB2FFF71FFF324656
:1027F00008992846FFF7C9FF10B1012003B0F0BDCA
:10280000012F2B680CD1E4B29C62089B0096002239
:1028100040212846FFF751FF003018BF0120EDE7A7
:10282000220A9A62089932462846FFF7AEFF00282E
:10283000E3D12B68E7E700BF0020008070B50446B5
:102840000D46164623689B699B0601D5002070BD86
:10285000324629462046FFF75BFF90B9FEF7E0FBC2
:10286000801B854201D3002DECD1636C43F0200323
:102870006364202384F84130002384F8423084F8D4
:102880004030012070BD10B5044600284AD090F8B1
:10289000413003F0FF021BB980F840201DF0F6FA2A
:1028A000242384F841302368E1681A6822F0010289
:1028B0001A60626822F070621A619A68012922F433
:1028C00000429A60A26824D142F400429A605A6899
:1028D000616942F0007242F400425A60DA6822F400
:1028E0000042DA6022690A43A16942EA0122DA6001
:1028F000216AE2690A431A601A6842F001021A600A
:1029000000202023606484F84130206384F8420072
:1029100010BD42F4044202299A6004BF4FF40062E1
:102920005A60D4E7012010BD2DE9F04F9B4690F886
:10293000413085B0202B04460F460392BDF83CA0E1
:10294000DDF8408040F0A9800E9B13B1BAF1000F72
:1029500006D14FF400736364012005B0BDE8F08F29
:1029600090F84030012B00F09880012580F840500D
:10297000FEF756FB1923009006462A464FF4004105
:102980002046FFF79AFE81460028E5D1222384F8ED
:102990004130402384F842300E9B60646362606380
:1029A000A4F82AA00196CDF800805B46039A394628
:1029B0002046FFF711FF10B184F84090CCE7638DFB
:1029C0009BB2FF2B364B58D9FF22009322854FF044
:1029D000807339462046FFF729FE009643460022C1
:1029E00004212046FFF769FE0028B5D12268636AFA
:1029F000526A1A70636A228D01336362638D013BF0
:102A00009BB26385638D013A92B29BB22285ABB1D2
:102A1000A2B90096434680212046FFF74EFE0028CB
:102A20009AD1638D9BB2FF2B2FD9FF222285009074
:102A30004FF0807339462046FFF7F8FD638D9BB257
:102A4000002BCAD1324641462046FFF7F7FE002848
:102A500082D123682021D9615A6822F0FF7222F4C2
:102A60008B3222F4FF7222F001025A6084F8411086
:102A700084F8400084F842006FE7628D009392B2C0
:102A800022854FF00073D2B2A3E7628D009092B21C
:102A900022854FF00073D2B2CCE702205DE700BF81
:102AA000002400800268436B9169126803B11847E3
:102AB00070477047704738B5002580F8425090F84D
:102AC0004130292B0CD1282380F841302123036386
:102AD0000121FFF7C5FD80F84050FFF7EAFF38BD40
:102AE00090F841302A2B0BD1282380F84130222343
:102AF00003630221FFF7B4FD80F84050FFF7DAFFCF
:102B000038BD7047F8B590F8413003F02803282B02
:102B10000446036834D19E69C1689D699A68DF687C
:102B20002D0C0229C6F3004605F0FE0520D1C2F3A4
:102B3000090285EAD21515F006050ED1816C013126
:102B40008164816C022920D108218564D96180F8D3
:102B500040503146FFF7D5FFF8BD0421FFF780FD57
:102B6000002380F8403007F0FE0231462046F1E7AE
:102B70000421FFF775FD002380F840302A46F4E772
:102B80000822DA61002380F84030F8BD7047000069
:102B9000174B10B52022C36200230363436380F800
:102BA000412080F842304B07044612D50268436A40
:102BB000526A1A70436A01334362038D4BB1013B81
:102BC0000385438D013B9BB24385436C43F0040373
:102BD000436420460721FFF743FD23681022DA6192
:102BE000002384F840302046FFF7D0FF10BD00BF1F
:102BF0000000FFFF7047704770B5324A90F84130CF
:102C0000002580F84250C2624585426C283B114342
:102C1000022B0446416422D80321FFF721FD28231B
:102C200080F84130284B05636363236819681A688C
:102C300011F4804120D0A06B22F480421A60002859
:102C40003ED0224B8363002384F84030FEF787FF99
:102C5000002835D0A06B836BBDE870401847072172
:102C6000FFF7FEFC90F84130602B1CBF202380F85A
:102C7000413000230363D7E712F400420ED01A68F4
:102C8000E06B22F400421A60D0B1104B836384F8E9
:102C90004010FEF764FF98B1E06BDCE794F8413038
:102CA000602B08D1202384F8413084F8402020464E
:102CB000FFF7A1FF70BD84F840202046FFF79AFF80
:102CC00070BD00BF0000FFFFC12D0008312F0008BC
:102CD0000368202270B51E68DA610822DA610D46A9
:102CE00007210446FFF7BCFC03685A6842F400421F
:102CF0005A605A6822F0FF7222F48B3222F4FF727B
:102D000022F001025A60FFF783FC710432D5836B15
:102D10001BB11B685B689BB263856B070ED522688D
:102D2000636A526A1A70636A01336362238D2BB13E
:102D3000013B2385638D013B9BB26385638D9BB211
:102D40001BB1636C43F0040363640023236384F8C2
:102D500042306363636C8BB1616C2046FFF74CFFBC
:102D600094F84130282B28D129462046BDE87040F0
:102D7000FFF70EBF3204D0D5C36BC9E7E26A12F584
:102D8000803F0AD00D4AE262202284F8412084F874
:102D900040302046FFF7FAFE70BD94F8412084F8D9
:102DA0004030222A4FF0200284F84120204602D1F0
:102DB000FFF780FE70BDFFF77CFE70BD0000FFFFD7
:102DC00070B5164690F84020C36A012A04460D46A5
:102DD0007CD0012280F84020CA0639D5F20637D5CA
:102DE000428D92B232BB90F84120282A10D1B3F123
:102DF000007F0DD1FFF7CCFEAA0605D5B30603D59B
:102E000029462046FFF764FF002084F8400070BD8B
:102E100094F84120292A22684FF01001D161EBD1AA
:102E200013F5803FE8D02046FFF7F2FB2046FFF77E
:102E300042FEE1E702681021D161426C33F08073F9
:102E400042F004024264D7D1416CFFF7D5FED3E7CC
:102E50006A071AD5700718D5628D92B26AB12168D7
:102E6000626A496A1170626A01326262228D013AB5
:102E70002285628D013A92B26285628D92B2002AF9
:102E8000BAD113F5803FD1D1B6E7290705D532076E
:102E900003D52046FFF736FEAEE7A807ACD5B1074D
:102EA000AAD5628D92B26AB1636A226813F8011BD7
:102EB00091626362638D013B9BB26385238D013B0D
:102EC000238599E733F08073B0D095E7022070BD79
:102ED000036899691A6810B4CC0508D5140606D59C
:102EE000446C44F0010444644FF48074DC614C058C
:102EF00008D5140606D5446C44F0080444644FF425
:102F00008064DC61890508D5120606D5426C42F062
:102F1000020242644FF40072DA61416C11F00B0F4F
:102F200003D05DF8044BFFF767BE5DF8044B7047B4
:102F3000806A826B08B500239363C26B936390F839
:102F40004130602B05D1202380F84130FFF753FE3C
:102F500008BDFFF74FFE08BD90F84120D2B2202AED
:102F600010B51DD190F84030012B19D0242380F8E2
:102F7000413003681C6824F001041C601C6824F4C0
:102F800080541C601C6821431960196841F00101DC
:102F90001960002380F8412080F84030184610BDA9
:102FA000022010BD10B590F84140E4B2202C1CD195
:102FB00090F84030012B18D0242380F8413003686A
:102FC0001A6822F001021A601A6822F4706242EA5A
:102FD000012119601A6842F001021A60002380F88A
:102FE000414080F84030184610BD022010BD2DE948
:102FF000F043D20104684F68E568D1F800E0D1F8E9
:1030000018908432A3180EF10106586800F0F020E1
:103010005860E068C5F30B45C0F30B403D443044B5
:1030200040EA05405860E068CD68C0F30A000544F6
:10303000986800F0F0209860E6688868C6F30A0691
:103040000130304440EA0540986018690E6920F06C
:10305000070018614FF0000C1E619D6991F8320065
:1030600091F83180C3F818C091F8305045EA0965ED
:1030700045EA082545EA00459D61586920F0FF00B2
:10308000586148695861D86920F4E06020F0070071
:10309000D861086ACD690543DD61986A486AC3F85A
:1030A00028C098621EB3012E23D0B01E022822D958
:1030B000072E0CBF02200120DD6A05F0E025DD624D
:1030C0008D6AC96AA7EB0E0745437843033040EA8F
:1030D0000540D862186B20F4FF6020F007001863E9
:1030E0001963A35843F00103A350BDE8F083042003
:1030F000E2E70320E0E70220DEE7000038B50446FF
:10310000002863D090F8A13003F0FF021BB980F8CB
:10311000A0201CF09FFC022384F8A1302368A06843
:103120009A6922F070429A61626899690243E06884
:103130000243206902430A439A619A6824496069FC
:103140000A409A609A6842EA0042A06902439A6083
:10315000DA68E0690A40DA60DA6842EA0042206A26
:103160000243DA601A69606A0A401A611A6942EA1F
:103170000042A06A02431A615A69114059615A69B2
:10318000E16A42EA0142216B0A435A61D96A94F822
:10319000360094F8355001F07F41D962D96A94F82D
:1031A00034200A4342EA052242EA0042DA625A6BBC
:1031B00042F006025A639A6942F001029A610020C5
:1031C0000123C4F8A40084F8A13038BD012038BD23
:1031D00000F800F0F8B590F8A030012B06468E46B6
:1031E00094464FF002001DD034240D4686F8A1000D
:1031F00004FB02640FCD0127383486F8A0700FC499
:103200000FCD0FC40FCD0FC42B682360304662462C
:103210007146FFF7ECFE336800205F6286F8A1700C
:1032200086F8A000F8BD90F8A030012B70B54FF0E3
:103230000203044615D080F8A13034235343C61846
:10324000012580F8A050F16503F138010144FFF732
:10325000CEFE236800205D6284F8A15084F8A000AF
:1032600070BD184670BD2DE9F04104468AB00028B3
:1032700074D090F8BD3303F0FF021BB980F8BC2373
:103280001CF04CFF2546032355F8100B84F8BD3382
:1032900004F09DFB0FCD6E460FC60FCD0FC695E80F
:1032A000030086E8030004F1040898E80E00206893
:1032B00004F058FB0021206804F08FFB0021224617
:1032C000234604F110050126084683F83C10A3F8B4
:1032D000421001310F2983F83D6083F83F005864A4
:1032E0009864186503F11C03EFD100231F4682F890
:1032F000FC3101330F2B82F8FD7182F8FF71C2F8A7
:103300000472C2F80872C2F8107202F11C02EED107
:103310000FCD6E460FC60FCD0FC695E8030086E8A9
:10332000030098E80E00206804F098FB012384F85D
:10333000387084F8BD33636A012B02D1204600F057
:1033400027FCA36A012B02D1204600F034FC206840
:1033500004F05EFE00200AB0BDE8F0810120FAE72B
:1033600090F8BC33012B10B504460CD0012380F833
:10337000BC33006804F040FE206804F022FB00200B
:1033800084F8BC0310BD022010BD00002DE9F04FF1
:10339000D0F8009085B004464846D9F8408004F043
:1033A00072FE0090002840F05481206804F03CFE3A
:1033B000002800F04E81206804F036FE800748BFE8
:1033C0002268206842BF536903F00203536104F08E
:1033D0002BFE10F4002B0BD0206804F029FE09F519
:1033E00030660546B2464FF0000B002D40F03481A8
:1033F000206804F019FE47030CD5206804F020FE75
:103400002546019009F510684FF0000B019B002B39
:1034100040F06481206804F007FE002815DAD9F82E
:10342000043823F00103C9F8043894F8F433012B6D
:1034300040F0CF81002184F8F41320461CF0D4FF23
:103440002268536903F000435361206804F0ECFDE7
:1034500005050BD5D9F80838D80702D520461CF049
:10346000C7FE2268536903F400635361206804F0C7
:10347000DBFD010114D523685A6902F000625A612C
:1034800094F8F423002A40F0A8815B6D0121C3F376
:10349000830384F8F413C4F8F83320461CF0A4FF27
:1034A000206804F0C1FDC20434D509F500656B68DD
:1034B000206823F001036B60102104F0A5FA606816
:1034C00009F510634FF67F31009A824240F08981FE
:1034D000EB6943F00113EB61236B002B00F09A8141
:1034E000D5F8843043F00B03C5F884306B6C43F09F
:1034F0000B036B64D9F80038206823F4FE63C9F825
:10350000003804F5717104F0DDFD2268536903F49D
:1035100080535361206804F087FD830420D5206820
:1035200004F0B5FD2268D36823F47053D3600323FD
:10353000E3604023636100F09DFFB34BB34A034453
:103540009342236800F26F81DA6842F47052DA60C5
:1035500020461CF040FE2268536903F40053536177
:10356000206804F061FDC7062BD52268936923F01B
:1035700010039361D9F82050C5F34343022B05F0A3
:103580000F0740F0A08147F6F0731D4214D01C26AF
:1035900006FB0746C5F30A152A46D6F80812484620
:1035A00004F0B4FCD6F808322B44C6F80832D6F83A
:1035B00014321D44C6F814522268936943F0100374
:1035C0009361206804F030FD060707D520461CF003
:1035D000FEFD2268536903F008035361206804F07C
:1035E00023FDC50209D55FFA8BF120461CF036FE9B
:1035F0002268536903F480135361206804F014FDBA
:10360000800209D55FFA8BF120461CF023FE226868
:10361000536903F400135361206804F005FD410071
:1036200007D520461CF01EFE2268536903F0804334
:103630005361206804F0F8FC42070AD523685D68EE
:103640006B0702D520461CF011FE23685A6815430B
:103650005D6005B0BDE8F08FE9072ED55FFA8BF20B
:1036600011462068019204F0F3FCC20707460DD50D
:10367000674B019A01219845CAF8081029D1B16811
:103680000B0420D54FF40042CAF8082039070FD5A3
:103690005F4B984506D1B268120444BF4FF4004214
:1036A000CAF8082020461CF07BFD0823CAF8083021
:1036B000FB0644BF1023CAF808300BF1010B6D085C
:1036C0000AF1200A91E6B168880644BF2021CAF8B1
:1036D0000810114620461CF069FDD7E7019BDE0764
:1036E0006ED55FFA8BFA5146206804F0BAFC0646A4
:1036F000F00710D5D9F8343801200BF00F0200FA8A
:1037000002F223EA0203C9F834385146C8F8080027
:1037100020461CF054FD310744BF0823C8F8083088
:10372000F20644BF1023C8F80830730644BF402394
:10373000C8F80830B70744BF0223C8F80830360677
:103740003ED56B6D2E6DB3423AD8F61A6B6C22687B
:1037500002929E4228BF1E4602F51063033603EB19
:103760004B13B6080393039B2F6D9B699BB2B34227
:103770006B6D23D99F4221D967B9029B012203F5C2
:10378000006AD3F8343802FA0BF223EA0203CAF8CB
:10379000343015E0FF1A6B6CA96C02989F4228BF69
:1037A0001F46BBB2524604F0DBFAAB6C3B44AB6441
:1037B0006B6DFE1C1F44B6086F65D4E79F42DCD9D1
:1037C000019B5B080BF1010B01931C3508F12008EC
:1037D0001CE620461CF024FD32E620461CF008FDC5
:1037E0005EE699601A6822F400121A60C3F80812A3
:1037F000D3F8002222F40012C3F80022009A01320A
:103800000092203360E600BF405327FFFF340C00D6
:103810000A31544F6B6943F00B036B612B6943F022
:103820000B032B6166E62F4A2F4902448A4203D8D4
:10383000DA6842F460528AE6A0F574022B49A2F5D8
:1038400010528A4203D8DA6842F450527FE6A0F15F
:1038500083722749A2F5E7428A4203D8DA6842F424
:10386000405274E6234A244902448A4203D8DA6863
:1038700042F430526BE6214A214902448A4203D87D
:10388000DA6842F4205262E61E4A1F4902448A4224
:1038900003D8DA6842F4105259E6A0F1B7721B4916
:1038A000A2F558528A4203D8DA6842F400524EE632
:1038B000174A184902448A42DA6894BF42F4E05237
:1038C00042F4C05243E6062B7FF476AE082204F59C
:1038D000717148461C2604F019FB06FB0746C5F328
:1038E0000A1564E6401E1BFF3F420F007F4F120087
:1038F0001FD6130060B6E5FE5FE3160000D3CEFED0
:103900003F771B00C05BB3FEBF9121001F753800DD
:10391000E05459FEDF9C410090F8BC23012A10B509
:1039200004460BD0012280F8BC2384F838100068CC
:1039300004F052FB002084F8BC0310BD022010BD2F
:1039400070B5044601F00F0011F0800F4FF01C0617
:10395000C5B206FB054115BF06FB054506FB05453F
:103960003C3101F5FE7115BF0126002685F83D604A
:1039700085F8FD618A604A78CB70C0B2087002B1E8
:10398000C880022B04BF00230B7194F8BC33012BB9
:1039900009D0012384F8BC33206804F0FBF8002030
:1039A00084F8BC0370BD022070BD01F00F03DAB2D1
:1039B00010B504461C2011F0800F00FB024119BF16
:1039C0003C3100FB024200FB024201F5FE7115BFD3
:1039D0000120002082F83D0082F8FD010B7094F870
:1039E000BC33012B09D0012384F8BC33206804F0D8
:1039F00013F9002084F8BC0310BD022010BD38B5B7
:103A000001F00F051C2404FB050104FB050401F56E
:103A1000FE71C4F810320023C4F80822C4F814322E
:103A200084F8FD3184F8FC5100681DB904F026F9D2
:103A3000002038BD04F0A4F9FAE738B501F00F050D
:103A40001C2404FB050104FB05043C312365002311
:103A500063650123A26484F83D3084F83C5000681B
:103A60001DB904F00BF9002038BD04F089F9FAE71C
:103A700038B5436801F00F059D4204462DD811F07A
:103A8000800F4FF01C021ED002FB050102FB050354
:103A900001223C3381F83D2001229A701D7094F878
:103AA000BC1391421BD084F8BC231946206804F053
:103AB0003BFA25B904F57171206804F003FB00207E
:103AC00084F8BC0338BD02FB010302FB01010022A4
:103AD00003F5FE7381F8FD21DEE7012038BD0220E9
:103AE00038BD38B5436801F00F029A42044626D823
:103AF0001C2311F0800F03FB020119BF3C3103FBB3
:103B0000020301F5FE7103FB024314BF01200020F4
:103B10004FF0000514BF83F83D0083F8FD018D7060
:103B20000A7094F8BC33012B0BD0012384F8BC330A
:103B3000206804F026FA84F8BC53284638BD0120DA
:103B400038BD022038BD70B50468636A21B943EA04
:103B50000243A362002070BDA06A4D1E03EB104318
:103B60000020461CC0B2854206D83F3104EB8104D8
:103B700043EA02436360EDE7403004EB80004068B5
:103B800003EB10433046ECE70368002059627047AE
:103B9000026803460121C0F8FC13002083F8F403F7
:103BA000936943F000639361536D43F0805343F096
:103BB00003035365704702680123C0F80034936B18
:103BC00043F400339363002070470000074B1868EC
:103BD00000F4C060B0F5806F07D0D3F8803013F4E4
:103BE000807F14BF4FF400700020704700700040C9
:103BF000294B1A6828BB02F4C062B2F5806FD3F873
:103C0000802022F48072C3F8802019D11A6822F42F
:103C1000C06242F400721A60204A116832224A439C
:103C20001F49B2FBF1F2194601325869400500D52F
:103C300022B94B695B052DD503207047013AF4E7A3
:103C40007047B0F5007F20D102F4C062B2F5806FFA
:103C5000D3F8802042F48072C3F880201AD11A6809
:103C600022F4C06242F400721A600C4A11683222D7
:103C70004A430B49B2FBF1F219460132586940053B
:103C8000D7D5002AD5D0013AF8E722F4C06242F431
:103C900080621A600020704700700040D40E00203F
:103CA00040420F00024A536843F4806353607047F8
:103CB00000700040024A536843F400735360704739
:103CC0000070004037B51C4DAB6DDA00044618D5C6
:103CD000FFF77CFFB0F5007F23D1802C28D9A02CE2
:103CE0008CBF02200120154A136823F00F03034301
:103CF0001360136803F00F03181A18BF012003B0F4
:103D000030BDAB6D43F08053AB65AB6D03F08053BA
:103D10000193019BFFF75AFFAB6D23F08053AB6516
:103D2000D8E77F2C06D8A4F1700358425841DAE74F
:103D30000020D8E70220D6E7001002400020024011
:103D4000234B9A68D96812F00C0205D00C2A15D1C1
:103D500001F00301012918D119681E48090755BF50
:103D6000D3F894101968C1F30321C1F3031150F87B
:103D7000210012B10C2A09D000207047042A24D057
:103D8000082A154818BF002070470020D968DA6853
:103D900001F00301C2F30312022902F1010205D06E
:103DA000032903D0D968C1F3062103E0D9680A4882
:103DB000C1F30621DB68B0FBF2F0C3F341630133CA
:103DC00048435B00B0FBF3F070470348704700BF07
:103DD00000100240902103080024F4002DE9F7436D
:103DE000054608B9012046E0A84C0368A668E768C4
:103DF000D80606F00C0607F0030772D51EB10C2E8C
:103E000051D1012F4FD12368990702D5AB69002BFF
:103E1000E8D02368286A1A0756BFD4F8943023687C
:103E20001B0903F0F003834228D2FFF74BFF002861
:103E3000D8D1236843F00803236023682A6A23F05B
:103E4000F003134323606368EA6923F47F4343EA82
:103E500002236360FFF774FFA3688D4AC3F3031363
:103E6000D35C03F01F03D8408A4B18600020FDF795
:103E7000A7F8002835D003B0BDE8F083236843F0ED
:103E800008032360236823F0F0030343236063687F
:103E9000EA6923F47F4343EA02236360FFF712FFDA
:103EA0000028D7D09EE7AB69002B3AD0236843F0B7
:103EB00001032360FDF7B4F8804623689B0728D5EB
:103EC000236843F00803236023682A6A23F0F00381
:103ED000134323606368EA6923F47F4343EA0223C0
:103EE00063602B68D9072DD42B689A076BD42B6895
:103EF000190700F1A0802B685A0700F1CD802B68CC
:103F00009A0600F13681AB6A002B40F05C810020FC
:103F1000B1E7FDF785F8A0EB08000228CDD9032012
:103F2000A9E7236823F001032360FDF779F88046B1
:103F300023689807D5D5FDF773F8A0EB0800022891
:103F4000F6D9ECE7082E03D00C2E08D1032F06D1AA
:103F500023689B03C8D56B68002BC5D142E76B680B
:103F6000B3F5803F10D1236843F480332360FDF71D
:103F700057F8804623689803B6D4FDF751F8A0EBB4
:103F800008006428F6D9CAE7B3F5A02F04D1236846
:103F900043F480232360E6E7226822F48032226023
:103FA000226822F480222260002BE0D1FDF738F84D
:103FB00080462368990397D5FDF732F8A0EB0800F7
:103FC0006428F6D9ABE7042E03D00C2E10D1022FB3
:103FD0000ED123685A0503D5EB68002B3FF402AFDE
:103FE00063682A6923F0FE4343EA026363607EE765
:103FF000EB687BB1236843F480732360FDF710F80E
:10400000074623685B05EBD4FDF70AF8C01B0228BE
:10401000F7D984E7236823F480732360FDF700F861
:104020000746236858057FF562AFFCF7F9FFC01B10
:104030000228F6D973E76B699BB1D4F8943043F04A
:104040000103C4F89430FCF7EBFF0746D4F8943032
:104050009B073FF550AFFCF7E3FFC01B0228F5D9E3
:104060005DE7D4F8943023F00103C4F89430FCF7F2
:10407000D7FF0746D4F8943098077FF53CAFFCF79C
:10408000CFFFC01B0228F5D949E700BF001002404E
:1040900078210308D40E0020A36DD90029D4A36D84
:1040A00043F08053A365A36D03F080530193019BFC
:1040B0004FF00108714F3B68DA051DD5AB68012B45
:1040C0002BD1D4F8903043F00103C4F89030FCF7C2
:1040D000A7FF41F288390746D4F89030980742D5B7
:1040E000B8F1000F3FF40BAFA36D23F08053A3652D
:1040F00005E74FF00008DDE73B6843F480733B6061
:10410000FCF78EFF81463B68DB05D7D4FCF788FFC0
:10411000A0EB09000228F6D901E7052B06D1D4F857
:10412000903043F00403C4F89030CAE7D4F89020EC
:1041300022F00102C4F89020D4F8902022F004026A
:10414000C4F89020002BC2D1FCF76AFF41F28839F5
:104150000746D4F890309907C2D5FCF761FFC01B21
:104160004845F6D9DBE6FCF75BFFC01B4845B3D9F1
:10417000D5E66B6A9BB1D4F8983043F00103C4F8DC
:104180009830FCF74DFF0746D4F898309B073FF571
:10419000BAAEFCF745FFC01B0228F5D9BFE6D4F83C
:1041A000983023F00103C4F89830FCF739FF074634
:1041B000D4F8983098077FF5A6AEFCF731FFC01B06
:1041C0000228F5D9ABE60C2E3FF40CAE022B236887
:1041D00023F08073236036D1FCF722FF0646236864
:1041E00099012AD4AB6B6A6BDB0643EA0223EA6AC5
:1041F00013432A6B013A43EA0213EA6B5208013A6D
:1042000043EA42532A6C5208013A43EA4263E360AC
:10421000236843F080732360E36843F08073E360B6
:10422000FCF7FEFE054623689A013FF570AEFCF7E9
:10423000F7FE401B0228F6D971E6FCF7F1FE801B61
:104240000228CCD96BE6236813F0205F02BFE36835
:1042500023F00303E360E36823F0887323F48033DF
:10426000E360FCF7DDFE054623689B017FF54FAE5A
:10427000FCF7D6FE401B0228F6D950E6007000403D
:104280002DE9F8430E46054610B90120BDE8F88334
:10429000714A136803F00F038B4234D3296811F07D
:1042A00001073BD12A68910740F1BB806B49A868A0
:1042B0008B6823F0F00303438B6067490B6803F0BE
:1042C0000F039E42C0F0B58012F0040F634C40F023
:1042D000BC80130706D5A3682A6923F4605343EA18
:1042E000C203A360FFF72CFDA3685D4AC3F3031369
:1042F000D35C03F01F03D8405A4B18600020BDE880
:10430000F843FCF75DBE136823F00F030B43136003
:10431000136803F00F039942B7D1BFE76B684F4CA6
:10432000032B68D123689B01AFD5E36803F0030337
:10433000012B1ED123684C4A1F0755BFD4F8943077
:104340002368C3F30323C3F3031352F82320E7685E
:10435000E368C3F30313581C07F00303022B0AD0CE
:10436000032B08D0B2FBF0F3E768C7F306277B43C3
:1043700008E00022EBE7E2683C4BB3FBF0F3C2F34A
:1043800006225343E268C2F3416201325200B3FB9A
:10439000F2F3374A93421CD80027A3686A6823F0D7
:1043A00003031343A360FCF73BFE41F288398046C8
:1043B000A3686A6803F00C03B3EB820F3FF472AF9B
:1043C000FCF72EFEA0EB08004845F1D90320BDE81C
:1043D000F883A36813F0F00F07D1A36823F0F0036C
:1043E00043F08003A3608027D7E78807D4D5AB6864
:1043F000002BD1D1F1E7022B0AD1236813F4003F3F
:104400003FF443AFFFF79CFC194B9842C4D9E4E753
:104410001BB9236813F0020FF2E7236813F4806FCF
:10442000EEE7802F7FF449AF0C498B6823F0F0034F
:1044300042E70B6823F00F0333430B600B6803F074
:104440000F039E427FF421AF3EE7A368E96823F49F
:10445000E0630B43A3603CE70020024000100240F1
:1044600078210308D40E0020902103080024F400D2
:1044700000B4C404014B1868704700BFD40E00207C
:10448000054B064A9B68C3F30223D35C044A1068B9
:1044900003F01F03D8407047001002408821030832
:1044A000D40E0020054B064A9B68C3F3C223D35C9D
:1044B000044A106803F01F03D84070470010024000
:1044C00088210308D40E0020F8B53F4BDA6812F0BB
:1044D000030F05460E461C46006822D0DB6803F039
:1044E0000303834230D17BB3236823F080632360CE
:1044F000FCF796FD074623681A012ED4AF686B6857
:1045000096B3012E4CD12269304911402A6941EA03
:104510000721013B520841EA0313013A43EA42539F
:104520002DE002280CD0032810D001280CD11B68E4
:104530009F0734D5E36823F003031843E060D3E713
:104540001B6813F4806FF5D10120F8BD1A68910340
:10455000F0D41B6813F4802FF5E7FCF761FDC01B56
:104560000228C8D90320F8BDE86826691849C206A0
:1045700042EA072231400A43013B42EA0313236126
:10458000236843F080632360FCF74AFD06462368F6
:104590001B0113D52369AA69134323610020F8BDC9
:1045A00021690C4A0A4042EA0722013B42EA03130E
:1045B0006A695208013A43EA4263E0E7FCF730FDDA
:1045C000801B0228E3D9CDE7001002400F809FFF37
:1045D0000F80FF070F80FFF9F8B53F4BDA6812F044
:1045E000030F05460E461C46006822D0DB6803F028
:1045F0000303834230D17BB3236823F080532360CD
:10460000FCF70EFD074623689A002ED4AF686B684E
:1046100096B3012E4CD16269304911402A6941EAB2
:104620000721013B520841EA0313013A43EA42538E
:104630002DE002280CD0032810D001280CD11B68D3
:104640009F0734D5E36823F003031843E060D3E702
:104650001B6813F4806FF5D10120F8BD1A6891032F
:10466000F0D41B6813F4802FF5E7FCF7D9FCC01BCE
:104670000228C8D90320F8BDE86866691849C2064F
:1046800042EA072231400A43013B42EA03136361D5
:10469000236843F080532360FCF7C2FC064623687E
:1046A0009B0013D56369AA69134363610020F8BDB9
:1046B00061690C4A0A4042EA0722013B42EA0313BD
:1046C0006A695208013A43EA4263E0E7FCF7A8FC52
:1046D000801B0228E3D9CDE7001002400F809FFF26
:1046E0000F80FF070F80FFF92DE9F347056815F4E8
:1046F0000065044623D0C16E402914D004D8C1B14E
:1047000020292BD001251AE0602901D08029F9D178
:104710004E4AE16ED2F89C3023F0E0030B43C2F81E
:104720009C3000250BE0494AD36843F48033D360C2
:10473000EEE70430FFF7C8FE05460028E8D02368FE
:10474000DB0409D5216FB1F5007F14D00BD8C1B1BE
:10475000B1F5807F71D001252E4621E00021203067
:10476000FFF73AFFE8E7B1F5407F02D0B1F5806F7F
:10477000F1D12E4609E0354AD36843F48033D36043
:10478000F7E7201DFFF7A0FE0646002E5BD12F4A5B
:10479000216FD2F89C3023F4E0630B43C2F89C30C5
:1047A00023689F0365D5294FBB6DD80040F1F38185
:1047B0004FF00008DFF89890D9F8003043F4807388
:1047C000C9F80030FCF72CFC8246D9F80030D90536
:1047D00040D5002E40F09781D7F8903013F4407305
:1047E00015D0D4F89820934211D0D7F89030D7F84C
:1047F000902042F48032C7F89020D7F8902023F41C
:10480000407322F48032C7F89020C7F89030DA075E
:1048100009D5FCF705FC41F2883A8146D7F890307B
:104820009B0740F16881D7F89030D4F8982023F4A2
:1048300040731343C7F8903014E0002104F12000C6
:10484000FFF7CAFEA0E73546AAE700BF0010024006
:1048500000700040FCF7E4FBA0EB0A000228B4D98A
:1048600003252E46B8F1000F03D0BB6D23F0805313
:10487000BB652368DF0708D5C049E06BD1F8882005
:1048800022F003020243C1F88820980708D5BB49EB
:10489000206CD1F8882022F00C020243C1F8882055
:1048A000590708D5B549606CD1F8882022F030024C
:1048B0000243C1F888201A0708D5B049A06CD1F886
:1048C000882022F0C0020243C1F88820DF0608D504
:1048D000AA49E06CD1F8882022F440720243C1F862
:1048E0008820980608D5A549206DD1F8882022F4A3
:1048F00040620243C1F88820990508D59F49606E3F
:10490000D1F8882022F440220243C1F888205A05B9
:1049100008D59A49A06ED1F8882022F440120243AB
:10492000C1F888205F0608D59449606DD1F88820C9
:1049300022F440520243C1F88820180608D58F4956
:10494000A06DD1F8882022F440420243C1F88820AB
:10495000D90508D58949E06DD1F8882022F4403284
:104960000243C1F88820DA0208D58449206ED1F8C4
:104970009C2022F003020243C1F89C209F0410D522
:104980007E4A616FD2F8883023F040630B43B1F167
:10499000006FC2F8883040F0B880D36843F48013C9
:1049A000D360236818030FD5A16F744BB1F5804F06
:1049B000D3F89C2040F0B68042F48042C3F89C209B
:1049C000DA6842F48032DA602368590310D56B4A02
:1049D000E16FD2F8883023F040630B43B1F1006FF0
:1049E000C2F8883040F0BD80D36843F48013D360B0
:1049F00023685A0414D56149D4F88020D1F888304E
:104A000023F040531343B2F1805FC1F8883007D1DF
:104A10000221201DFFF758FD0646002818BF054655
:104A20002268D30309D55549D4F88400D1F89C30C5
:104A300023F004030343C1F89C30970209D54F4982
:104A4000D4F88800D1F89C3023F018030343C1F850
:104A50009C3050021FD5494F3B6823F080533B6088
:104A6000FCF7DEFA80463B68990000F18980002E51
:104A700040F08F80D7F89C30D4F88C2023F440335A
:104A80001343C7F89C30022104F12000FFF7A4FD76
:104A9000002818BF054623681A0214D53749D4F8F0
:104AA0009020D1F89C3023F480531343B2F5805FFB
:104AB000C1F89C3007D1012104F12000FFF78CFDE3
:104AC000002818BF05462368DB0110D52B4AD4F80F
:104AD0009410D2F89C3023F440130B43B1F5001F1F
:104AE000C2F89C3003D1D36843F48013D3602846C6
:104AF00002B0BDE8F087FCF793FAA0EB090050453F
:104B00007FF68CAEACE63546ACE6B1F1806F7FF453
:104B100048AF0121201DFFF7D7FC0646002818BF2B
:104B200005463EE722F48042C3F89C20D3F8882053
:104B300022F040620A43B1F1006FC3F8882003D12C
:104B4000DA6842F480123EE7B1F1806F7FF43CAF47
:104B50000121201DFFF7B8FC0646002818BF0546B6
:104B600032E7B1F1806F7FF443AF0121201DFFF7E1
:104B7000ABFC0646002818BF054639E70010024086
:104B8000FCF74EFAA0EB080002287FF66CAF032575
:104B900081E735467FE7BB6D43F08053BB65BB6D56
:104BA00003F080530193019B4FF0010802E600BF20
:104BB0002DE9F04F87B006468846FCF731FA082108
:104BC0008246306802F084FC044640BBB16C306819
:104BD000090402F097FD044608BB30224FF0FF3075
:104BE000082102238DE80F000123694630680494F0
:104BF000059302F05BFC306802F0B3FD044670B927
:104C000005460746834640F22A593068436B13EA4B
:104C1000090F436B07D019071CD50824846320466D
:104C200007B0BDE8F08F1B030BD4BBF1000F08D118
:104C300002F078FB0746306802F074FB4FF0010B7E
:104C40000546FCF7EDF9A0EB0A000130DDD14FF08D
:104C50000044E4E7436B9A0701D50224DEE7436B87
:104C60009B0601D52024D9E7044B83633FBA2DBAB4
:104C7000C8F80470C8F80050D1E700BF3A0F001818
:104C800010B5044668B1032380F83430006802F0A0
:104C900057FB20461BF082F90020A06384F8340003
:104CA00010BD012010BD00002DE9F041044686B082
:104CB00015461E460F4639B9836B43F00063836384
:104CC000012006B0BDE8F08190F83400C0B20128A0
:104CD00058D1D318626D00219342A16304D9A36B0C
:104CE00043F00073A363ECE7032384F834302068B7
:104CF000E36BC1624FEA4628012BA762C4F82C80FF
:104D00004FF4007118BF6D0202F0E2FB48B1236856
:104D10001D4A9A63A36B1843A063012084F83400F2
:104D2000CFE74FF0FF338DE8080190230293049002
:104D30000223059069462068039302F0B7FB2068C0
:104D4000C36B43F49573C363C36843F04003C3600C
:104D500001239E42036587650ED98223236329467A
:104D600002F0E8FB0028ACD02368074A9A63DA6BAC
:104D700022F49572DA63CDE781232363294602F09A
:104D8000C0FBEFE702209CE7FF0FE01F2DE9F04199
:104D9000044686B015461E460F4639B9836B43F06C
:104DA00000638363012006B0BDE8F08190F8340011
:104DB000C0B2012859D1D318626D00219342A1637A
:104DC00004D9A36B43F00073A363ECE7032384F8D7
:104DD00034302068E36BC1624FEA4628012B27621A
:104DE000C4F824804FF4007118BF6D0202F070FB0C
:104DF00048B123681E4A9A63A36B1843A06301203D
:104E000084F83400CFE74FF0FF338DE808010390BA
:104E1000049005904FF0900869462068CDF808800E
:104E200002F044FB2068C36B43F48D73C363C36813
:104E300043F04003C36001239E42036587650ED99A
:104E4000A0232363294602F0A7FB0028ABD02368E8
:104E5000074A9A63DA6B22F48D72DA63CCE7C4F8FE
:104E60003080294602F07FFBEFE702209BE700BF7E
:104E7000FF0FE01F7047000003685A6B70B5D5053F
:104E800004465FD54FF480729A63DA6B22F4414294
:104E900022F03A02DA63DA6B22F08052DA63DA68DF
:104EA00022F04002DA60026B12F0080223D0026B9B
:104EB000900702D4226B910609D5184602F086FBB2
:104EC00028B1A36B1843A0632046FFF7D3FF2368E4
:104ED000594A9A63012384F83430236BDA0703D5E7
:104EE000204617F0D9FA70BD236B9B07F8D42046F3
:104EF00017F0CDFA70BD016B0E0640F190809A62FA
:104F0000DA621A65026BD50709D4184602F05EFB17
:104F100028B1A36B1843A0632046FFF7ABFF012322
:104F200084F83430236BD80602D4236B990602D55B
:104F3000204617F0ACFA236BDA07D1D4236B9B071A
:104F4000CED470BD5A6B56040DD5056A05F1200606
:104F500029462068043502F0E8F9AE42F8D1236A08
:104F60002033236270BD5A6B15040DD5856A2E1F40
:104F70001C35206802F0D6F946F8040FB542F8D186
:104F8000A36A2033A36270BD5A6B12F03A0F5A6BBA
:104F900036D0910742BF826B42F0020282635A6BA5
:104FA000120742BF826B42F0080282635A6B960678
:104FB00042BF826B42F0200282635A6BD50642BF29
:104FC000826B42F0100282631B4A9A63DA6B22F40E
:104FD0009D72DA63026B12F0080206D0012384F896
:104FE00034302046FFF746FF70BD016B080616D52A
:104FF000A16BA1B1D96B21F08051D9631A65EDE79E
:10500000D1000CD51B6D13F0040F036B0BD19A0666
:1050100006D500F072FB23684FF080529A6370BD92
:1050200000F069FBF7E79B0602D500F065FBF2E7AD
:1050300000F060FBEFE700BF3A0F0018036E9A0F15
:105040000A70C3F383624A70C3F301628A70C3F3C8
:105050000742CA70C3F30722DBB20A714B71436E79
:105060001A0E1201CA80CA8830B592B2C3F3035433
:105070002243CA80C3F303420A72C3F30722D4094E
:105080004C72C2F380148C72C2F34014CC72C2F31F
:1050900000140C7300244C73C46B002C40F083800C
:1050A000920202F440620A610A699B0003F47F7372
:1050B00013430B61826E0B6943EA92730B61C2F377
:1050C000C2630B75C2F302634B75C2F342538B7517
:1050D000C2F38243CB75D30B03F006030B760C7E31
:1050E000C2F30723C2F3C03222430A760A690C7E58
:1050F00001320234A240C2640D7A0124AC4004653E
:10510000640A624342654FF400728265C3F3801201
:105110005B0003F07E034A768B76836E8A7EC3F350
:10512000C014224303F07F038A76CB76C36EDA0F76
:105130000A77C3F341724A77C3F382628A779A0D82
:1051400002F00C02CA77CA7FC3F381500243CA77C8
:10515000C3F3405281F820200020C3F3004281F8BD
:10516000210081F82220C3F3C03281F82320C3F349
:10517000803281F82420C3F3403281F82520C3F324
:10518000003281F82620C3F3812281F82720C3F35F
:105190000122C3F3460381F8282081F82930012336
:1051A00081F82A3030BD012C1AD11B0403F47C1382
:1051B0000B61836E0A691C0E42EA04220A610C69C3
:1051C000C3F3074222430A610A69920202F5806230
:1051D000C26442654FF40072C3F30723026594E78B
:1051E0000368054A9A63836B43F08053836301230A
:1051F00080F83430184630BDFF0FE01FF0B599B08D
:1052000000230793089309930A933C230B93836924
:10521000012B01BF0268136843F0040313600AAB5B
:10522000044693E807008DE8070007AB0ECB206823
:1052300002F05EF8002840F0E980206802F07AF879
:105240000546002840F0E2800220FBF7EFFE2068D0
:10525000069502F0EFF958B9206802F015FA70B11E
:1052600025640021206802F04DFA58B14FF08050BB
:10527000012584F83450A36B1843A06398E0012300
:105280002364EEE7624F4FF6FE76069BB34215D8D5
:105290000021206802F036FA0028E9D1394620685A
:1052A00002F049FA01460028E0D1206802F064F8D3
:1052B000069B002803F101030693E6DA069A4FF6EF
:1052C000FE739A4202D94FF08070D1E7430032D585
:1052D0000123E363A369012B2DD1C7012BD52068DE
:1052E0004FF40073E365036843F00303036002F0C7
:1052F00007FB0028BCD123685A6B5601FCD54FF040
:1053000080629A635B6BD802B0D5012000F065F92A
:1053100023681A6842F002021A605A6B9101FCD5A8
:105320004FF000729A635A6BD202CCD413221A60E7
:105330004FF0FF329A6301232068ADF8163002F077
:1053400005F810B94FF080603CE0E36B032B18D0F8
:10535000206802F01FFA002834D10146206802F0CC
:105360000BF804212067206802F006F80821606726
:10537000206802F001F80C21A067206801F0FCFF12
:10538000E067E36B032B16D1E36B032B20D10421E1
:10539000206801F0F1FF000D60640DA92046FFF7C1
:1053A0004DFEA26C20681204002302F029F948B9CE
:1053B000284619B0F0BD0DF11601206802F016FA6A
:1053C0000028E1D0012584F83450A16B084354E74C
:1053D000BDF81610A1642068090402F0F1F9002854
:1053E000F0D10146206801F0C7FF04212066206843
:1053F00001F0C2FF08216066206801F0BDFF0C21AA
:10540000A066206801F0B8FFE066C0E70125CFE79D
:10541000000010C1C36B0B60036C4B60436C8B606E
:10542000836CCB60C36C0B61036D4B61436D8B610F
:10543000836DCB610020704770B5032380F8343052
:10544000C36B032B8AB004460E4602D0B1F5004F61
:1054500003D1A36B43F0805356E0B1F5804F2DD1BB
:10546000002100680491059101F086FF80011FD49E
:1054700004A92046FFF79CFB60B9059B59031AD588
:10548000A16C2068090402F03DF918B902212068D6
:1054900002F034FAA36B1843A063A56B002D35D03E
:1054A0002368264A9A63012084F834000AB070BD4C
:1054B0004FF40060EEE74FF08060EBE709BB006857
:1054C0000491059101F058FF820114D404A92046EB
:1054D000FFF76EFB60B9059BDB030FD5A16C20685D
:1054E000090402F00FF918B90146206802F006FA23
:1054F000A16B0843D0E74FF40060F9E74FF08060FC
:10550000F6E7836B43F00063A363C6E76368049325
:10551000A368059323690793636908930AAB13E9AA
:1055200007008DE80700069604AB0ECB206801F05B
:10553000DFFE012384F834302846B7E7FF0FE01F71
:1055400038B5044610B90125284638BD90F83430E6
:1055500003F0FF0213B902771AF0D0FC032384F89A
:1055600034302046FFF74AFE0028ECD1E16820469F
:10557000FFF762FF05460028E5D1A369012B06D09D
:105580000023A3632363012384F83430DCE7E36D55
:10559000B3F5007F02D0E36B012BF1D12268536891
:1055A00043F480135360204600F018F80028E7D039
:1055B000C9E7816C10B509040446006802F06CF973
:1055C000014628B9206801F0D7FEC0F3432010BD82
:1055D000A36B1943A1630020F7E770472DE9F0475B
:1055E000402696B005463246002106A81BF007F873
:1055F000FBF716FDEB6D8046002B74D0B3F5007FF2
:1056000004D00024204616B0BDE8F087AF69012F12
:10561000F7D128680023C362314601F059FF0446E0
:105620000028EFD14FF0FF338DE84800602302934C
:1056300004900223694628680393059701F036FF1A
:105640002A49286802F041F904460028DAD106AE5A
:1056500040F22A592B685A6B12EA090F05D05A6B8F
:1056600010071ED508229A63CCE75B6B1F040AD58E
:10567000371F06F11C0A286801F054FE47F8040F92
:105680005745F8D12036FBF7CBFCA0EB08000130E2
:10569000E0D14FF00043AB63012385F8343003249D
:1056A000B0E75A6B910702D502249C63AAE75A6BB4
:1056B000920601D52024F8E70D4A9A639DF825301B
:1056C0009B0702D50120FFF788FF4FF4007128687F
:1056D00001F0FEFE002894D0012485F83440AB6B25
:1056E0001843A8638EE74FF080648BE701FFFF80CB
:1056F0003A0F0018704770477047704770B50446FE
:1057000000284AD00023836290F85D3003F0FF0246
:105710001BB980F85C201AF00DFA0223216884F886
:105720005D300B68E26823F04003B2F5E06F0B6078
:105730004FF000032ED91846B2F5706F18BFA36260
:10574000236B2BB9B2F5E06F8CBF022301232363D7
:10575000A6686368A56933432669334366693343A2
:10576000E6693343266A3343A66A334305F4007679
:1057700033430B60636A1A43636B2D0C1A4305F0C5
:1057800004052A430243012300204A60206684F86E
:105790005D3070BD4FF48050D0E7012070BD2DE921
:1057A000F8431D4690F85C30DDF82080012B04465C
:1057B0000E4617467DD0012380F85C30FBF730FCA5
:1057C00094F85D302268A4F84450042B1CBF0523D4
:1057D00084F85D3000232366A4F84650E5872365EE
:1057E0005368A58723F480532764A66381465360DA
:1057F0000125E38F9BB25BB9B4F8460080B238B99B
:10580000012384F85D30002384F85C30BDE8F88320
:1058100095B1E38F9BB27BB123689A6891070BD552
:10582000E28F92B2012A32D936F8022BDA60E38F86
:10583000023B9BB2E3870025B4F846309BB2DBB154
:1058400023689A68D20717D5B4F8462092B2012A85
:1058500025D9DA6827F8022BB4F84620023A92B22A
:10586000A4F84620B4F8462092B2012A03D85A6818
:1058700042F480525A600125B8F1FF3FB9D0FBF7DE
:10588000CFFBA0EB09008045B3D80320B8E73278FE
:105890001A73E38F013B9BB2E3870136CBE71B7B97
:1058A0003B70B4F84630013B9BB2A4F84630013758
:1058B000E1E70220BDE8F88370470000036830B5D7
:1058C00059689A6802F04105012D85B0044605D15A
:1058D0004D0603D5C36C984705B030BD950704D578
:1058E000080602D5236D2046F5E712F4B07FF3D009
:1058F0008D06F1D550060FD594F85D0003284FF0C2
:10590000000541D0206E40F0040020660095D86864
:10591000009098680090009895060CD5206E40F095
:10592000010020660020029098680290186820F01C
:10593000400018600298D00508D5226E42F0080297
:105940002266002203929A680392039A226E002A2A
:10595000C2D05A6822F0E0025A60012284F85D2029
:105960008A0718D05A68A06D22F003025A6018B155
:105970000B4B8363FCF7F3F8606D0028ACD0084B49
:105980008363FCF7ECF8A7E70195DA6801929B685E
:105990000193019BA0E72046FFF78EFF9CE700BF25
:1059A000A559000808B5806A0023A0F84630C387CF
:1059B000FFF782FF08BD0000036A23F001030362C2
:1059C000036A70B5446882690D6822F4803222F05F
:1059D00073022A438D6823F002032B431B4DA84218
:1059E0000FD005F50065A8420BD005F54065A8422B
:1059F00007D005F58065A84203D005F58065A8426B
:105A00001ED1CD6823F008032B43104DA84223F08C
:105A100004030FD005F50065A8420BD005F54065DD
:105A2000A84207D005F58065A84203D005F580653A
:105A3000A84205D124F440758E694C6934432C4347
:105A4000446082614A684263036270BD002C014079
:105A5000036A23F480730362036A70B54468C26901
:105A60000D6822F4803222F073022A438D6823F4F9
:105A7000007343EA0523164DA84203D005F50065DF
:105A8000A8420DD1CD6823F4006343EA0523104DED
:105A9000A84223F480630ED005F50065A8420AD021
:105AA0000C4DA84207D005F58065A84203D005F546
:105AB0008065A84206D124F440558E694C69344370
:105AC00045EA04144460C2614A68C263036270BD5F
:105AD000002C014000400140036A23F4805303621C
