:020000040800F2
:1000000000000A20CD220108CD1D0108CF1D0108E6
:10001000D11D0108D31D0108D51D010800000000F5
:10002000000000000000000000000000D71D0108D3
:10003000D91D010800000000DB1D0108DD1D0108BD
:100040001D2301081D2301081D2301081D2301088C
:100050001D2301081D2301081D2301081D2301087C
:100060001D230108E11701081D2301081D230108B4
:100070001D2301081D2301081D2301081D2301085C
:100080001D2301081D2301081D2301081D2301084C
:100090001D2301081D2301081D2301081D2301083C
:1000A0001D2301081D2301081D2301081D2301082C
:1000B0009D1701081D230108551701081D2301087C
:1000C0001D2301081D2301081D2301081D2301080C
:1000D0001D2301081D2301081D2301081D230108FC
:1000E0001D2301081D2301081D2301081D230108EC
:1000F0001D2301081D2301081D2301080000000025
:100100001D2301081D2301081D2301081D230108CB
:100110001D2301081D230108791701081D2301086B
:100120001D2301081D2301081D2301081D230108AB
:100130001D2301081D2301081D2301081D2301089B
:100140001D2301081D2301081D230108E11D0108CD
:100150001D2301081D2301081D2301081D2301087B
:100160001D2301081D2301081D2301081D2301086B
:100170001D2301081D2301081D23010800000000A4
:100180001D2301081D2301081D2301081D2301084B
:100190001D2301081D2301080000000000000000CD
:1001A00000000000000000001D2301081D230108BD
:0C01B0001D2301081D2301081D23010868
:1001C00010B5054C237833B9044B13B10448AFF391
:1001D00000800123237010BD800200200000000079
:1001E000B02B010808B5034B1BB103490348AFF31B
:1001F000008008BD0000000084020020B02B010830
:1002000001F0FF01102A2BDB10F0070F08D010F8C7
:10021000013B013A8B422DD010F0070F42B3F6D1CB
:10022000F0B441EA012141EA014122F007047FF0E4
:1002300000070023F0E80256083C85EA010586EA3B
:10024000010685FA47F5A3FA87F586FA47F6A5FA77
:1002500087F68EB9EED1F0BC01F0FF0102F0070283
:1002600032B110F8013B013A83EA010313B1F8D12E
:100270000020704701387047002D06BF354603380F
:10028000073815F0010F07D1013015F4807F02BF48
:10029000013015F4C03F0130F0BC0138704700BF99
:1002A00081F0004102E000BF83F0004330B54FEA27
:1002B00041044FEA430594EA050F08BF90EA020F94
:1002C0001FBF54EA000C55EA020C7FEA645C7FEA27
:1002D000655C00F0E2804FEA5454D4EB5555B8BF4A
:1002E0006D420CDD2C4480EA020281EA030382EABB
:1002F000000083EA010180EA020281EA0303362D4D
:1003000088BF30BD11F0004F4FEA01314FF4801C1F
:100310004CEA113102D0404261EB410113F0004F31
:100320004FEA03334CEA133302D0524263EB4303E8
:1003300094EA050F00F0A780A4F10104D5F1200E86
:100340000DDB02FA0EFC22FA05F2801841F10001E1
:1003500003FA0EF2801843FA05F359410EE0A5F1B5
:1003600020050EF1200E012A03FA0EFC28BF4CF0E6
:10037000020C43FA05F3C01851EBE37101F000459C
:1003800007D54FF0000EDCF1000C7EEB00006EEBA9
:100390000101B1F5801F1BD3B1F5001F0CD3490833
:1003A0005FEA30004FEA3C0C04F101044FEA44528A
:1003B00012F5800F80F09A80BCF1004F08BF5FEA11
:1003C000500C50F1000041EB045141EA050130BDF1
:1003D0005FEA4C0C404141EB010111F4801FA4F194
:1003E0000104E9D191F0000F04BF01460020B1FAE9
:1003F00081F308BF2033A3F10B03B3F120020CDA21
:100400000C3208DD02F1140CC2F10C0201FA0CF0FE
:1004100021FA02F10CE002F11402D8BFC2F1200C63
:1004200001FA02F120FA0CFCDCBF41EA0C01904019
:10043000E41AA2BF01EB0451294330BD6FEA040462
:100440001F3C1CDA0C340EDC04F11404C4F120024D
:1004500020FA04F001FA02F340EA030021FA04F35F
:1004600045EA030130BDC4F10C04C4F1200220FAB6
:1004700002F001FA04F340EA0300294630BD21FAF4
:1004800004F0294630BD94F0000F83F4801306BFBA
:1004900081F480110134013D4EE77FEA645C18BFAE
:1004A0007FEA655C29D094EA050F08BF90EA020F45
:1004B00005D054EA000C04BF1946104630BD91EA3D
:1004C000030F1EBF0021002030BD5FEA545C05D140
:1004D0004000494128BF41F0004130BD14F580047F
:1004E0003CBF01F5801130BD01F0004545F0FE41F3
:1004F00041F470014FF0000030BD7FEA645C1ABF28
:10050000194610467FEA655C1CBF0B46024650EA5E
:10051000013406BF52EA033591EA030F41F400218A
:1005200030BD00BF90F0000F04BF0021704730B510
:100530004FF4806404F132044FF000054FF00001E5
:1005400050E700BF90F0000F04BF0021704730B5A6
:100550004FF4806404F1320410F0004548BF40427B
:100560004FF000013EE700BF42004FEAE2014FEAD0
:1005700031014FEA02701FBF12F07F4393F07F4FAB
:1005800081F06051704792F0000F14BF93F07F4FDD
:10059000704730B54FF4607401F0004521F0004120
:1005A00020E700BF50EA010208BF704730B54FF0A6
:1005B00000050AE050EA010208BF704730B511F0AB
:1005C000004502D5404261EB41014FF4806404F1E3
:1005D00032045FEA915C3FF4DCAE4FF003025FEA65
:1005E000DC0C18BF03325FEADC0C18BF033202EBED
:1005F000DC02C2F1200300FA03FC20FA02F001FA47
:1006000003FE40EA0E0021FA02F11444C1E600BFE5
:1006100070B54FF0FF0C4CF4E06C1CEA11541DBF98
:100620001CEA135594EA0C0F95EA0C0F00F0DEF863
:100630002C4481EA030621EA4C5123EA4C5350EA48
:10064000013518BF52EA033541F4801143F4801399
:1006500038D0A0FB02CE4FF00005E1FB02E506F02A
:100660000042E0FB03E54FF00006E1FB03569CF07F
:10067000000F18BF4EF0010EA4F1FF04B6F5007F85
:1006800064F5407404D25FEA4E0E6D4146EB0606F7
:1006900042EAC62141EA55514FEAC52040EA5E5080
:1006A0004FEACE2EB4F1FD0C88BFBCF5E06F1ED82A
:1006B000BEF1004F08BF5FEA500E50F1000041EB61
:1006C000045170BD06F0004646EA010140EA02000E
:1006D00081EA0301B4EB5C04C2BFD4EB0C0541EA30
:1006E000045170BD41F480114FF0000E013C00F345
:1006F000AB8014F1360FDEBF002001F0004170BD69
:10070000C4F10004203C35DA0C341BDC04F1140481
:10071000C4F1200500FA05F320FA04F001FA05F20D
:1007200040EA020001F0004221F0004110EBD370DA
:1007300021FA04F642EB06015EEA430E08BF20EA06
:10074000D37070BDC4F10C04C4F1200500FA04F3A9
:1007500020FA05F001FA04F240EA020001F000413B
:1007600010EBD37041F100015EEA430E08BF20EAAE
:10077000D37070BDC4F1200500FA05F24EEA020EF6
:1007800020FA04F301FA05F243EA020321FA04F025
:1007900001F0004121FA04F220EA020000EBD370DC
:1007A0005EEA430E08BF20EAD37070BD94F0000FDC
:1007B0000FD101F00046400041EB010111F4801F10
:1007C00008BF013CF7D041EA060195F0000F18BFC1
:1007D000704703F00046520043EB030313F4801FFD
:1007E00008BF013DF7D043EA0603704794EA0C0FB7
:1007F0000CEA135518BF95EA0C0F0CD050EA4106CD
:1008000018BF52EA4306D1D181EA030101F0004149
:100810004FF0000070BD50EA410606BF1046194671
:1008200052EA430619D094EA0C0F02D150EA01367D
:1008300013D195EA0C0F05D152EA03361CBF1046BE
:1008400019460AD181EA030101F0004141F0FE415D
:1008500041F470014FF0000070BD41F0FE4141F4E1
:10086000780170BD70B54FF0FF0C4CF4E06C1CEAE1
:1008700011541DBF1CEA135594EA0C0F95EA0C0F96
:1008800000F0A7F8A4EB050481EA030E52EA033551
:100890004FEA013100F088804FEA03334FF0805572
:1008A00045EA131343EA12634FEA022245EA11159F
:1008B00045EA10654FEA00260EF000419D4208BF50
:1008C000964244F1FD0404F5407402D25B084FEAFD
:1008D0003202B61A65EB03055B084FEA32024FF4A9
:1008E00080104FF4002CB6EB020E75EB030E22BF06
:1008F000B61A754640EA0C005B084FEA3202B6EBC6
:10090000020E75EB030E22BFB61A754640EA5C0074
:100910005B084FEA3202B6EB020E75EB030E22BF04
:10092000B61A754640EA9C005B084FEA3202B6EB05
:10093000020E75EB030E22BFB61A754640EADC00C4
:1009400055EA060E18D04FEA051545EA16754FEA26
:1009500006164FEAC30343EA52734FEAC2025FEA44
:100960001C1CC0D111F4801F0BD141EA00014FF0D3
:1009700000004FF0004CB6E711F4801F04BF0143A4
:100980000020B4F1FD0C88BFBCF5E06F3FF6AFAEC0
:10099000B5EB030C04BFB6EB020C5FEA500C50F150
:1009A000000041EB045170BD0EF0004E4EEA1131D3
:1009B00014EB5C04C2BFD4EB0C0541EA045170BDDA
:1009C00041F480114FF0000E013C90E645EA060E1E
:1009D0008DE60CEA135594EA0C0F08BF95EA0C0F4C
:1009E0003FF43BAF94EA0C0F0AD150EA01347FF494
:1009F00034AF95EA0C0F7FF425AF104619462CE76B
:100A000095EA0C0F06D152EA03353FF4FDAE1046CD
:100A1000194622E750EA410618BF52EA43067FF41E
:100A2000C5AE50EA41047FF40DAF52EA43057FF4AE
:100A3000EBAE12E74FF0FF3C06E000BF4FF0010CB9
:100A400002E000BF4FF0010C4DF804CD4FEA410C1D
:100A50007FEA6C5C4FEA430C18BF7FEA6C5C1BD0EA
:100A600001B050EA410C0CBF52EA430C91EA030F6B
:100A700002BF90EA020F0020704710F1000F91EAC8
:100A8000030F58BF994208BF90422CBFD8176FEA96
:100A9000E37040F0010070474FEA410C7FEA6C5C64
:100AA00002D150EA013C07D14FEA430C7FEA6C5C6B
:100AB000D6D152EA033CD3D05DF8040B704700BF97
:100AC0008446104662468C461946634600E000BFE5
:100AD00001B5FFF7B7FF002848BF10F1000F01BDB7
:100AE0004DF808EDFFF7F4FF0CBF012000205DF882
:100AF00008FB00BF4DF808EDFFF7EAFF34BF012007
:100B000000205DF808FB00BF4DF808EDFFF7E0FF9F
:100B100094BF012000205DF808FB00BF4DF808EDF0
:100B2000FFF7CEFF94BF012000205DF808FB00BF57
:100B30004DF808EDFFF7C4FF34BF012000205DF839
:100B400008FB00BF4FEA410212F5001215D211D581
:100B50006FF47873B3EB625212D94FEAC12343F0BA
:100B6000004343EA505311F0004F23FA02F018BF3C
:100B7000404270474FF00000704750EA013005D105
:100B800011F0004008BF6FF0004070474FF00000C8
:100B9000704700BF4FEA4102B2F1E04324BFB3F512
:100BA000001CDCF1FE5C0DD901F0004C4FEAC002E4
:100BB0004CEA5070B2F1004F40EB830008BF20F0C8
:100BC0000100704711F0804F21D113F13872BCBF82
:100BD00001F00040704741F480114FEA5252C2F1D7
:100BE0001802C2F1200C10FA0CF320FA02F018BF20
:100BF00040F001004FEAC1234FEAD32303FA0CFC73
:100C000040EA0C0023FA02F34FEA4303CCE77FEA01
:100C1000625307D150EA01331EBF4FF0FE4040F44B
:100C20004000704701F0004040F0FE4040F40000FA
:100C3000704700BF53B94AB9002908BF00281CBF3C
:100C40004FF0FF314FF0FF3000F07AB9ADF1080CF2
:100C50006DE904CE00F006F8DDF804E0DDE90223DA
:100C600004B070472DE9F0478C460D460446089EB7
:100C7000002B51D18A4217466DD9B2FA82FEBEF1DD
:100C8000000F0BD0CEF1200C01FA0EF520FA0CFC6F
:100C900002FA0EF74CEA050C00FA0EF44FEA174A76
:100CA000250CBCFBFAF81FFA87F90AFB18CC45EAB9
:100CB0000C4508FB09F3AB420AD9ED1908F1FF32E4
:100CC00080F02381AB4240F22081A8F102083D442C
:100CD000ED1AA4B2B5FBFAF00AFB105544EA05443C
:100CE00000FB09F9A14509D9E41900F1FF3380F0AF
:100CF0000A81A14540F2078102383C44A4EB090473
:100D000040EA08400021002E61D024FA0EF40023AE
:100D100034607360BDE8F0878B4207D9002E54D051
:100D2000002186E821000846BDE8F087B3FA83F188
:100D3000002940F08E80AB4202D3824200F2FA805A
:100D4000841A65EB03050120AC46002E3FD086E8EF
:100D50001010BDE8F08712B90127B7FBF2F7B7FA18
:100D600087FEBEF1000F34D1EB1B3A0C1FFA87FC53
:100D70000121B3FBF2F8250C02FB183345EA0345C9
:100D80000CFB08F3AB4207D9ED1908F1FF3002D292
:100D9000AB4200F2D1808046ED1AA3B2B5FBF2F06F
:100DA00002FB105543EA05440CFB00FCA44507D99F
:100DB000E41900F1FF3302D2A44500F2B8801846CE
:100DC000A4EB0C0440EA08409DE731463046BDE8FC
:100DD000F087CEF1200405FA0EF307FA0EF720FA99
:100DE00004F83A0C25FA04F448EA0308B4FBF2F1DB
:100DF0004FEA184502FB11441FFA87FC45EA0445F7
:100E000001FB0CF3AB4200FA0EF409D9ED1901F124
:100E1000FF3080F08A80AB4240F2878002393D4447
:100E2000EB1A1FFA88F5B3FBF2F002FB103345EA28
:100E3000034500FB0CF3AB4207D9ED1900F1FF3875
:100E40006FD2AB426DD902383D44EB1A40EA014102
:100E50008FE7C1F1200722FA07F88B4005FA01F469
:100E600048EA030320FA07FE4FEA134CFD404EEA1E
:100E7000040EB5FBFCF94FEA1E440CFB19551FFA92
:100E800083F844EA054509FB08F4AC4202FA01F292
:100E900000FA01FA08D9ED1809F1FF3043D2AC424B
:100EA00041D9A9F102091D442D1B1FFA8EFEB5FB85
:100EB000FCF00CFB10554EEA054400FB08F8A04579
:100EC00007D9E41800F1FF3529D2A04527D9023807
:100ED0001C4440EA0940A4EB0804A0FB02894C45ED
:100EE000C6464D4615D312D056B1BAEB0E0364EB8D
:100EF000050404FA07F7CB401F43CC403760746009
:100F00000021BDE8F0871846F8E69046E0E6C245C5
:100F1000EAD2B8EB020E69EB03050138E4E7284694
:100F2000D7E7404691E78146BEE7014678E70238B9
:100F30003C4445E7084608E7A8F102083D442BE792
:100F4000704700BF38B50A4B054618684FF47A73EE
:100F5000B0FBF3F000F034FD044638B902462946F0
:100F60004FF0FF3000F0DEFC204638BD012038BDD8
:100F7000A001002010B5032000F0C2FC0020FFF704
:100F8000E1FF044618B910F0E7FC204610BD01242B
:100F9000FBE70000024A136801331360704700BF8B
:100FA000844B0820014B1868704700BF844B082011
:100FB00038B50446FFF7F6FF631C054618BF013439
:100FC000FFF7F0FF401B8442FAD838BD70B54FF0F0
:100FD000007696FAA6F6B6FA86F301F00076DE40C1
:100FE000143001F0F8714FF0F87393FAA3F5B5FAE5
:100FF00085F593FAA3F3072421FA05F504FA05F51C
:10100000B3FA83F350F82640D94024EA050402FAE3
:1010100001F1214340F8261070BD000037B50023D0
:1010200001930446002800F0B480C56D25B910F086
:10103000BBFD256684F8585023689A68900041BF2C
:101040009A6822F0204222F03F029A609A68D1000A
:1010500076D59A68D20040F18A800020E26DD506EC
:1010600000F193809A68510700F18F80E26D22F4BD
:10107000817242F00202E2659A6802F00302012ADC
:1010800040F089801A68D20740F18580E568A26B3C
:10109000616A2A43A5682A43E569012942EA453283
:1010A00042EA014202BFA16A01F1FF3142EA414234
:1010B000E16A21B1256B01F4707129430A43DD68AF
:1010C000394929400A43DA609A6812F00C0F20D19E
:1010D000626BA569D968520042EA8532256D21F418
:1010E00080412A4321F006010A43DA60E26B012ABB
:1010F00047D1656C226C19692A43A56C42F0010244
:101100002A43E56C21F4FF612A4321F004010A43DC
:101110001A612269012A05BF196B226A1A6B02F152
:10112000FF3206BF21F00F010A4322F00F021A63BB
:10113000E36D23F0030343F00103E36503B030BD27
:101140009A681A4922F0104222F03F0242F080527F
:101150009A60174A1268B2FBF1F10A224A430192DF
:10116000019A002A3FF475AF019A013AF7E7E26D60
:1011700042F01002E265226E42F001022266012076
:101180006CE71A6922F00102C2E7E36D43F0100335
:10119000E3650120D2E7074965688A6822F47C127A
:1011A0002A438A6072E700BF07C0F0FF80841E00F8
:1011B000A001002000030450F8B54569082D04463D
:1011C0000E460AD00368DB68DD0705D5C36D43F022
:1011D0002003C3650120F8BD0425FFF7E3FE0746A1
:1011E00023681A6815421DD0E26D42F40072E26570
:1011F000DA6812F4406F0FD1E2696AB91A68110710
:101200000AD5E26D22F48072E265E26DD2045EBF1F
:10121000E26D42F00102E265082DD86814D11D602C
:101220000020F8BD701CDCD046B9E36D43F0040328
:10123000E365002384F858300320F8BDFFF7B2FEC1
:10124000C01B8642CCD2F0E710F48040E8D10C22DB
:101250001A60F8BD0368186C70470000F7B50023EA
:10126000019390F85830012B05460C4600F0688138
:10127000012380F8583000688268570700F15A81CE
:101280004B68052B08D8023B032B64D8DFE803F03A
:10129000025C5E600C23636061684FF4407393FAF4
:1012A000A3F3B3FA83F301F44076DE4000F1300794
:1012B00001F01F011F2303FA01F257F8263023EA39
:1012C00002032268C2F384628A40134347F826303F
:1012D000826812F00C0226D1A368B3F1004F3CD112
:1012E0002168FFF773FE2A68536943F00043536196
:1012F0002669D5F800E02368DEF80C10042E0EF104
:10130000600233D0C1F3C1014800616903F0F843C2
:10131000814043F00043194352F82600C54B034077
:10132000194342F826102868836803F00303012B51
:1013300040F008810368DE0740F1048100200023AB
:1013400085F8583003B0F0BD1223A4E71823A2E7B4
:101350004FF480739FE706239DE71A462168FFF745
:1013600035FE2A68536923F00043C0E7DEF86010B9
:10137000C3F31200C1F384670EF1640600283AD16A
:10138000C3F38460874240F0498121F00041CEF8E8
:1013900060102368DEF86410C3F31207C1F38460A1
:1013A0009FBBC3F38463834240F03D8121F0004141
:1013B000316023689168C3F3120702F10806C1F394
:1013C000846077BBC3F38463834240F0478121F09C
:1013D00000413160236802F10C00D268C3F31206A9
:1013E000C2F384614EBBC3F384638B4204BF22F01B
:1013F0000042026097E793FAA3F0B0FA80F08742C8
:10140000C3D0DEF86410C1F3846093FAA3F3B3FA97
:1014100083F38342CAD09168236802F10806C1F3BE
:10142000846093FAA3F3B3FA83F38342CFD002F13B
:101430000C00D2682368C2F3846193FAA3F3B3FA71
:1014400083F3D2E793FAA3F2B2FA82F20132092AC5
:101450000DD993FAA3F2B2FA82F20132960693FA08
:10146000A3F1B1FA81F14A1C0121914016E093FAEF
:10147000A3F2B2FA82F20132920693FAA3F1B1FA20
:1014800081F14E1C0121B1407FE093FAA3F1B1FA42
:1014900081F1013180E0164601FA0EF141EA0602BF
:1014A0004FB9C3F3846303EB4303A3F11B010905A5
:1014B00041F0007173E093FAA3F3B3FA83F3F2E718
:1014C0005D4B9A4204D15D4B9B6813F0807F72E0C4
:1014D0005B4B9A427FF432AF584B9B6813F4800FFA
:1014E00069E055498A4211D1564A93427FF426AFAA
:1014F000D2F80813D2F8083301F0E07123F0E0735A
:101500000B4343F08073C2F8083317E74C498A4213
:101510007FF414AF4B4A93427FF410AFD2F8081314
:10152000D2F8083301F0E07123F0E0730B4343F489
:101530008003E8E7EA6D42F02002EA651846FEE61D
:101540000220FFE6E168404AD0F8B060236801F06D
:10155000200E02FA0EF2C3F3120772403A407240B4
:10156000C0F8B020394A91421DD1002F7FF46AAFF4
:10157000C3F3846101F1010EBEF1090F4FF00101C7
:101580004FEA8E6287D801FA0EF10A43002F7FF4EA
:101590007CAFC3F38463591C01EB4101090511437E
:1015A000A268FFF713FD2268294B9A4288D1234B8A
:1015B0009B6813F4000F7FF4C1AE2B68986800F0AD
:1015C0000300012802D11968C90722D420498A42A0
:1015D00087D11C4A93427FF4B1AED2F80813D2F8F7
:1015E000083301F0E07123F0E0730B4343F4000390
:1015F000C2F80833174B184A1B68B3FBF2F2782382
:1016000053430193019B002B3FF498AE019B013B98
:10161000F7E7EB6D43F02003EB6590E6DEF864102E
:10162000C1F38460BDE69168236802F10806C1F346
:101630008460C7E600F0FF03000084CB0003045081
:101640000100008000000450FFFF070000007F4001
:10165000000052C7A001002080841E0002F10C008F
:10166000D2682368C2F38461BDE600BF03689A684C
:1016700012F00C0F70B5044601D1002070BDDA687D
:1016800090012AD5E269012A27D1A269012A24D131
:10169000224A1968490614D540221A6001219A6825
:1016A00056070AD59A68950707D49A6822F000422F
:1016B00022F03F0242F010029A6001290FD1042566
:1016C0001EE0013AE5D1E36D43F01003E365236EBC
:1016D00043F001032366012070BD0229DFD19A681F
:1016E000100706D59A6892075EBF9A6842F02002FA
:1016F0009A60022903D00329E1D10C2500E00825D6
:10170000FFF750FC064623689B681D42B5D0FFF7E3
:1017100049FC801B0528F6D9D5E700BF0100340A33
:1017200073B5002302680193936803F00303012B50
:10173000044608D11368D80705D5002002B070BD53
:10174000019B013B12E091681A4B194227D1936823
:1017500023F0004323F03F0343F001039360164B53
:10176000164A1B68B3FBF2F20A2353430193019B11
:10177000002BE5D1FFF716FC114E054622681368D1
:10178000DB07DAD49368D9075FBF9368334043F02F
:1017900001039360FFF706FC401B0228EED9E36DBE
:1017A00043F01003E365236E43F001032366012039
:1017B000C4E700BF3F000080A001002080841E001D
:1017C000C0FFFF7F38B503689D6815F00405044627
:1017D0003AD190F85830012B36D0012380F8583098
:1017E000FFF79EFF00282CD1E36D23F4706323F0F4
:1017F000010343F48073E365E36D23F48013E36531
:10180000E36DDA0448BF236E226852BF206623F0DE
:10181000060323661C231360002384F85830D36822
:101820009B0141BFE36D23F4405343F48053E365D0
:10183000936823F0004323F03F0343F004039360D5
:1018400038BD84F8585038BD022038BD026838B51C
:101850000446906800F00300012801D0002038BD44
:101860001368D907FAD5936803F00D03012B1FD134
:10187000936823F0004323F03F0343F00203936097
:1018800003231360FFF78EFB054623689B68DB0785
:10189000E4D5FFF787FB401B0228F6D9E36D43F040
:1018A0001003E365236E43F001032366012038BD76
:1018B000E36D43F01003E365236E43F001032366F9
:1018C00038BD90F85830012B10B5044616D00123CE
:1018D00080F858300321FFF7C9FE58B92046FFF7BA
:1018E000B5FF38B9E36D23F4885323F0010343F0C7
:1018F0000103E365002384F8583010BD022010BDB9
:10190000074AD36823F4E0631B041B0C43F0BF6356
:10191000000243F4003300F4E0600343D3607047F7
:1019200000ED00E0174B30B5DC68C4F30224C4F1CD
:101930000703251D042B28BF0423062D4FF00105A6
:1019400005FA03F303F1FF338CBF033C0024194075
:10195000A14005FA04F4013C2240002842EA0102B9
:101960004FEA0212AFBF00F1604000F00F00064BDB
:10197000D2B2A5BF00F56140D2B21A5480F800235C
:1019800030BD00BF00ED00E014ED00E0420901238E
:1019900000F01F0003FA00F0014B43F822007047EB
:1019A00000E100E04309012200F01F0002FA00F00C
:1019B0002033024A42F82300704700BF00E100E0F4
:1019C0000138B0F1807F0AD2064B074A5860F021F7
:1019D00082F823100020072298601A6070470120C7
:1019E000704700BF10E000E000ED00E04309012275
:1019F00000F01F0002FA00F06033024A42F82300B0
:101A0000704700BF00E100E0044B1A6804280CBFD7
:101A100042F0040222F004021A60704710E000E075
:101A2000F0B505680A4E6C6C96FAA6F6059FB6FAF4
:101A300086F604F040443C43B34023436B64436860
:101A4000EA63B3F5403F0CBFA963E960F0BD00BF96
:101A50000000FF3F38B50446002843D090F85930C5
:101A600003F0FF021BB980F8582010F059F9022347
:101A700084F859302368E0691968626821F4E0212C
:101A8000024321F040010A431A60596BA268A06921
:101A900021F48371024321F001010A435A631A6C55
:101AA000E168120C12040A431A645D6B4FF4801251
:101AB00092FAA2F24FF40011B2FA82F091FAA1F177
:101AC000226982406069B1FA81F100FA01F10A43AA
:101AD00025F440110A435A6300200123E06584F88D
:101AE000593038BD012038BD73B590F85840012CED
:101AF0004FF002040FD080F859400126069C80F870
:101B000058600094FFF78CFF02681368334313603A
:101B1000002002B070BD2046FBE773B5002301939F
:101B200003681B68DB0704460D4627D42368DA697F
:101B300096065CD5FFF736FA064623685A68D20641
:101B400058D45A680192019A12F0290F5DD0019A77
:101B5000160742BFE26D42F00402E265019A950663
:101B600042BFE26D42F00202E265019AD00742BF35
:101B7000E26D42F00102E26529221BE0FFF712FA52
:101B8000064623685A689207D0D45A680192019A8F
:101B900012F0210F17D0019A950642BFE26D42F074
:101BA0000202E265019AD00742BFE26D42F00102F3
:101BB000E26521229A60042384F85930002384F8D6
:101BC000583001201FE0691CDCD055B9E36D43F0AB
:101BD0002003E3650320002384F8590084F858307B
:101BE00011E0FFF7DFF9801B8542CAD2EEE75B6A9E
:101BF0009B069FD4236812229A600020012384F858
:101C0000593084F8580002B070BD691C96D0002D80
:101C1000DCD0FFF7C7F9801B85428ED2D6E70000E3
:101C200090F85830012BF0B54FF0020341D001225B
:101C300080F8582080F85930026800294DD1C66AD2
:101C4000446B076BA6F10905012D4FF4403332D8E0
:101C500093FAA3F3B3FA83F304F07F41314307FA15
:101C600003F31943D2F824E04FF4801393FAA3F35B
:101C70004FF40016B3FA83F796FAA6F6836BBB40CF
:101C80003C4F0EEA070739430B43C16BB6FA86F6A1
:101C900001FA06F633435362012D836A936102D839
:101CA00024F07F449462012380F85930002380F8A7
:101CB00058301846F0BD93FAA3F34FF07F41B3FAC2
:101CC00083F391FAA1F1B1FA81F104FA01F107FA73
:101CD00003F30B4343EA0601C4E7182404FB0104A1
:101CE0004FF44033E76A666B246BA7F10905012DB9
:101CF0002FD893FAA3F3B3FA83F306F07F46374362
:101D000004FA03F33B43D2F81CE04FF4801494FA36
:101D1000A4F44FF40016B4FA84F796FAA6F6182441
:101D200004FB0101B6FA86F68C6BBC40114F0EEA3B
:101D300007073B432343CC6B04FA06F63343D361D6
:101D4000012D8B6A13619EBF4B6B23F07F4313629F
:101D5000A9E793FAA3F34FF07F4EB3FA83F39EFA09
:101D6000AEFEBEFA8EFE04FA03F306FA0EF6334315
:101D7000C8E700BFF0FFCC002DE9F74FD1F8008095
:101D8000DFF8A091654A002338FA03F402D103B0CA
:101D9000BDE8F08F4FF0010E0EFA03FE18EA0E06B2
:101DA00000F0AB804C6824F01007022F16D14FEAE8
:101DB000D30A00EB8A0A03F0070BDAF820504FEA47
:101DC0008B0B4FF00F0C0CFA0BFC25EA0C0C0D6979
:101DD00005FA0BF545EA0C05CAF820504FEA430A0C
:101DE0000325D0F800B005FA0AF5ED4304F0030C22
:101DF0000BEA050B0CFA0AFC013F4CEA0B0C012F15
:101E0000C0F800C011D8876807EA050BCF6807FA49
:101E10000AFC4CEA0B078760476827EA0E0EC4F3FA
:101E200000179F4047EA0E074760C7683D408F682C
:101E300007FA0AF73D43C560E5005ED5D9F8605062
:101E400045F00105C9F86050D9F8605023F0030748
:101E500007F1804705F0010507F58037019503F08C
:101E6000030E019DD7F808A04FF00F0C4FEA8E0E1D
:101E70000CFA0EF5B0F1904F2AEA050C3FD0284D30
:101E8000A8423ED005F58065A8423CD005F58065A6
:101E9000A8423AD005F58065A84238D005F580659E
:101EA000A84236D005F58065A84234D005F5806596
:101EB000A84214BF0825072505FA0EF545EA0C05CA
:101EC000BD601568F74314F4803F0CBF3D403543B7
:101ED0001560556814F4003F0CBF3D403543556014
:101EE000956814F4801F0CBF3D4035439560D5685C
:101EF000A40254BF3D403543D560013344E700257B
:101F0000DAE70125D8E70225D6E70325D4E704253B
:101F1000D2E70525D0E70625CEE700BF0004014043
:101F200000040048001002402DE9F04F464DDFF854
:101F300020A1DFF820B100224FF0010931FA02F3AD
:101F400001D1BDE8F08F09FA02F811EA08066BD05A
:101F500007680323540003FA04F422FA03FC27431E
:101F600000EB8C0C0760DCF8207002F0070E3B469B
:101F70004FEA8E0E0F2707FA0EFE23EA0E0ECCF85C
:101F800020E0D0F808E0E4430EEA040EC0F808E0D0
:101F9000D0F804E02EEA0808C0F80480D0F80CE07D
:101FA00004EA0E04C46022F0030404F1804404F542
:101FB000803402F0030ED4F808C04FEA8E0E07FA00
:101FC0000EF7B0F1904F0CEA070C2FD01F4B984240
:101FD0002ED003F5806398422CD003F5806398429D
:101FE0002AD003F58063984228D003F58063984295
:101FF00026D0504526D058450CBF0723082303FAA6
:102000000EF39C4510D1A36823EA0707A7602B684D
:10201000F64333402B606B6833406B60AB683340F2
:10202000AB60EB681E40EE60013287E70023E6E715
:102030000123E4E70223E2E70323E0E70423DEE7EA
:102040000523DCE70623DAE700040140000400482A
:1020500000180048001C00480AB181617047816285
:1020600070474369594041617047704708B5044B58
:102070005969014202D05861FFF7F7FF08BD00BF60
:102080000004014003689A69910744BF00229A62E4
:102090009A69D2075EBF9A6942F001029A6170475D
:1020A00030B5039C05682343640D04F4806444F058
:1020B0007F7444F458346868C1F3090144F47F74B0
:1020C000194344F0030441EA024120EA0404214395
:1020D000696030BD2DE9F041069F044688461646EA
:1020E0001D462268936938EA03030CBF01230023CD
:1020F000B34202D00020BDE8F0816B1CF2D0FEF7A5
:1021000051FFC01B854201D3002DEAD1636C43F01F
:1021100020036364202384F84130002384F8423094
:1021200084F840300120BDE8F081036870B50446B2
:10213000986910F010000D46164616D170BD691C46
:1021400014D0FEF72FFF801B854200D36DB9636C5E
:1021500043F020036364202384F84130002384F893
:10216000423084F84030012070BD236899698A06A6
:10217000E5D510222025DA612046DD61FFF782FFD8
:102180002268536823F0FF7323F48B3323F4FF7327
:1021900023F001035360636C43F00403636484F829
:1021A0004150DBE770B504460D46164623689B692F
:1021B0009B0701D5002070BD324629462046FFF717
:1021C000B4FFA0B96A1CF1D0FEF7ECFE801B85427B
:1021D00001D3002DEAD1636C43F020036364202314
:1021E00084F84130002384F8423084F840300120E4
:1021F00070BD0000F7B5099E1F46164B00930546BB
:1022000014460023FAB2FFF74BFF324608992846DE
:10221000FFF7C8FF10B1012003B0F0BD012F2B68FC
:102220000CD1E4B29C62089B009600224021284613
:10223000FFF750FF003018BF0120EDE7220A9A6235
:10224000089932462846FFF7ADFF0028E3D12B68F6
:10225000E7E700BF0020008070B504460D46164633
:1022600023689B699B0601D5002070BD3246294634
:102270002046FFF75AFF90B9FEF794FE801B854277
:1022800001D3002DECD1636C43F020036364202361
:1022900084F84130002384F8423084F84030012033
:1022A00070BD10B5044600284AD090F8413003F0C4
:1022B000FF021BB980F840200FF050FD242384F862
:1022C00041302368E1681A6822F001021A606268EE
:1022D00022F070621A619A68012922F400429A6021
:1022E000A26824D142F400429A605A68616942F0BF
:1022F000007242F400425A60DA6822F40042DA6066
:1023000022690A43A16942EA0122DA60216AE2698C
:102310000A431A601A6842F001021A600020202362
:10232000606484F84130206384F8420010BD42F4B8
:10233000044202299A6004BF4FF400625A60D4E755
:10234000012010BD2DE9F04F9B4690F8413085B03B
:10235000202B04460F460392BDF83CA0DDF84080D8
:1023600040F0A9800E9B13B1BAF1000F06D14FF4D3
:1023700000736364012005B0BDE8F08F90F8403031
:10238000012B00F09880012580F84050FEF70AFEEE
:102390001923009006462A464FF400412046FFF7D5
:1023A00099FE81460028E5D1222384F8413040235C
:1023B00084F842300E9B606463626063A4F82AA0D4
:1023C0000196CDF800805B46039A39462046FFF718
:1023D00011FF10B184F84090CCE7638D9BB2FF2BC6
:1023E000364B58D9FF22009322854FF0807339462F
:1023F0002046FFF755FE0096434600220421204662
:10240000FFF768FE0028B5D12268636A526A1A7025
:10241000636A228D01336362638D013B9BB26385E6
:10242000638D013A92B29BB22285ABB1A2B90096FC
:10243000434680212046FFF74DFE00289AD1638D48
:102440009BB2FF2B2FD9FF22228500904FF0807383
:1024500039462046FFF724FE638D9BB2002BCAD17C
:10246000324641462046FFF7F7FE002882D1236816
:102470002021D9615A6822F0FF7222F48B3222F4B3
:10248000FF7222F001025A6084F8411084F8400083
:1024900084F842006FE7628D009392B222854FF07C
:1024A0000073D2B2A3E7628D009092B222854FF002
:1024B0000073D2B2CCE702205DE700BF00240080A9
:1024C00090F84120D2B2202A10B51DD190F84030AA
:1024D000012B19D0242380F8413003681C6824F0B4
:1024E00001041C601C6824F480541C601C68214397
:1024F0001960196841F001011960002380F841203A
:1025000080F84030184610BD022010BD10B590F87C
:102510004140E4B2202C1CD190F84030012B18D05F
:10252000242380F8413003681A6822F001021A60FF
:102530001A6822F4706242EA012119601A6842F0B6
:1025400001021A60002380F8414080F840301846AC
:1025500010BD022010BD2DE9F043D20104684F6880
:10256000E568D1F800E0D1F818908432A3180EF194
:102570000106586800F0F0205860E068C5F30B458C
:10258000C0F30B403D44304440EA05405860E068E9
:10259000CD68C0F30A000544986800F0F020986008
:1025A000E6688868C6F30A060130304440EA054010
:1025B000986018690E6920F0070018614FF0000C50
:1025C0001E619D6991F8320091F83180C3F818C0FE
:1025D00091F8305045EA096545EA082545EA004585
:1025E0009D61586920F0FF00586148695861D869B9
:1025F00020F4E06020F00700D861086ACD69054347
:10260000DD61986A486AC3F828C098621EB3012E3B
:1026100023D0B01E022822D9072E0CBF0220012091
:10262000DD6A05F0E025DD628D6AC96AA7EB0E0759
:1026300045437843033040EA0540D862186B20F4E4
:10264000FF6020F0070018631963A35843F00103EB
:10265000A350BDE8F0830420E2E70320E0E7022076
:10266000DEE7000038B50446002863D090F8A130BA
:1026700003F0FF021BB980F8A0200FF0B3F902238A
:1026800084F8A1302368A0689A6922F070429A61A8
:10269000626899690243E0680243206902430A4381
:1026A0009A619A68244960690A409A609A6842EA85
:1026B0000042A06902439A60DA68E0690A40DA6081
:1026C000DA6842EA0042206A0243DA601A69606A04
:1026D0000A401A611A6942EA0042A06A02431A617A
:1026E0005A69114059615A69E16A42EA0142216B13
:1026F0000A435A61D96A94F8360094F8355001F0CB
:102700007F41D962D96A94F834200A4342EA05220B
:1027100042EA0042DA625A6B42F006025A639A6950
:1027200042F001029A6100200123C4F8A40084F859
:10273000A13038BD012038BD00F800F0F8B590F8A0
:10274000A030012B06468E4694464FF002001DD065
:1027500034240D4686F8A10004FB02640FCD012746
:10276000383486F8A0700FC40FCD0FC40FCD0FC43E
:102770002B682360304662467146FFF7ECFE3368F3
:1027800000205F6286F8A17086F8A000F8BD90F87E
:10279000A030012B70B54FF00203044615D080F82D
:1027A000A13034235343C618012580F8A050F165A9
:1027B00003F138010144FFF7CEFE236800205D627B
:1027C00084F8A15084F8A00070BD184670BD2DE9B2
:1027D000F04104468AB0002874D090F8BD3303F06D
:1027E000FF021BB980F8BC230FF05EFB25460323D4
:1027F00055F8100B84F8BD3302F007FD0FCD6E467F
:102800000FC60FCD0FC695E8030086E8030004F15C
:10281000040898E80E00206802F0C2FC002120683D
:1028200002F0F9FC00212246234604F1100501269E
:10283000084683F83C10A3F8421001310F2983F8B1
:102840003D6083F83F0058649864186503F11C03E9
:10285000EFD100231F4682F8FC3101330F2B82F8A1
:10286000FD7182F8FF71C2F80472C2F80872C2F8F2
:10287000107202F11C02EED10FCD6E460FC60FCDC5
:102880000FC695E8030086E8030098E80E0020686C
:1028900002F002FD012384F8387084F8BD33636AC6
:1028A000012B02D1204600F027FCA36A012B02D1A4
:1028B000204600F034FC206802F0C8FF00200AB077
:1028C000BDE8F0810120FAE790F8BC33012B10B588
:1028D00004460CD0012380F8BC33006802F0AAFF44
:1028E000206802F08CFC002084F8BC0310BD02209C
:1028F00010BD00002DE9F04FD0F8009085B00446DF
:102900004846D9F8408002F0DCFF0090002840F0F3
:102910005481206802F0A6FF002800F04E81206854
:1029200002F0A0FF800748BF2268206842BF5369B9
:1029300003F00203536102F095FF10F4002B0BD05B
:10294000206802F093FF09F530660546B2464FF065
:10295000000B002D40F03481206802F083FF470314
:102960000CD5206802F08AFF2546019009F5106811
:102970004FF0000B019B002B40F06481206802F0B7
:1029800071FF002815DAD9F8043823F00103C9F8DB
:10299000043894F8F433012B40F0CF81002184F8FF
:1029A000F41320460FF0E6FB2268536903F000435E
:1029B0005361206802F056FF05050BD5D9F8083899
:1029C000D80702D520460FF0D9FA2268536903F4DC
:1029D00000635361206802F045FF010114D52368AC
:1029E0005A6902F000625A6194F8F423002A40F018
:1029F000A8815B6D0121C3F3830384F8F413C4F849
:102A0000F83320460FF0B6FB206802F02BFFC2041B
:102A100034D509F500656B68206823F001036B600D
:102A2000102102F00FFC606809F510634FF67F314A
:102A3000009A824240F08981EB6943F00113EB6117
:102A4000236B002B00F09A81D5F8843043F00B0300
:102A5000C5F884306B6C43F00B036B64D9F8003815
:102A6000206823F4FE63C9F8003804F5717102F0A0
:102A700047FF2268536903F480535361206802F0D2
:102A8000F1FE830420D5206802F01FFF2268D3687E
:102A900023F47053D3600323E3604023636100F0A9
:102AA0009DFFB34BB34A03449342236800F26F8106
:102AB000DA6842F47052DA6020460FF052FA226867
:102AC000536903F400535361206802F0CBFEC7063C
:102AD0002BD52268936923F010039361D9F8205015
:102AE000C5F34343022B05F00F0740F0A08147F6E2
:102AF000F0731D4214D01C2606FB0746C5F30A15C9
:102B00002A46D6F80812484602F01EFED6F80832C9
:102B10002B44C6F80832D6F814321D44C6F81452B5
:102B20002268936943F010039361206802F09AFED3
:102B3000060707D520460FF010FA2268536903F004
:102B400008035361206802F08DFEC50209D55FFAC3
:102B50008BF120460FF048FA2268536903F4801382
:102B60005361206802F07EFE800209D55FFA8BF186
:102B700020460FF035FA2268536903F400135361BD
:102B8000206802F06FFE410007D520460FF030FAB2
:102B90002268536903F080435361206802F062FEAB
:102BA00042070AD523685D686B0702D520460FF0FF
:102BB00023FA23685A6815435D6005B0BDE8F08FBD
:102BC000E9072ED55FFA8BF211462068019202F0D8
:102BD0005DFEC20707460DD5674B019A0121984556
:102BE000CAF8081029D1B1680B0420D54FF400426F
:102BF000CAF8082039070FD55F4B984506D1B2684F
:102C0000120444BF4FF40042CAF8082020460FF0D7
:102C10008DF90823CAF80830FB0644BF1023CAF810
:102C200008300BF1010B6D080AF1200A91E6B1683A
:102C3000880644BF2021CAF80810114620460FF02C
:102C40007BF9D7E7019BDE076ED55FFA8BFA514619
:102C5000206802F024FE0646F00710D5D9F8343873
:102C600001200BF00F0200FA02F223EA0203C9F876
:102C700034385146C8F8080020460FF066F931078D
:102C800044BF0823C8F80830F20644BF1023C8F830
:102C90000830730644BF4023C8F80830B70744BF64
:102CA0000223C8F8083036063ED56B6D2E6DB34250
:102CB0003AD8F61A6B6C226802929E4228BF1E46D2
:102CC00002F51063033603EB4B13B6080393039B23
:102CD0002F6D9B699BB2B3426B6D23D99F4221D963
:102CE00067B9029B012203F5006AD3F8343802FA6F
:102CF0000BF223EA0203CAF8343015E0FF1A6B6CBA
:102D0000A96C02989F4228BF1F46BBB2524602F0F0
:102D100045FCAB6C3B44AB646B6DFE1C1F44B608BA
:102D20006F65D4E79F42DCD9019B5B080BF1010B77
:102D300001931C3508F120081CE620460FF036F9F7
:102D400032E620460FF01AF95EE699601A6822F41E
:102D500000121A60C3F80812D3F8002222F40012FD
:102D6000C3F80022009A01320092203360E600BFCF
:102D7000405327FFFF340C000A31544F6B6943F076
:102D80000B036B612B6943F00B032B6166E62F4A43
:102D90002F4902448A4203D8DA6842F460528AE634
:102DA000A0F574022B49A2F510528A4203D8DA68C2
:102DB00042F450527FE6A0F183722749A2F5E74220
:102DC0008A4203D8DA6842F4405274E6234A24491E
:102DD00002448A4203D8DA6842F430526BE6214A50
:102DE000214902448A4203D8DA6842F4205262E65A
:102DF0001E4A1F4902448A4203D8DA6842F410523C
:102E000059E6A0F1B7721B49A2F558528A4203D87D
:102E1000DA6842F400524EE6174A184902448A42E0
:102E2000DA6894BF42F4E05242F4C05243E6062B03
:102E30007FF476AE082204F5717148461C2602F034
:102E400083FC06FB0746C5F30A1564E6401E1BFF1C
:102E50003F420F007F4F12001FD6130060B6E5FE01
:102E60005FE3160000D3CEFE3F771B00C05BB3FECE
:102E7000BF9121001F753800E05459FEDF9C4100CE
:102E800090F8BC23012A10B504460BD0012280F82B
:102E9000BC2384F83810006802F0BCFC002084F8E1
:102EA000BC0310BD022010BD70B5044601F00F0038
:102EB00011F0800F4FF01C06C5B206FB054115BF8F
:102EC00006FB054506FB05453C3101F5FE7115BFC6
:102ED0000126002685F83D6085F8FD618A604A7804
:102EE000CB70C0B2087002B1C880022B04BF0023AF
:102EF0000B7194F8BC33012B09D0012384F8BC3347
:102F0000206802F065FA002084F8BC0370BD02203E
:102F100070BD01F00F03DAB210B504461C2011F0A9
:102F2000800F00FB024119BF3C3100FB024200FB55
:102F3000024201F5FE7115BF0120002082F83D001C
:102F400082F8FD010B7094F8BC33012B09D00123EA
:102F500084F8BC33206802F07DFA002084F8BC03BA
:102F600010BD022010BD38B501F00F051C2404FB74
:102F7000050104FB050401F5FE71C4F810320023BD
:102F8000C4F80822C4F8143284F8FD3184F8FC51E6
:102F900000681DB902F090FA002038BD02F00EFB67
:102FA000FAE738B501F00F051C2404FB050104FB0A
:102FB00005043C312365002363650123A26484F882
:102FC0003D3084F83C5000681DB902F075FA0020CD
:102FD00038BD02F0F3FAFAE738B5436801F00F059F
:102FE0009D4204462DD811F0800F4FF01C021ED0D8
:102FF00002FB050102FB050301223C3381F83D2061
:1030000001229A701D7094F8BC1391421BD084F871
:10301000BC231946206802F0A5FB25B904F571719F
:10302000206802F06DFC002084F8BC0338BD02FB70
:10303000010302FB0101002203F5FE7381F8FD216B
:10304000DEE7012038BD022038BD38B5436801F005
:103050000F029A42044626D81C2311F0800F03FB6E
:10306000020119BF3C3103FB020301F5FE7103FBB2
:10307000024314BF012000204FF0000514BF83F865
:103080003D0083F8FD018D700A7094F8BC33012B6C
:103090000BD0012384F8BC33206802F090FB84F845
:1030A000BC53284638BD012038BD022038BD70B55C
:1030B0000468636A21B943EA0243A362002070BD39
:1030C000A06A4D1E03EB10430020461CC0B285428F
:1030D00006D83F3104EB810443EA02436360EDE725
:1030E000403004EB8000406803EB10433046ECE7CF
:1030F0000368002059627047026803460121C0F846
:10310000FC13002083F8F403936943F00063936198
:10311000536D43F0805343F00303536570470268D7
:103120000123C0F80034936B43F400339363002011
:1031300070470000074B186800F4C060B0F5806F5E
:1031400007D0D3F8803013F4807F14BF4FF40070A1
:103150000020704700700040294B1A6828BB02F419
:10316000C062B2F5806FD3F8802022F48072C3F879
:10317000802019D11A6822F4C06242F400721A60E9
:10318000204A116832224A431F49B2FBF1F2194624
:1031900001325869400500D522B94B695B052DD530
:1031A00003207047013AF4E77047B0F5007F20D163
:1031B00002F4C062B2F5806FD3F8802042F48072CE
:1031C000C3F880201AD11A6822F4C06242F4007257
:1031D0001A600C4A116832224A430B49B2FBF1F2E1
:1031E0001946013258694005D7D5002AD5D0013A91
:1031F000F8E722F4C06242F480621A60002070474F
:1032000000700040A001002040420F00024A5368B5
:1032100043F480635360704700700040024A536873
:1032200043F40073536070470070004037B51C4D85
:10323000AB6DDA00044618D5FFF77CFFB0F5007FD0
:1032400023D1802C28D9A02C8CBF02200120154A24
:10325000136823F00F0303431360136803F00F0395
:10326000181A18BF012003B030BDAB6D43F0805376
:10327000AB65AB6D03F080530193019BFFF75AFFE1
:10328000AB6D23F08053AB65D8E77F2C06D8A4F153
:10329000700358425841DAE70020D8E70220D6E709
:1032A0000010024000200240234B9A68D96812F0B7
:1032B0000C0205D00C2A15D101F00301012918D107
:1032C00019681E48090755BFD3F894101968C1F34F
:1032D0000321C1F3031150F8210012B10C2A09D0C7
:1032E00000207047042A24D0082A154818BF00205F
:1032F00070470020D968DA6801F00301C2F30312B5
:10330000022902F1010205D0032903D0D968C1F3D3
:10331000062103E0D9680A48C1F30621DB68B0FB47
:10332000F2F0C3F34163013348435B00B0FBF3F0B9
:1033300070470348704700BF00100240A4F5010821
:103340000024F4002DE9F743054608B9012046E0C2
:10335000A84C0368A668E768D80606F00C0607F0D4
:10336000030772D51EB10C2E51D1012F4FD1236806
:10337000990702D5AB69002BE8D02368286A1A07A1
:1033800056BFD4F8943023681B0903F0F00383423E
:1033900028D2FFF74BFF0028D8D1236843F0080359
:1033A000236023682A6A23F0F003134323606368D1
:1033B000EA6923F47F4343EA02236360FFF774FF63
:1033C000A3688D4AC3F30313D35C03F01F03D840F3
:1033D0008A4B18600020FDF7B5FD002835D003B0FA
:1033E000BDE8F083236843F008032360236823F0DB
:1033F000F003034323606368EA6923F47F4343EAED
:1034000002236360FFF712FF0028D7D09EE7AB6965
:10341000002B3AD0236843F001032360FDF7C2FD7F
:10342000804623689B0728D5236843F00803236060
:1034300023682A6A23F0F003134323606368EA6970
:1034400023F47F4343EA022363602B68D9072DD41A
:103450002B689A076BD42B68190700F1A0802B68A2
:103460005A0700F1CD802B689A0600F13681AB6ACD
:10347000002B40F05C810020B1E7FDF793FDA0EB4D
:1034800008000228CDD90320A9E7236823F001030F
:103490002360FDF787FD804623689807D5D5FDF7A3
:1034A00081FDA0EB08000228F6D9ECE7082E03D036
:1034B0000C2E08D1032F06D123689B03C8D56B6857
:1034C000002BC5D142E76B68B3F5803F10D123686C
:1034D00043F480332360FDF765FD8046236898033D
:1034E000B6D4FDF75FFDA0EB08006428F6D9CAE763
:1034F000B3F5A02F04D1236843F480232360E6E7CB
:10350000226822F480322260226822F48022226023
:10351000002BE0D1FDF746FD80462368990397D53F
:10352000FDF740FDA0EB08006428F6D9ABE7042EB8
:1035300003D00C2E10D1022F0ED123685A0503D5CB
:10354000EB68002B3FF402AF63682A6923F0FE4367
:1035500043EA026363607EE7EB687BB1236843F470
:1035600080732360FDF71EFD074623685B05EBD4DF
:10357000FDF718FDC01B0228F7D984E7236823F460
:1035800080732360FDF70EFD0746236858057FF51D
:1035900062AFFDF707FDC01B0228F6D973E76B6920
:1035A0009BB1D4F8943043F00103C4F89430FDF794
:1035B000F9FC0746D4F894309B073FF550AFFDF770
:1035C000F1FCC01B0228F5D95DE7D4F8943023F054
:1035D0000103C4F89430FDF7E5FC0746D4F89430B5
:1035E00098077FF53CAFFDF7DDFCC01B0228F5D93D
:1035F00049E700BF001002408AF50108A001002041
:10360000A36DD90029D4A36D43F08053A365A36DA6
:1036100003F080530193019B4FF00108714F3B6809
:10362000DA051DD5AB68012B2BD1D4F8903043F0CF
:103630000103C4F89030FDF7B5FC41F28839074624
:10364000D4F89030980742D5B8F1000F3FF40BAF93
:10365000A36D23F08053A36505E74FF00008DDE775
:103660003B6843F480733B60FDF79CFC81463B68FC
:10367000DB05D7D4FDF796FCA0EB09000228F6D9AC
:1036800001E7052B06D1D4F8903043F00403C4F8C9
:103690009030CAE7D4F8902022F00102C4F89020BC
:1036A000D4F8902022F00402C4F89020002BC2D15C
:1036B000FDF778FC41F288390746D4F89030990735
:1036C000C2D5FDF76FFCC01B4845F6D9DBE6FDF718
:1036D00069FCC01B4845B3D9D5E66B6A9BB1D4F8E9
:1036E000983043F00103C4F89830FDF75BFC0746BF
:1036F000D4F898309B073FF5BAAEFDF753FCC01BDA
:103700000228F5D9BFE6D4F8983023F00103C4F8B5
:103710009830FDF747FC0746D4F8983098077FF5B6
:10372000A6AEFDF73FFCC01B0228F5D9ABE60C2E78
:103730003FF40CAE022B236823F08073236036D154
:10374000FDF730FC0646236899012AD4AB6B6A6BFF
:10375000DB0643EA0223EA6A13432A6B013A43EA8F
:103760000213EA6B5208013A43EA42532A6C5208A8
:10377000013A43EA4263E360236843F080732360C5
:10378000E36843F08073E360FDF70CFC05462368B3
:103790009A013FF570AEFDF705FC401B0228F6D9F3
:1037A00071E6FDF7FFFB801B0228CCD96BE623688E
:1037B00013F0205F02BFE36823F00303E360E368D4
:1037C00023F0887323F48033E360FDF7EBFB0546B9
:1037D00023689B017FF54FAEFDF7E4FB401B0228F9
:1037E000F6D950E6007000402DE9F8430E46054634
:1037F00010B90120BDE8F883714A136803F00F0384
:103800008B4234D3296811F001073BD12A68910714
:1038100040F1BB806B49A8688B6823F0F003034339
:103820008B6067490B6803F00F039E42C0F0B580C0
:1038300012F0040F634C40F0BC80130706D5A36858
:103840002A6923F4605343EAC203A360FFF72CFD07
:10385000A3685D4AC3F30313D35C03F01F03D8408E
:103860005A4B18600020BDE8F843FDF76BBB1368A6
:1038700023F00F030B431360136803F00F03994207
:10388000B7D1BFE76B684F4C032B68D123689B010E
:10389000AFD5E36803F00303012B1ED123684C4A24
:1038A0001F0755BFD4F894302368C3F30323C3F331
:1038B000031352F82320E768E368C3F30313581C8B
:1038C00007F00303022B0AD0032B08D0B2FBF0F35E
:1038D000E768C7F306277B4308E00022EBE7E268CE
:1038E0003C4BB3FBF0F3C2F306225343E268C2F34E
:1038F000416201325200B3FBF2F3374A93421CD8C3
:103900000027A3686A6823F003031343A360FDF74D
:1039100049FB41F288398046A3686A6803F00C03CA
:10392000B3EB820F3FF472AFFDF73CFBA0EB080056
:103930004845F1D90320BDE8F883A36813F0F00FE0
:1039400007D1A36823F0F00343F08003A36080272E
:10395000D7E78807D4D5AB68002BD1D1F1E7022B8C
:103960000AD1236813F4003F3FF443AFFFF79CFCF8
:10397000194B9842C4D9E4E71BB9236813F0020F2E
:10398000F2E7236813F4806FEEE7802F7FF449AFEE
:103990000C498B6823F0F00342E70B6823F00F0318
:1039A00033430B600B6803F00F039E427FF421AF9B
:1039B0003EE7A368E96823F4E0630B43A3603CE7B8
:1039C00000200240001002408AF50108A0010020FA
:1039D000A4F501080024F40000B4C404014B1868E5
:1039E000704700BFA0010020054B064A9B68C3F347
:1039F0000223D35C044A106803F01F03D8407047C9
:103A0000001002409AF50108A0010020054B064A6B
:103A10009B68C3F3C223D35C044A106803F01F03FE
:103A2000D8407047001002409AF50108A00100201C
:103A3000F8B53F4BDA6812F0030F05460E461C46F8
:103A4000006822D0DB6803F00303834230D17BB3EC
:103A5000236823F080632360FDF7A4FA07462368F8
:103A60001A012ED4AF686B6896B3012E4CD122692F
:103A7000304911402A6941EA0721013B520841EAD5
:103A80000313013A43EA42532DE002280CD00328E5
:103A900010D001280CD11B689F0734D5E36823F0B0
:103AA00003031843E060D3E71B6813F4806FF5D17C
:103AB0000120F8BD1A689103F0D41B6813F4802F1D
:103AC000F5E7FDF76FFAC01B0228C8D90320F8BD3F
:103AD000E86826691849C20642EA072231400A43CB
:103AE000013B42EA03132361236843F080632360B0
:103AF000FDF758FA064623681B0113D52369AA6906
:103B0000134323610020F8BD21690C4A0A4042EAB0
:103B10000722013B42EA03136A695208013A43EA69
:103B20004263E0E7FDF73EFA801B0228E3D9CDE7C8
:103B3000001002400F809FFF0F80FF070F80FFF9EA
:103B4000F8B53F4BDA6812F0030F05460E461C46E7
:103B5000006822D0DB6803F00303834230D17BB3DB
:103B6000236823F080532360FDF71CFA074623687F
:103B70009A002ED4AF686B6896B3012E4CD162695F
:103B8000304911402A6941EA0721013B520841EAC4
:103B90000313013A43EA42532DE002280CD00328D4
:103BA00010D001280CD11B689F0734D5E36823F09F
:103BB00003031843E060D3E71B6813F4806FF5D16B
:103BC0000120F8BD1A689103F0D41B6813F4802F0C
:103BD000F5E7FDF7E7F9C01B0228C8D90320F8BDB7
:103BE000E86866691849C20642EA072231400A437A
:103BF000013B42EA03136361236843F0805323606F
:103C0000FDF7D0F9064623689B0013D56369AA69BE
:103C1000134363610020F8BD61690C4A0A4042EA1F
:103C20000722013B42EA03136A695208013A43EA58
:103C30004263E0E7FDF7B6F9801B0228E3D9CDE740
:103C4000001002400F809FFF0F80FF070F80FFF9D9
:103C50002DE9F347056815F40065044623D0C16ECD
:103C6000402914D004D8C1B120292BD001251AE055
:103C7000602901D08029F9D14E4AE16ED2F89C30FA
:103C800023F0E0030B43C2F89C3000250BE0494AC7
:103C9000D36843F48033D360EEE70430FFF7C8FE07
:103CA00005460028E8D02368DB0409D5216FB1F56B
:103CB000007F14D00BD8C1B1B1F5807F71D0012540
:103CC0002E4621E000212030FFF73AFFE8E7B1F56A
:103CD000407F02D0B1F5806FF1D12E4609E0354A20
:103CE000D36843F48033D360F7E7201DFFF7A0FECD
:103CF0000646002E5BD12F4A216FD2F89C3023F468
:103D0000E0630B43C2F89C3023689F0365D5294FBD
:103D1000BB6DD80040F1F3814FF00008DFF89890B8
:103D2000D9F8003043F48073C9F80030FDF73AF950
:103D30008246D9F80030D90540D5002E40F0978151
:103D4000D7F8903013F4407315D0D4F898209342EC
:103D500011D0D7F89030D7F8902042F48032C7F8CD
:103D60009020D7F8902023F4407322F48032C7F8D3
:103D70009020C7F89030DA0709D5FDF713F941F222
:103D8000883A8146D7F890309B0740F16881D7F890
:103D90009030D4F8982023F440731343C7F8903040
:103DA00014E0002104F12000FFF7CAFEA0E7354629
:103DB000AAE700BF0010024000700040FDF7F2F8D3
:103DC000A0EB0A000228B4D903252E46B8F1000F53
:103DD00003D0BB6D23F08053BB652368DF0708D594
:103DE000C049E06BD1F8882022F003020243C1F8F9
:103DF0008820980708D5BB49206CD1F8882022F08C
:103E00000C020243C1F88820590708D5B549606CF7
:103E1000D1F8882022F030020243C1F888201A0726
:103E200008D5B049A06CD1F8882022F0C002024326
:103E3000C1F88820DF0608D5AA49E06CD1F88820AF
:103E400022F440720243C1F88820980608D5A5499B
:103E5000206DD1F8882022F440620243C1F8882006
:103E6000990508D59F49606ED1F8882022F4402238
:103E70000243C1F888205A0508D59A49A06ED1F8A6
:103E8000882022F440120243C1F888205F0608D53A
:103E90009449606DD1F8882022F440520243C1F861
:103EA0008820180608D58F49A06DD1F8882022F403
:103EB00040420243C1F88820D90508D58949E06D00
:103EC000D1F8882022F440320243C1F88820DA0277
:103ED00008D58449206ED1F89C2022F003020243C9
:103EE000C1F89C209F0410D57E4A616FD2F88830BB
:103EF00023F040630B43B1F1006FC2F8883040F00B
:103F0000B880D36843F48013D360236818030FD5B7
:103F1000A16F744BB1F5804FD3F89C2040F0B68070
:103F200042F48042C3F89C20DA6842F48032DA60BE
:103F30002368590310D56B4AE16FD2F8883023F01B
:103F400040630B43B1F1006FC2F8883040F0BD8090
:103F5000D36843F48013D36023685A0414D56149AD
:103F6000D4F88020D1F8883023F040531343B2F1C5
:103F7000805FC1F8883007D10221201DFFF758FD6E
:103F80000646002818BF05462268D30309D55549BF
:103F9000D4F88400D1F89C3023F004030343C1F823
:103FA0009C30970209D54F49D4F88800D1F89C304D
:103FB00023F018030343C1F89C3050021FD5494F2A
:103FC0003B6823F080533B60FCF7ECFF80463B6886
:103FD000990000F18980002E40F08F80D7F89C3046
:103FE000D4F88C2023F440331343C7F89C300221CB
:103FF00004F12000FFF7A4FD002818BF0546236840
:104000001A0214D53749D4F89020D1F89C3023F403
:1040100080531343B2F5805FC1F89C3007D1012172
:1040200004F12000FFF78CFD002818BF0546236827
:10403000DB0110D52B4AD4F89410D2F89C3023F42D
:1040400040130B43B1F5001FC2F89C3003D1D36875
:1040500043F48013D360284602B0BDE8F087FCF734
:10406000A1FFA0EB090050457FF68CAEACE63546CB
:10407000ACE6B1F1806F7FF448AF0121201DFFF75E
:10408000D7FC0646002818BF05463EE722F48042CA
:10409000C3F89C20D3F8882022F040620A43B1F193
:1040A000006FC3F8882003D1DA6842F480123EE73B
:1040B000B1F1806F7FF43CAF0121201DFFF7B8FC08
:1040C0000646002818BF054632E7B1F1806F7FF43D
:1040D00043AF0121201DFFF7ABFC0646002818BFA7
:1040E000054639E700100240FCF75CFFA0EB080032
:1040F00002287FF66CAF032581E735467FE7BB6D6D
:1041000043F08053BB65BB6D03F080530193019B6B
:104110004FF0010802E600BF70B5044600284AD0FF
:104120000023836290F85D3003F0FF021BB980F832
:104130005C200DF0C7FC0223216884F85D300B6819
:10414000E26823F04003B2F5E06F0B604FF000032C
:104150002ED91846B2F5706F18BFA362236B2BB926
:10416000B2F5E06F8CBF022301232363A668636866
:10417000A56933432669334366693343E6693343AC
:10418000266A3343A66A334305F4007633430B6053
:10419000636A1A43636B2D0C1A4305F004052A4326
:1041A0000243012300204A60206684F85D3070BD20
:1041B0004FF48050D0E7012070BD0000036A23F067
:1041C00001030362036A70B5446882690D6822F4D2
:1041D000803222F073022A438D6823F002032B43BE
:1041E0001B4DA8420FD005F50065A8420BD005F580
:1041F0004065A84207D005F58065A84203D005F5C3
:104200008065A8421ED1CD6823F008032B43104DD2
:10421000A84223F004030FD005F50065A8420BD097
:1042200005F54065A84207D005F58065A84203D092
:1042300005F58065A84205D124F440758E694C6966
:1042400034432C43446082614A684263036270BD18
:10425000002C0140036A23F480730362036A70B583
:104260004468C2690D6822F4803222F073022A4346
:104270008D6823F4007343EA0523164DA84203D04A
:1042800005F50065A8420DD1CD6823F4006343EA2B
:104290000523104DA84223F480630ED005F5006578
:1042A000A8420AD00C4DA84207D005F58065A84267
:1042B00003D005F58065A84206D124F440558E69E7
:1042C0004C69344345EA04144460C2614A68C263DD
:1042D000036270BD002C014000400140036A23F4DA
:1042E00080530362036A30B54468C2690D6822F0E6
:1042F000807222F4E64242EA05228D6823F40053DC
:1043000043EA05330E4DA8420FD005F50065A842DB
:104310000BD005F54065A84207D005F58065A84299
:1043200003D005F58065A84204D14D6924F480448A
:1043300044EA85144460C2614A680264036230BD85
:10434000002C0140036A23F480330362036A30B512
:104350004468426D0D6822F4803222F070022A43D4
:104360008D6823F4003343EA05430F4DA8420FD074
:1043700005F50065A8420BD005F54065A84207D0B9
:1043800005F58065A84203D005F58065A84204D1F3
:104390004D6924F4803444EA0524446042654A6847
:1043A0008265036230BD00BF002C0140036A23F424
:1043B00080130362036A30B54468426D0D6822F0D1
:1043C000807222F4E04242EA05228D6823F4001351
:1043D00043EA05530E4DA8420FD005F50065A842EB
:1043E0000BD005F54065A84207D005F58065A842C9
:1043F00003D005F58065A84204D14D6924F48024DA
:1044000044EA8524446042654A68C265036230BD5F
:10441000002C0140022310B580F83D300368094CA0
:1044200099682140062908D09A682240B2F5803F59
:104430001EBF1A6842F001021A60012380F83D3065
:10444000002010BD0700010003680A48DA6842F046
:104450000102DA6099680140062908D09A68024092
:10446000B2F5803F1EBF1A6842F001021A600020B8
:10447000704700BF070001007047704770477047E2
:10448000704703681A69910710B504460FD5DA68BA
:1044900092070CD56FF002021A619B6901229907FD
:1044A000027700F08580FFF7E9FF00232377236878
:1044B0001A69520710D5DA6850070DD56FF004025B
:1044C0001A619B69022213F4407F2277204675D03F
:1044D000FFF7D4FF0023237723681A6911070FD54C
:1044E000DA6812070CD56FF008021A61DB69042242
:1044F0009B072277204667D0FFF7C0FF0023237772
:1045000023681A69D00610D5DA68D1060DD56FF088
:1045100010021A61DB69082213F4407F22772046DB
:1045200058D0FFF7ABFF0023237723681A69D2071F
:1045300008D5DA68D00705D56FF001021A61204668
:10454000FFF79AFF23681A69110608D5DA68120680
:1045500005D56FF080021A61204600F096FA2368B4
:104560001A69D00508D5DA68110605D56FF480728E
:104570001A61204600F08AFA23681A69520608D5A3
:10458000DA68500605D56FF040021A612046FFF741
:1045900077FF23681A69910622D5DA6892061FD53B
:1045A0006FF0200220461A61BDE8104000F06CBA9E
:1045B000FFF763FF2046FFF762FF76E7FFF75DFF37
:1045C0002046FFF75CFF85E7FFF757FF2046FFF720
:1045D00056FF93E7FFF751FF2046FFF750FFA2E792
:1045E00010BD0000304A0368904212D0B0F1804FF5
:1045F0000FD0A2F5943290420BD002F58062904227
:1046000007D002F58062904203D002F594329042C6
:1046100019D14A6823F070031343234A90421DD0F6
:10462000B0F1804F1AD0A2F59432904216D002F524
:104630008062904212D002F5806290420ED002F564
:10464000943290420AD0194A904207D002F5806213
:10465000904203D002F58062904203D1CA6823F4ED
:10466000407313434A6923F08003134303608B684C
:10467000C3620B6883620C4B98420FD003F5006352
:1046800098420BD003F54063984207D003F580634E
:10469000984203D003F58063984201D10B6903630C
:1046A00001234361704700BF002C014000400140DE
:1046B00010B50446A0B190F83D3003F0FF021BB9DD
:1046C00080F83C200DF094FA022384F83D302068F5
:1046D000211DFFF787FF012384F83D30002010BD26
:1046E000012010BD10B50446A0B190F83D3003F094
:1046F000FF021BB980F83C200DF0DCFA022384F89D
:104700003D302068211DFFF76DFF012384F83D3007
:10471000002010BD012010BD036A23F010030362C6
:10472000036A70B5446882690D6822F0807222F4D1
:10473000E64242EA05228D6823F0200343EA05138E
:10474000164DA84203D005F50065A8420DD1CD68ED
:1047500023F0800343EA0513104DA84223F04003E1
:104760000ED005F50065A8420AD00D4DA84207D02D
:1047700005F58065A84203D005F58065A84206D1FD
:1047800024F440658E694C69344345EA84044460EE
:1047900082614A688263036270BD00BF002C0140E1
:1047A0000040014090F83C30012B10B504464FF01A
:1047B000020010D00123082A84F83C3084F83D0020
:1047C0001CD009D892B1042A14D00123002084F807
:1047D0003D3084F83C0010BD102A13D0142A15D0A7
:1047E0000C2AF2D12068FFF779FDEEE72068FFF789
:1047F000E5FCEAE72068FFF78FFFE6E72068FFF7B0
:1048000029FDE2E72068FFF79DFDDEE72068FFF75E
:10481000CDFDDAE710B584680A4324F47F4442EA08
:1048200003232343836010BD90F83C30012B70B507
:1048300004464FF0020017D084F83D0020680123A1
:1048400084F83C308268484B134083600B68402BEF
:1048500072D015D8102B0CD007D853B101230020EB
:1048600084F83D3084F83C0070BD202B01D0302B03
:10487000F4D1826843F0070322F07002134333E05F
:10488000702B33D01BD8502B3FD0602BE6D14D6816
:10489000CE68016A21F0100101628269036A22F484
:1048A000704223F0A00343EA051342EA0632826114
:1048B0000362836823F0700343F0670314E0B3F5E9
:1048C000805F0CD0B3F5005FC8D1CB684A688968B7
:1048D000FFF7A0FF2268936843F4804313E08368E6
:1048E00023F4803323F007038360B7E7CB684A687B
:1048F0008968FFF78FFF2268936823F4803323F0E1
:10490000770343F077039360A8E74A68CE68016AAB
:10491000056A25F001050562836921F00A0123F08B
:10492000F00343EA06130A4383610262836823F0BB
:10493000700343F05703D7E74A68CE68016A056AF7
:1049400025F001050562836921F00A0123F0F003D7
:1049500043EA06130A4383610262836823F070030B
:1049600043F04703C0E700BF8800FEFF036A01F081
:104970001F0110B501248C4023EA04030362036A7B
:104980008A401A43026210BD10B504460C290DD8A6
:10499000DFE801F0070C0C0C340C0C0C390C0C0C7F
:1049A0003E000268D36843F00203D360012220680E
:1049B000FFF7DCFF23681B4A93422ED002F500620A
:1049C00093422AD002F54062934226D002F58062DB
:1049D000934222D002F5806293421ED09968124819
:1049E0000140062908D09A680240B2F5803F03D002
:1049F0001A6842F001021A60002010BD0268D368F4
:104A000043F00403D1E70268D36843F00803CCE71E
:104A10000268D36843F01003C7E75A6C42F40042BF
:104A20005A64DBE7002C014007000100FFF7ACBF30
:104A300090F83C30012B30B54FF002031FD00268D4
:104A4000104D80F83D30AA425368946803D005F5B4
:104A50000065AA4203D14D6823F470032B430D680F
:104A6000896823F070032B4324F0800453602143B2
:104A70000123916080F83D30002380F83C301846D7
:104A800030BD00BF002C01407047704770470000E8
:104A90000368C16982682DE9F048044600691D6811
:104AA000024360690243BD480A43284002431A603A
:104AB0005A68E06822F4405202435A60B84AA0693A
:104AC00093421CBF226A10439A6822F06E4222F47D
:104AD000306202439A60D86A626A20F00F00104385
:104AE000D862B048834217D1AF4BB048D3F8883072
:104AF00003F00303C35CB1F5004F40F0A781082B1E
:104B000049D8DFE813F07F01D00068014800780140
:104B10004800480048002D00A548834206D1A24B1A
:104B2000A448D3F8883003F00C03E3E7A24883429B
:104B30001DD19D4BD3F8883003F03003102B00F0CB
:104B4000578104D8002B00F059811023D3E7202B84
:104B500000F03E81302BF8D1B1F5004F40F0D0800D
:104B6000964B616833F812304FF4004038E19448B6
:104B700083422DD100F5E230D0F8880000F0C0006B
:104B8000402800F0FD8012D8002800F0C080844842
:104B9000834240F0568101230122A4F86420A4F846
:104BA00062200022226762671846BDE8F0888028EC
:104BB00000F0BB80C028EAD179488342CCD17F4B3A
:104BC00033F812004FF400430822B3FBF0F3AAE0DD
:104BD0007C48834211D100F5E030D0F8880000F421
:104BE0004070B0F5807F00F0CB80CDD9B0F5007F6C
:104BF00000F09B80B0F5407FDDE769488342A4D197
:104C000000F5C830D0F8880000F44060B0F5806F3F
:104C100000F0B680B8D9B0F5006F00F08680B0F52E
:104C2000406FC8E7FEF7E0FE644B626A656833F8E0
:104C30001220002305E0614B626A634833F81220BA
:104C400000230021FBF7F6FF0F0247EA1067060278
:104C5000680816EB000B47F1000C2A460023584663
:104C60006146FBF7E7FF0023584AA0F540719142E7
:104C700091D82268D0608FE7FEF716FBD4E7626A0E
:104C80004E4B680833F8123000212A464FF48075E5
:104C90004FF40046B6FBF3F60023E6FB0501E0E720
:104CA00001230020E0E7FEF7B1FEADE0FEF79CFE39
:104CB0006268616A414B33F81130B0FBF3F000EBEE
:104CC0005200B0FBF2F080B2A0F110024FF6EF7389
:104CD0009A423FF660AF2368D860B0E0FEF796FED8
:104CE000E6E73649636831F812203748B0FBF2F046
:104CF00000EB5300B0FBF3F0E5E7FEF7D5FAD7E79A
:104D00002E49636831F812204FF40040EEE7244A40
:104D1000934273D1FEF768FE626A284B33F8123073
:104D2000B0FBF3F3002253B936E71D4883424FD15D
:104D3000224B33F81200244BB3FBF0F302226568D8
:104D400005EB450199423FF626AFB3EB053F3FF631
:104D500022AF082AA4D801A353F822F0254C00085A
:104D6000A14C0008374C0008A14C0008794C000801
:104D7000A14C0008A14C0008A14C00087F4C000881
:104D8000074A934234D1FEF78FFA626A0B4B33F82D
:104D90001230B0FBF3F30422C5E700BFF369FFCF85
:104DA000008000400038014000100240C82B01087C
:104DB00000440040CC2B010800480040DA2B0108D9
:104DC000004C0040005000400024F400FFFC0F00A5
:104DD000B1F5004F85D1294B616833F8123028486E
:104DE000B0FBF3F3480800EB4300B0FBF1F017E031
:104DF000B1F5004F81D1FEF757FA05E0B1F5004F4C
:104E00007FF454AFFEF7F0FD6268616A1B4B33F824
:104E10001130B0FBF3F3500800EB4300B0FBF2F0AD
:104E200080B2A0F110024FF6EF739A423FF6B3AE94
:104E300020F00F032268C0F342001843D060002323
:104E4000AAE6B1F5004F3FF4A6AE1023082B3FF6BB
:104E5000A2AE01A151F823F0AD4C0008DD4C0008D2
:104E6000E34C0008974B0008FB4C0008974B0008E8
:104E7000974B0008974B0008014D0008DA2B0108FA
:104E80000024F400836ADA0710B506D50168C46A05
:104E90004A6822F4003222434A609C0706D5016822
:104EA000046B4A6822F4803222434A60590706D5CF
:104EB0000168446B4A6822F4802222434A601A0740
:104EC00006D50168846B4A6822F4004222434A6096
:104ED000DC0606D50168C46B8A6822F4805222433E
:104EE0008A60990606D50168046C8A6822F400522B
:104EF00022438A605A060FD50168446C4A6822F43E
:104F000080122243B4F5801F4A6005D14A68846C40
:104F100022F4C00222434A601B0606D50268C16C17
:104F2000536823F400230B43536010BD2DE9F04177
:104F3000069D04460F46164698462168CA6937EA18
:104F400002030CBF01220022B24202D00020BDE8C1
:104F5000F0816B1CF2D09DB923681A6822F4D072DC
:104F60001A609A6822F001029A60202384F8813046
:104F700084F88230002384F880300320BDE8F0817B
:104F8000FCF710F8A0EB08008542D6D2E4E773B531
:104F900004460026C0F88460FCF704F823681B6808
:104FA0001A07054617D423681B685B070AD56FF0FC
:104FB0007E43009300222B464FF480012046FFF7EA
:104FC000B5FFA0B92023002084F8813084F8800048
:104FD00084F882300CE06FF07E4300933246034643
:104FE0004FF400112046FFF7A1FF0028DBD003207B
:104FF00002B070BD10B5044660B390F8813003F084
:10500000FF021BB980F880200CF088FD2268242361
:1050100084F88130136823F0010313602046FFF702
:1050200037FD012816D0A36A13B12046FFF72AFFE7
:1050300023685A6822F490425A609A6822F02A0241
:105040009A601A6842F0010220461A60BDE81040DA
:10505000FFF79DBF012010BD1FB503228DF803206F
:1050600007228DF8042008228DF808208DF80C20E6
:10507000826E0123042102248DF800308DF8013066
:105080008DF802308DF805308DF809108DF80A4042
:105090008DF80B108DF80D302AB9A0F86430A0F807
:1050A000623004B010BD03689A68996804AB03EBE2
:1050B0005171C2F3426211F8103C11F8081CDB0078
:1050C000DBB2B3FBF1F3A0F8643004AB1A4412F87E
:1050D000103C12F8082CDB00DBB2B3FBF2F3DEE786
:1050E00038B590F88030012B04461BD0012380F89E
:1050F0008030242380F8813003681D681A6822F00C
:1051000001021A609A6822F0604211439960FFF729
:10511000A3FF03681D60202380F88130002084F8FD
:10512000800038BD022038BD38B590F88030012BA2
:1051300004461BD0012380F88030242380F881307E
:1051400003681D681A6822F001021A609A6822F04A
:10515000606211439960FFF77FFF03681D602023A1
:1051600080F88130002084F8800038BD022038BDEE
:105170000A4B013B01D1032070470269002AF8DA8B
:105180000369064A43F001030361013AF3D003695E
:1051900013F00103F9D11846704700BF410D030019
:1051A00084B038B505AD85E80E000A9B012B044696
:1051B0001BD1836B23F480338363C36823F484039C
:1051C00023F04003C360C36823F44013C360119B02
:1051D000012B02BFC36843F48013C360FFF7C8FF0D
:1051E000BDE83840002004B07047C36843F0400376
:1051F000C360FFF7BDFF4FF48033A363F0E783681C
:1052000043F00103836000207047836823F00103AB
:1052100083600020704708B5C368012923F0C043AC
:10522000C36008D1C36843F00053C3603220FBF76A
:10523000BFFE002008BD19B9C36843F08043F4E7FE
:10524000012008BD890141F02001064A0161013AAF
:1052500005D0036913F02003F9D1184670470320E5
:10526000704700BF410D03001023064A0361013A55
:1052700005D0036913F01003F9D1184670470320D5
:10528000704700BF410D0300D0F800381943C0F843
:10529000001800207047000084B02DE9F04104465A
:1052A00007A880E80E000023119F8846194603F1E5
:1052B000400204EB820201330F2B5160F7D1A36B44
:1052C00043F40013A3635FB9A36B23F40013A36338
:1052D000236843F040032360236843F08003236086
:1052E0000025C4F8005ED4F80038C4F80038032163
:1052F0002046FFF7C9FF04F5006610212046FFF79E
:10530000A1FF2046FFF7B0FF35612B4675612946A6
:10531000F56104F510624FF090404FF000654FF6D4
:105320007F3E43452FD1002104F5306208464FF0FF
:1053300090454FF0006E4FF67F3C8B4234D133697D
:1053400023F4807333610023A3616FF080436361B2
:10535000A36943F01003A361A2691C4B1343A3612B
:105360000D9B1BB1A36943F00803A361012F01BF8B
:10537000A36943F0804343F00403A361BDE8F04117
:10538000002004B07047D2F800C0BCF1000F09DA69
:1053900033B9156011610133C2F808E02032C0E76B
:1053A0001060F7E71160F5E7D2F80080B8F1000F60
:1053B0000ADA39B9C2F800E010610131C2F808C058
:1053C0002032BAE71560F7E71060F5E700383C8057
:1053D00070B54A780C78D0F81C6800F50063012A93
:1053E00004F00F051BD1AA40324300EB4410DA61F0
:1053F000D0F800391A0410D48B68C978D0F8002985
:10540000C3F30A0343F0805343F4004343EA814368
:1054100043EA84531343C0F80039002070BD4FF4B1
:105420008032AA40324300EB4410DA61D0F8003BEE
:105430001B04F2D48B68C978D0F8002BC3F30A039D
:1054400043F0805343F4004343EA81431343C0F8DD
:10545000003BE2E730B54B780C78D0F83C1800F50B
:105460000062012B04F00F0510D1AB40DB43194063
:10547000D163D16900EB44100B40D361D0F800290F
:105480000B4B1340C0F80039002030BD4FF480337F
:10549000AB40DB431940D163D16900EB44100B40B2
:1054A000D361D0F8002B034B1340C0F8003BEBE76F
:1054B000007833EC0078F3EF70B54B780A784D69DB
:1054C000354E012B4FF0200345D113FB020345BBA2
:1054D000D3F8104924F0FF5424F4C014C3F8104941
:1054E000D3F8104944F40024C3F81049D3F8104904
:1054F0002640C3F810694B694BB10B78D0F834588B
:1055000003F00F0101238B402B43C0F8343800EB2C
:105510004210D0F8001941F00441C0F800190020F1
:1055200070BD03F510631C6926401E611C6924F0E0
:10553000FF5424F4C0141C618C68A54288BF4C61E0
:105540001C6944F400241C614C691D69C4F31204F5
:105550002C431C61CFE713FB020000F530631A698E
:1055600032401A611A6922F0FF5222F4C0121A6105
:105570008A6805B14A61196941F400211961196904
:10558000C2F312020A431A61D0F8003B43F004430D
:10559000C0F8003BC3E700BF0000F8FF033300EB97
:1055A000023223F0030302F580520B44994201D1E9
:1055B0000020704751F8040B1060F7E7F8B54B78FE
:1055C0000D785F4E012B4FF020024B6912FB050254
:1055D00069D183BB02F51064D2F8102922F0FF5282
:1055E00022F4C0122261226942F40022226122695F
:1055F00016402661CE78012E00F0948053B10A78CF
:10560000D0F834E802F00F040122A24042EA0E0270
:10561000C0F8342800EB4512012ED2F8004944F0BE
:105620000444C2F8004904D10A78C9689BB2FFF764
:10563000B5FF0020F8BDD2F810493440C2F8104937
:10564000D2F810498E6824F0FF5424F4C014C2F834
:1056500010499C19013CB4FBF6F63A4CD2F810798B
:1056600004EAC6443C43C2F81049D2F81069C3F3B7
:1056700012043443C2F81049CC78012C02F51062B0
:10568000B8D1146924F0C0441461146944F0005482
:105690001461AFE712FB0502D2F8004944F0005450
:1056A000C2F80049B6E702F530652C6934402C6138
:1056B0002C6924F0FF5424F4C0142C618C68FBB9CD
:1056C0002B69C4F312041C432C612B6943F400239F
:1056D0002B61CB78012B0CD1D0F8083813F4807FE4
:1056E000D2F8003B0CBF43F0005343F08053C2F8A4
:1056F000003BD2F8003B43F00443C2F8003B98E77C
:10570000104E2F692344013BB3FBF4F306EAC34672
:105710003E432E619BB22E695C43C4F312043443B2
:105720002C61D6E7D0F8082812F4807F4FF02002D1
:10573000B0D012FB0502D2F8004944F08054AFE724
:105740000000F8FF0000F81F033222F003020A44B1
:1057500000F58050914201D108467047036841F836
:10576000043BF7E74B780A78012B4FF0200313FB3B
:10577000020012D1D0F80039002B06DB2AB1D0F894
:10578000003923F08043C0F80039D0F8003943F4E1
:105790000013C0F8003900207047D0F8003B002B00
:1057A00006DB2AB1D0F8003B23F08043C0F8003B71
:1057B000D0F8003B43F40013C0F8003BEBE74B7814
:1057C0000A78012B4FF0200313FB020011D1D0F80F
:1057D000003923F40013C0F80039CB78023B012BC9
:1057E00005D8D0F8003943F08053C0F800390020C4
:1057F0007047D0F8003B23F40013C0F8003BCB788F
:10580000023B012B9EBFD0F8003B43F08053C0F811
:10581000003BECE7D0F8003823F4FE63C0F8003812
:10582000D0F80038090101F4FE611943C0F80018EE
:105830000020704708B5D0F8043823F00203C0F800
:1058400004380320FBF7B4FB002008BD08B5D0F8EE
:10585000043843F00203C0F804380320FBF7A8FB28
:10586000002008BD4269806910407047D0F81838A0
:1058700000F50060C0691840000C7047D0F8183877
:1058800000F50060C069184080B2704700EB41111C
:1058900000F50060D1F8082B40691040704710B542
:1058A000D0F81048D0F8343800EB411001F00F0167
:1058B000CB4000F51060DB018068DBB22343184069
:1058C00010BD406900F001007047D0F8003923F4A2
:1058D000FF6323F00703C0F8003900F500639A68FE
:1058E00002F00602042A02BFD0F8002942F00302A7
:1058F000C0F800295A6842F480725A60002070474C
:1059000000F53063002018611A6942F400221A6120
:105910001A6942F018021A611A6942F0C0421A610B
:105920007047000029230380004870473C00002096
:105930002923038000487047680000202923038042
:1059400000487047AC000020D0F890320020187753
:10595000704710B5D0F89042A369012B07D1D0F859
:1059600094326178DB68207898470023A361002097
:1059700010BD00000A23038000487047A0000020EB
:1059800038B5D0F89052D0F894326978DB68044684
:10599000287898470C232A46012120460CF0DCFB8E
:1059A000002038BD37B50025ADF806500D78D0F889
:1059B000904215F0600503460A4628D0202D61D19B
:1059C0004978023909295BD8DFE801F0150A5A5AEB
:1059D0005A5A5A1911059378E360002003B030BD7C
:1059E000012204F10C01184600F004FCF5E753888D
:1059F0001B0A2361F1E7012204F11001F3E7012101
:105A0000A161D2882146184600F009FCE5E74978F3
:105A10000B2935D8DFE801F00634343434340E3441
:105A20003434252D93F87412032929D102220DF163
:105A30000601D8E75188090A222907D1D288D3F86C
:105A40009412212A28BF21220968CCE7212905D1F7
:105A5000D2880E49092A28BF0922C4E700210A4634
:105A6000C1E793F8741203290AD1012204F1140149
:105A7000B9E793F87412032902D193786361ACE714
:105A80001146184600F08FFB0220A7E79400002083
:105A900038B50446812100250CF004FBE5620121A4
:105AA00020460CF0FFFAD4F89032C4F858514BB1AC
:105AB000D4F894329B689847D4F890020CF090FB8D
:105AC000C4F89052002038BDF8B5054601240223E1
:105AD000032281210CF0D6FA022303222146EC6234
